:100000000C941BA80C9469A50C9400000C94E1A519
:100010000C9400000C9400000C9400000C94000060
:100020000C9400000C94C8A50C9400000C940000E3
:100030000C9400000C9400000C9400000C94000040
:100040000C9458AD0C9400000C9400000C9400002B
:100050000C9400000C9400000C9400000C94000020
:100060000C9400000C9400000C9400000C94000010
:100070000C9400000C9400000C9400000C94000000
:100080000C9400000C9400000C9400000000000987
:100090000D0B09000000000F080E080000001111F0
:1000A0001F000400010E140404040400000A1511CA
:1000B0000A0400000000000F09090F00B6D021F06B
:1000C000662309F0C7D098940895F8DF09F441C079
:1000D000E62ED52EC42EB32EA22E912E802E002DCC
:1000E000112D222D332DEADF09F43DC0842F952FE9
:1000F0008C199D09B9F072F49095809501964C2D5C
:100100005D2D883180F535952795179507950197D1
:10011000D1F708C08831E8F4B594A79497948794F0
:100120000197D1F766272EF0080D191D2A1D3B1DDA
:1001300009C0801A910AA20AB30A082D192D2A2D86
:100140003B2D332312F486D060E827D001C018D0AD
:1001500016C0002D112D222D332DD6F74CD0C1F312
:1001600040E83427F5CF082D192D2A2D3B2D4C2D95
:100170005D2D6E2D33235AF76DD060E8E8CF0895DA
:100180003AD039F041585F4F342F220F36952795DA
:10019000362B0895689499DF08952DD011F19F931F
:1001A0008F938EE790E0332351F03695279517957E
:1001B000079548175907B4F44F5F5F4FF4CF809508
:1001C0009095019622239AF0000F111F221F4817C5
:1001D00059071CF041505040F5CF00271127222726
:1001E000332708C033270FEF102F2FE7322F8F91BF
:1001F0009F91C6DF0895002329F4112319F42223C7
:1002000009F433230895C6DF332332F0F4DF11F00D
:1002100001E003C0002701C00FEF0895042E152E42
:10022000262E372EF0DF00230895E5DF79F0632FC7
:100230006078220F331F432F5FE7451B552750403F
:10024000269530E8232B3327989403C0442755275D
:100250006627089500951095209530950F5F1F4FE4
:100260002F4F3F4F089547E16627552726F0332348
:1002700012F4F0DF60E891DF0895D7DF81F1E62E18
:10028000D52EC42EB32EA22E912E802E002D112DF0
:10029000222D332DCADF19F16E254C0D5D1D40381E
:1002A0005307F4F441387FEF5707FCF0882799276C
:1002B000AA27BB2770E2B695A7959795879537959E
:1002C00027951795079520F4880D991DAA1DBB1D2C
:1002D0007A9589F7032F3A2F292F182F5EDF0AC04E
:1002E0000FEF102F2FE73FE7FACF0027102F202F17
:1002F000302FF5CF0895E894E8DE0895C9019A01FA
:10030000AB01B80197FB092E05260ED057FD04D08E
:1003100014D00AD0001C38F45095409530952195A2
:100320003F4F4F4F5F4F0895F6F79095809570952A
:1003300061957F4F8F4F9F4F0895A1E21A2EAA1B00
:10034000BB1BFD010DC0AA1FBB1FEE1FFF1FA21785
:10035000B307E407F50720F0A21BB30BE40BF50B82
:10036000661F771F881F991F1A9469F7609570950B
:10037000809590959B01AC01BD01CF010895CF936D
:10038000DF93CDB7DEB72397CDBFDEBF2196B0E8B0
:100390005B1641F4B0E04B1629F4B0E03B1611F4C3
:1003A000B0E02B16D1F4F301BDE2B193B2E3B19307
:1003B000B1E3B193B4E3B193B7E3B193B4E3B193D1
:1003C000B8E3B193B3E3B193B6E3B193B4E3B193BC
:1003D000B8E3B193B0E0B1937BC0B0E0BA8300E082
:1003E00010E020E030E0201631064206530664F4A7
:1003F000BFEFBA8300E010E020E030E002191309FB
:100400002409350918012901F301B0E2B193B0E2E2
:10041000B193B0E2B193B0E2B193B0E2B193B0E284
:10042000B193B0E2B193B0E2B193B0E2B193B0E274
:10043000B193B0E3B193B0E0B1938301065F1F4F76
:1004400008831983B0E05B1641F4B0E04B1629F441
:10045000B0E03B1611F4B0E02B1699F17F926F9249
:100460005F924F923F922F924AE050E060E070E03E
:100470008101920143DF8B019C012F903F904F90AF
:100480005F90005DE881F98100835F924F923F9217
:100490002F924AE050E060E070E0810192012EDF8F
:1004A00089019A012F903F904F905F906F907F90BD
:1004B000180129010881198101501040088319830E
:1004C000C1CF0A81002321F0E881F981BDE2B08328
:1004D0002296CDBFDEBFDF91CF910895002E112E61
:1004E000222E332E042F152F262F372F8CDE00239C
:1004F0001CF00024039401C00024089596DEF1F05E
:100500005523C2F04F31A8F44731C1F050F4419562
:10051000495E05C035952795179507954A95D1F7FA
:100520000DC04751000F111F221F331F4A95D1F7ED
:1005300005C03FE7232F132F032F03C0662309F0C5
:1005400089DE0895042E152E262E372E96DE002ED7
:10055000112E222E332E0895E89485DE08953F93C0
:100560002F931F930F93002D112D222D332D5DDE20
:1005700009F44BC0E62ED52EC42EB32EA22E912EFA
:10058000802E0F911F912F913F914FDE61F16E25CB
:100590004C195D09403853073CF541387FEF570748
:1005A0007CF180E27724632E522E412E302F2227B9
:1005B00011270027000F111F221F331F441C551C39
:1005C000661C771C28F0481859086A087B0804C084
:1005D000480C591C6A1C7B1C0AF001608A9551F773
:1005E00041505040DADD16C00FEF102F2FE73FE7E4
:1005F0006623C9F300DEB9F3342D30E83425F3CF98
:100600000027102F202F302FEECF0F900F900F903C
:100610000F90EACF089502DE1CF40024039401C079
:1006200000240895042E152E262E372EB3DD002E1D
:10063000112E222E332E0895042E152E262E372EFF
:100640005ADE002E112E222E332E0895CF93DF93E3
:10065000CDB7DEB72497CDBFDEBF2196152D110F84
:10066000B7E0042D0695BA95E9F7010F0F57202F33
:1006700030E007FD3FEF00E010E020173107DCF429
:1006800040E050E060E070E08101920127DF002847
:1006900000E009F00FEF002331F0B0E0B883B98338
:1006A000BA83BB8307C0B0E0B883B983B0E8BA832C
:1006B000BFE3BB832AC008E1021728F428823982ED
:1006C0004A825B8222C08101920118DF45DF0883E4
:1006D00019832A833B83A101B201088119812A81F0
:1006E0003B8199DF002800E009F00FEF002369F05B
:1006F000088119812A813B8140E050E060E87FE376
:100700009BDF088319832A833B83088119812A810F
:100710003B812396CDBFDEBFDF91CF910895B1E13C
:100720004B1619F43BBC2ABC26C0B2E14B1619F497
:1007300039BC28BC20C0B3E14B1629F430927900B3
:100740002092780018C0B4E14B1629F4309287004B
:100750002092860010C0B5E14B1629F43092850036
:100760002092840008C0B6E14B1629F43092830031
:100770002092820000C00895042E152E262E372EBA
:10078000EEDE002E112E222E332E0895CF93DF930E
:10079000CDB7DEB7A197CDBFDEBF2196B0E0BE8F4B
:1007A00081019201ABDE088319832A833B835F9228
:1007B0004F923F922F9240E050E060E070E0810164
:1007C000920129DF002800E009F00FEF2F903F9001
:1007D0004F905F90002311F0BFEFBE8F8E010A5F34
:1007E0001F4F7F926F925F924F923F922F923801EC
:1007F000288039804A805B80C2DD2F903F904F90E7
:100800005F906F907F90088119812A813B81A4DEDF
:100810005F924F923F922F92A801B90181019201FC
:1008200001DF40E050E563EC77E48CDE2F903F90F1
:100830004F905F9063DE088319832A833B8340E0F7
:1008400050E060E070E0041715072607370784F4CE
:100850000880198000E010E0001911090A801B804F
:1008600020E030E020093109088319832A833B8383
:100870008E010E5E1F4F7F926F925F924F923F925A
:100880002F923801288039804A805B8078DD2F9054
:100890003F904F905F906F907F9040E050E0B0E0CD
:1008A000BC83BD83F301B0E2B193B0E2B193B0E297
:1008B000B193B0E2B193B0E2B193B0E2B193B0E2E0
:1008C000B193B0E2B193B0E2B193B0E2B193B0E3CF
:1008D000B193B0E0B1935F934F93810192010EDE2B
:1008E000303029F4203019F4103009F40030B0E031
:1008F00009F4BFEF0B2F08A340E050E060E070E088
:100900008101920188DE002800E009F00FEF4F918D
:100910005F9118A10123002341F0F301BDE2B083F0
:1009200011E020E0412F522F00C02E81203281F4AF
:100930000C811D8198012F5F3F4F2C833D838E01D9
:100940000A5F1F4FF901E00FF11F0081202FEECF4A
:10095000022F0030D1F0FA01E60DF71D00830C8163
:100960001D8198012F5F3F4F2C833D838A010F5FCC
:100970001F4FB8018E010A5F1F4FF901E00FF11FF1
:100980000081202F022FAB01E4CF0E8D003010E04C
:1009900009F41FEF503009F4403000E009F40FEF84
:1009A000012351F0FA01E60DF71DB0E3B0838A018F
:1009B0000F5F1F4F980101C09A01303009F42130B8
:1009C00010E009F41FEF0E8D012359F0F901E60D37
:1009D000F71DB0E3B08389010F5F1F4FA8019A0193
:1009E00000C0F901E60DF71DBEE2B08389010F5F7B
:1009F0001F4FA801B6E0BC83B0E0BD83288D203036
:100A0000F9F0203219F420E3022F01C0022FFA017D
:100A1000E60DF71D00830C811D8198012F5F3F4F6C
:100A20002C833D838A010F5F1F4FB8018E010E5E3C
:100A30001F4FF901E00FF11F0081AB01202FDFCF25
:100A4000FA01E60DF71DB0E0B083A096CDBFDEBF82
:100A5000DF91CF910895049FD001159FF001249F4D
:100A6000E00DF11D069FE00DF11D349FF00D259F57
:100A7000F00D169FF00D079FF00D3327149FB00D5A
:100A8000E11DF31F059FB00DE11DF31F8D019F01B7
:100A9000089521BE0895CF93DF93CDB7DEB7269793
:100AA000CDBFDEBF21962F923F924F926F927F92E1
:100AB000022D10E0212F312F432D542D60E047FCF3
:100AC0006FEF762FC8DF48DD5F924F923F922F92F3
:100AD00040E050E068EC72E44FDE18012901B6DD19
:100AE0000A831B832C833D83BDEE6B2EBDE07B2EE2
:100AF000180129014BDEA1D30A811B812C813D8184
:100B0000FDDC08831983B8ED4B2EBDE05B2E180188
:100B10000E94B08FBDEE4B2EBDE05B2EB1E03B2EB0
:100B2000B1E02B2E0E945F96B8ED4B2EBDE05B2E00
:100B3000B6E03B2EB2E02B2E0E945F962F902F92B4
:100B4000B8ED4B2EBDE05B2EB0E03B2E0E94B08F87
:100B5000B8ED4B2EBDE05B2EB1E03B2EB2E02B2E6C
:100B60000E945F962F903F904F905F90B1E05B1690
:100B700031F4B1E14B2E28803980D1DD45C0B2E09F
:100B80005B1631F4B2E14B2E28803980C8DD3CC0C1
:100B9000B3E05B1631F4B3E14B2E28803980BFDD22
:100BA00033C0B4E05B16A9F4B0E02B1649F408801A
:100BB0001980032D142D0019110918016ADF08C0CE
:100BC00008801980032D142D00191109180161DF07
:100BD0001BC0B5E05B1631F4B4E14B2E28803980A0
:100BE0009EDD12C0B6E05B1631F4B5E14B2E2880D5
:100BF000398095DD09C0B7E05B1631F4B6E14B2EC4
:100C0000288039808CDD00C07F906F904F903F909E
:100C10002F902596CDBFDEBFDF91CF910895B09183
:100C20003400BD7FB093340019D318D3B091340091
:100C3000BE7FB093340012D311D3B0913400B260B0
:100C4000B09334000BD30AD3B0913400B160B093A9
:100C500034000895CF93DF93CDB7DEB72397CDBF90
:100C6000DEBF2196B1E0B883B0E8B983B0E0BA83C3
:100C700009811A81103009F4003009F43BC0EED22A
:100C8000EDD2ECD2EBD2B0913400B160B09334002D
:100C9000E5D2E4D209811A8102211070103009F4E2
:100CA000003031F0B0913400BD7FB093340005C006
:100CB000B0913400B260B0933400D0D2CFD2B091B2
:100CC0003400BE7FB0933400B0910201BE7FB09378
:100CD0000201B0913300B0FD06C0B0910201B0FF37
:100CE00001C001C0F6CF09811A81169507950983C5
:100CF0001A83BECFB0E0B883B1D2B0D2B091340085
:100D0000B160B0933400AAD2A9D2B0913400BD7FB3
:100D1000B0933400A3D2A2D2A1D2A0D2B091340019
:100D2000BE7FB0933400B0910201BE7FB093020148
:100D3000B0913300B0FD06C0B0910201B0FF01C018
:100D400001C0F6CFB0E0B88389D288D2B091330029
:100D5000B1FF03C008810160088380D27FD27ED2B8
:100D60007DD27CD27BD27AD279D278D277D276D227
:100D700075D274D273D272D271D2B0913400B16094
:100D8000B0933400B0913400B260B0933400088165
:100D90002296CDBFDEBFDF91CF910895B091340090
:100DA000B260B09334005AD259D2B0913400BE7FB1
:100DB000B0933400B0910201BE7FB0930201B091B4
:100DC0003300B0FD06C0B0910201B0FF01C001C008
:100DD000F6CF44D243D242D241D240D23FD23ED2C9
:100DE0003DD2B0913400BD7FB093340037D236D2BB
:100DF0000895E32DF42DB0E2B193B0E2B193B0E3E6
:100E0000B193B0E0B193032D142D0E5F1F4F9801E5
:100E1000B0E02B1681F04AE0022DC4D1092F005D0D
:100E2000F90100834AE0022DBDD1202E8901015035
:100E300010409801EDCF0895CF93DF93CDB7DEB783
:100E40002397CDBFDEBF2196B0E0B883B0E8B98369
:100E5000B0E0BA8309811A81103009F4003009F436
:100E600033C0FCD1FBD1B0913400BD7FB0933400CE
:100E7000F5D1F4D1B0913400BE7FB0933400B0917D
:100E80000201BE7FB0930201B0913300B0FD06C0F5
:100E9000B0910201B0FF01C001C0F6CFB0913300A4
:100EA000B1FF04C018810981012B0883D7D1D6D1A5
:100EB000B0913400B160B093340009811A81169565
:100EC000079509831A83C6CFB0913400BD7FB093D4
:100ED0003400C4D1C3D1B0E03B1611F4B0E02B16FE
:100EE00029F0B0913400B260B0933400B7D1B6D1DC
:100EF000B0913400BE7FB0933400B0910201BE7F48
:100F0000B0930201B0913300B0FD06C0B091020170
:100F1000B0FF01C001C0F6CFA1D1A0D1B091340083
:100F2000B160B09334009AD199D1B0913400B260DD
:100F3000B093340008812296CDBFDEBFDF91CF9100
:100F400008950FB6BCB3B1FF02C00000FBCFF89408
:100F50003FBA2EBA4DBABCB3B460BCBBBCB3B2602E
:100F6000BCBB0FBE0895B0913500B77FB09335007C
:100F7000B0913500BB7FB0933500B0913500BF779D
:100F8000B0933500B0913500BF7BB0933500B09180
:100F90003500BF7DB0933500B0913500BF7EB09372
:100FA0003500B0913400B860B0933400B091340093
:100FB000B460B0933400B0913400B061B0933400A9
:100FC000B0913400B062B0933400B0913400B0649A
:100FD000B0933400B0913400B068B093340044D181
:100FE00043D142D1B0913500B062B0933500B09199
:100FF0003500B061B0933500B0913500B860B09362
:1010000035002CD1B0913500B77FB09335002CD18D
:10101000B0913500B860B093350020D1B091350063
:10102000B77FB093350020D1B0913500B860B09350
:10103000350014D1B0913500B77FB093350014D18D
:10104000B0913500BF7EB0933500B0913500B860E7
:10105000B093350003D1B0913500B77FB093350020
:1010600003D1B0913500B860B0933500F7D0B0919E
:101070003500B77FB0933500B0913500BF7DB09398
:101080003500B0913500B068B0933500B0913500AF
:10109000B860B0933500E2D0B0913500B77FB0931F
:1010A0003500E2D0B0913500BF77B0933500B091F4
:1010B0003500B061B0933500B0913500B860B093A1
:1010C0003500CCD0B0913500B77FB0933500B091EA
:1010D0003500BF7EB0933500B0913500B860B09355
:1010E0003500BCD0B0913500B77FB0933500BCD08F
:1010F000B0913500B860B0933500B0D0B0913500F4
:10110000B77FB0933500B0913500B061B093350032
:10111000B0913500B860B0933500A0D0B0913500E3
:10112000B77FB0933500A0D0B0913500BF7EB093AB
:101130003500B0913500B860B09335008FD0B091D4
:101140003500B77FB0933500B0913500B068B093EB
:101150003500B0913500B064B0933500B0913500E2
:10116000B062B0933500B0913500B061B0933500F6
:10117000B0913500B860B093350070D0B0913500B3
:10118000B77FB093350070D0B0910201B260B093D8
:10119000020108959801249F8001259F100D349F1E
:1011A000100D0895992779E004C0991F941708F04D
:1011B000941B001F7A95C9F7009508952F92B1E00E
:1011C0002B1619F4B0E82B2E14C0B2E02B1619F42C
:1011D000B0EC2B2E0EC0B3E02B1619F4B4E92B2E75
:1011E00008C0B4E02B1619F4B4ED2B2E02C0B0E801
:1011F0002B2E032D0150020D202EB0910201B26062
:10120000B0930201202E0E94F995B0910201BD7F9A
:10121000B0930201242C0E94F995B0910201B260B2
:10122000B09302012F90089516E00BE20A95F1F7B2
:101230001A95E1F70000000008952F9294DEB1E0C6
:101240002B2E0E94F995BCE02B2E0E94F9952F9031
:10125000089505E80A95F1F70000089502E00A955F
:10126000F1F70000000008951AE303E20A95F1F790
:101270001A95E1F70000000008952F928F927F9257
:101280006F925F924F923F922F92C9DCB0ED2B2E5E
:10129000E1DC2224DFDCB0E82B2EDCDC2F903F9059
:1012A0002F92232CD7DC2F90D5DC4F905F906F903E
:1012B0005F924F92262CCEDC4F905F904F92252C60
:1012C000C9DC4F907F904F92272CC4DC4F908F90B9
:1012D0004F92282CBFDC62DDA2DCB0ED2B2EBADCF5
:1012E0002224B8DC4F90042D0070202EB3DC56DD94
:1012F0002F900895B0910201BD7FB09302010E942A
:10130000F995B0910201B260B09302010895CF93B4
:10131000DF93CDB7DEB76497CDBFDEBF2196B09126
:101320000201B062B0930201B0910201BF7EB0939E
:1013300002016F925F924F923F922F927EDF2F9029
:101340003F904F905F906F9010900201009049077E
:101350004E7F15FC06FE01C0416040FFBCC76F9286
:101360005F924F923F922F92232CB6E73B2EB7E02D
:101370004B2E3FDD2F903F904F904F923F922F92F8
:10138000242CBAE43B2EB7E04B2E33DD8E01302EF9
:10139000412E2090D20D2DDD2F903F904F905F90E9
:1013A0006F90B1E02B1609F0E8C08E016F925F924A
:1013B0004F923F922F922801B2E03B2EB1E02B2EAC
:1013C0000E945F96B3E4BB83B8E6BC83BAE3BD83F7
:1013D000B0E0BE838E010D5F1F4F2801B1E03B2EB0
:1013E000B1E02B2E0E945F96B6E74B2EB7E05B2E46
:1013F000B7E03B2EB1E02B2E0E945F96BAE44B2E55
:10140000B7E05B2EBAE03B2EB1E02B2E0E945F9638
:10141000BAE3BB83B0E0BC838E010D5F1F4F280190
:10142000BAE03B2EB1E02B2E0E945F96FE01339670
:10143000B4E4B193B9E7B193BAE3B193B1E3B19333
:10144000B0E2B193B2E3B193B0E2B193B3E3B1933D
:10145000B0E2B193B4E3B193B0E2B193B5E3B19329
:10146000B0E2B193B6E3B193B0E2B193B7E3B19315
:10147000B0E0B1938E010D5F1F4F2801B1E03B2E0C
:10148000B2E02B2E0E945F9625E01FE002EF0A9546
:10149000F1F71A95E1F72A95D1F7B0E2B093760704
:1014A000B0E2B0937707B0E0B0937807B0E2BB83C7
:1014B000B0E2BC83B0E2BD83B0E0BE838E010D5FBD
:1014C0001F4F2801B7E03B2EB1E02B2E0E945F9604
:1014D000BAE44B2EB7E05B2EBAE03B2EB1E02B2EE8
:1014E0000E945F96BAE3BB83B0E0BC838E010D5FC0
:1014F0001F4F2801BAE03B2EB1E02B2E0E945F96D1
:10150000FE013396B4E4B193B9E7B193BAE3B19372
:10151000B0E2B193B0E2B193B2E3B193B0E2B19370
:10152000B3E3B193B0E2B193B4E3B193B0E2B1935A
:10153000B5E3B193B0E2B193B6E3B193B0E2B19346
:10154000B7E3B193B0E0B1938E010D5F1F4F280157
:10155000B1E03B2EB2E02B2E0E945F962F903F9081
:101560004F905F906F9025E01FE002EF0A95F1F732
:101570001A95E1F72A95D1F788C5B2E02B1609F044
:10158000E8C08E016F925F924F923F922F92280196
:10159000B2E03B2EB1E02B2E0E945F96B3E4BB83FA
:1015A000B8E6BC83BAE3BD83B0E0BE838E010D5FB5
:1015B0001F4F2801B1E03B2EB1E02B2E0E945F9619
:1015C000B6E74B2EB7E05B2EB7E03B2EB1E02B2EFB
:1015D0000E945F96BAE44B2EB7E05B2EBAE03B2E3A
:1015E000B1E02B2E0E945F96BAE3BB83B0E0BC83D0
:1015F0008E010D5F1F4F2801BAE03B2EB1E02B2E6C
:101600000E945F96FE013396B4E4B193B9E7B193BB
:10161000BAE3B193B1E3B193B0E2B193B2E3B19362
:10162000B0E2B193B3E3B193B0E2B193B4E3B19359
:10163000B0E2B193B5E3B193B0E2B193B6E3B19345
:10164000B0E2B193B7E3B193B0E0B1938E010D5F17
:101650001F4F2801B1E03B2EB2E02B2E0E945F9677
:1016600025E01FE002EF0A95F1F71A95E1F72A95B8
:10167000D1F7B0E2B0937607B0E2B0937707B0E06D
:10168000B0937807B0E2BB83B0E2BC83B0E2BD8325
:10169000B0E0BE838E010D5F1F4F2801B7E03B2EE7
:1016A000B1E02B2E0E945F96BAE44B2EB7E05B2E82
:1016B000BAE03B2EB1E02B2E0E945F96BAE3BB83CB
:1016C000B0E0BC838E010D5F1F4F2801BAE03B2EB6
:1016D000B1E02B2E0E945F96FE013396B4E4B193E5
:1016E000B9E7B193BAE3B193B1E3B193B0E2B19387
:1016F000B0E2B193B0E2B193B3E3B193B0E2B1938E
:10170000B4E3B193B0E2B193B5E3B193B0E2B19376
:10171000B6E3B193B0E2B193B7E3B193B0E0B19364
:101720008E010D5F1F4F2801B1E03B2EB2E02B2E42
:101730000E945F962F903F904F905F906F9025E0B2
:101740001FE002EF0A95F1F71A95E1F72A95D1F714
:101750009CC4B3E02B1609F0E8C08E016F925F9233
:101760004F923F922F922801B2E03B2EB1E02B2EF8
:101770000E945F96B3E4BB83B8E6BC83BAE3BD8343
:10178000B0E0BE838E010D5F1F4F2801B1E03B2EFC
:10179000B1E02B2E0E945F96B6E74B2EB7E05B2E92
:1017A000B7E03B2EB1E02B2E0E945F96BAE44B2EA1
:1017B000B7E05B2EBAE03B2EB1E02B2E0E945F9685
:1017C000BAE3BB83B0E0BC838E010D5F1F4F2801DD
:1017D000BAE03B2EB1E02B2E0E945F96FE013396BD
:1017E000B4E4B193B9E7B193BAE3B193B1E3B19380
:1017F000B0E2B193B2E3B193B0E2B193B3E3B1938A
:10180000B0E2B193B4E3B193B0E2B193B5E3B19375
:10181000B0E2B193B6E3B193B0E2B193B7E3B19361
:10182000B0E0B1938E010D5F1F4F2801B1E03B2E58
:10183000B2E02B2E0E945F9625E01FE002EF0A9592
:10184000F1F71A95E1F72A95D1F7B0E2B093760750
:10185000B0E2B0937707B0E0B0937807B0E2BB8313
:10186000B0E2BC83B0E2BD83B0E0BE838E010D5F09
:101870001F4F2801B7E03B2EB1E02B2E0E945F9650
:10188000BAE44B2EB7E05B2EBAE03B2EB1E02B2E34
:101890000E945F96BAE3BB83B0E0BC838E010D5F0C
:1018A0001F4F2801BAE03B2EB1E02B2E0E945F961D
:1018B000FE013396B4E4B193B9E7B193BAE3B193BF
:1018C000B1E3B193B0E2B193B2E3B193B0E2B193BB
:1018D000B0E2B193B0E2B193B4E3B193B0E2B193AB
:1018E000B5E3B193B0E2B193B6E3B193B0E2B19393
:1018F000B7E3B193B0E0B1938E010D5F1F4F2801A4
:10190000B1E03B2EB2E02B2E0E945F962F903F90CD
:101910004F905F906F9025E01FE002EF0A95F1F77E
:101920001A95E1F72A95D1F7B0C3B4E02B1609F068
:10193000E8C08E016F925F924F923F922F922801E2
:10194000B4E03B2EB1E02B2E0E945F96B3E4BB8344
:10195000B8E6BC83BAE3BD83B0E0BE838E010D5F01
:101960001F4F2801B1E03B2EB1E02B2E0E945F9665
:10197000B6E74B2EB7E05B2EB7E03B2EB1E02B2E47
:101980000E945F96BAE44B2EB7E05B2EBAE03B2E86
:10199000B1E02B2E0E945F96BAE3BB83B0E0BC831C
:1019A0008E010D5F1F4F2801BAE03B2EB1E02B2EB8
:1019B0000E945F96FE013396B4E4B193B9E7B19308
:1019C000BAE3B193B1E3B193B0E2B193B2E3B193AF
:1019D000B0E2B193B3E3B193B0E2B193B4E3B193A6
:1019E000B0E2B193B5E3B193B0E2B193B6E3B19392
:1019F000B0E2B193B7E3B193B0E0B1938E010D5F64
:101A00001F4F2801B1E03B2EB2E02B2E0E945F96C3
:101A100025E01FE002EF0A95F1F71A95E1F72A9504
:101A2000D1F7B0E2B0937607B0E2B0937707B0E0B9
:101A3000B0937807B0E2BB83B0E2BC83B0E2BD8371
:101A4000B0E0BE838E010D5F1F4F2801B7E03B2E33
:101A5000B1E02B2E0E945F96BAE44B2EB7E05B2ECE
:101A6000BAE03B2EB1E02B2E0E945F96BAE3BB8317
:101A7000B0E0BC838E010D5F1F4F2801BAE03B2E02
:101A8000B1E02B2E0E945F96FE013396B4E4B19331
:101A9000B9E7B193BAE3B193B1E3B193B0E2B193D3
:101AA000B2E3B193B0E2B193B3E3B193B0E2B193D7
:101AB000B0E2B193B0E2B193B5E3B193B0E2B193C8
:101AC000B6E3B193B0E2B193B7E3B193B0E0B193B1
:101AD0008E010D5F1F4F2801B1E03B2EB2E02B2E8F
:101AE0000E945F962F903F904F905F906F9025E0FF
:101AF0001FE002EF0A95F1F71A95E1F72A95D1F761
:101B0000C4C2B5E02B1609F0E8C08E016F925F9257
:101B10004F923F922F922801B2E03B2EB1E02B2E44
:101B20000E945F96B3E4BB83B8E6BC83BAE3BD838F
:101B3000B0E0BE838E010D5F1F4F2801B1E03B2E48
:101B4000B1E02B2E0E945F96B6E74B2EB7E05B2EDE
:101B5000B7E03B2EB1E02B2E0E945F96BAE44B2EED
:101B6000B7E05B2EBAE03B2EB1E02B2E0E945F96D1
:101B7000BAE3BB83B0E0BC838E010D5F1F4F280129
:101B8000BAE03B2EB1E02B2E0E945F96FE01339609
:101B9000B4E4B193B9E7B193BAE3B193B1E3B193CC
:101BA000B0E2B193B2E3B193B0E2B193B3E3B193D6
:101BB000B0E2B193B4E3B193B0E2B193B5E3B193C2
:101BC000B0E2B193B6E3B193B0E2B193B7E3B193AE
:101BD000B0E0B1938E010D5F1F4F2801B1E03B2EA5
:101BE000B2E02B2E0E945F9625E01FE002EF0A95DF
:101BF000F1F71A95E1F72A95D1F7B0E2B09376079D
:101C0000B0E2B0937707B0E0B0937807B0E2BB835F
:101C1000B0E2BC83B0E2BD83B0E0BE838E010D5F55
:101C20001F4F2801B7E03B2EB1E02B2E0E945F969C
:101C3000BAE44B2EB7E05B2EBAE03B2EB1E02B2E80
:101C40000E945F96BAE3BB83B0E0BC838E010D5F58
:101C50001F4F2801BAE03B2EB1E02B2E0E945F9669
:101C6000FE013396B4E4B193B9E7B193BAE3B1930B
:101C7000B1E3B193B0E2B193B2E3B193B0E2B19307
:101C8000B3E3B193B0E2B193B4E3B193B0E2B193F3
:101C9000B0E2B193B0E2B193B6E3B193B0E2B193E5
:101CA000B7E3B193B0E0B1938E010D5F1F4F2801F0
:101CB000B1E03B2EB2E02B2E0E945F962F903F901A
:101CC0004F905F906F9025E01FE002EF0A95F1F7CB
:101CD0001A95E1F72A95D1F7D8C1B6E02B1609F08D
:101CE000E8C08E016F925F924F923F922F9228012F
:101CF000B2E03B2EB1E02B2E0E945F96B3E4BB8393
:101D0000B8E6BC83BAE3BD83B0E0BE838E010D5F4D
:101D10001F4F2801B1E03B2EB1E02B2E0E945F96B1
:101D2000B6E74B2EB7E05B2EB7E03B2EB1E02B2E93
:101D30000E945F96BAE44B2EB7E05B2EBAE03B2ED2
:101D4000B1E02B2E0E945F96BAE3BB83B0E0BC8368
:101D50008E010D5F1F4F2801BAE03B2EB1E02B2E04
:101D60000E945F96FE013396B4E4B193B9E7B19354
:101D7000BAE3B193B1E3B193B0E2B193B2E3B193FB
:101D8000B0E2B193B3E3B193B0E2B193B4E3B193F2
:101D9000B0E2B193B5E3B193B0E2B193B6E3B193DE
:101DA000B0E2B193B7E3B193B0E0B1938E010D5FB0
:101DB0001F4F2801B1E03B2EB2E02B2E0E945F9610
:101DC00025E01FE002EF0A95F1F71A95E1F72A9551
:101DD000D1F7B0E2B0937607B0E2B0937707B0E006
:101DE000B0937807B0E2BB83B0E2BC83B0E2BD83BE
:101DF000B0E0BE838E010D5F1F4F2801B7E03B2E80
:101E0000B1E02B2E0E945F96BAE44B2EB7E05B2E1A
:101E1000BAE03B2EB1E02B2E0E945F96BAE3BB8363
:101E2000B0E0BC838E010D5F1F4F2801BAE03B2E4E
:101E3000B1E02B2E0E945F96FE013396B4E4B1937D
:101E4000B9E7B193BAE3B193B1E3B193B0E2B1931F
:101E5000B2E3B193B0E2B193B3E3B193B0E2B19323
:101E6000B4E3B193B0E2B193B5E3B193B0E2B1930F
:101E7000B0E2B193B0E2B193B7E3B193B0E0B19304
:101E80008E010D5F1F4F2801B1E03B2EB2E02B2EDB
:101E90000E945F962F903F904F905F906F9025E04B
:101EA0001FE002EF0A95F1F71A95E1F72A95D1F7AD
:101EB000ECC0B7E02B1609F0E8C08E016F925F927C
:101EC0004F923F922F922801B2E03B2EB1E02B2E91
:101ED0000E945F96B3E4BB83B8E6BC83BAE3BD83DC
:101EE000B0E0BE838E010D5F1F4F2801B1E03B2E95
:101EF000B1E02B2E0E945F96B6E74B2EB7E05B2E2B
:101F0000B7E03B2EB1E02B2E0E945F96BAE44B2E39
:101F1000B7E05B2EBAE03B2EB1E02B2E0E945F961D
:101F2000BAE3BB83B0E0BC838E010D5F1F4F280175
:101F3000BAE03B2EB1E02B2E0E945F96FE01339655
:101F4000B4E4B193B9E7B193BAE3B193B1E3B19318
:101F5000B0E2B193B2E3B193B0E2B193B3E3B19322
:101F6000B0E2B193B4E3B193B0E2B193B5E3B1930E
:101F7000B0E2B193B6E3B193B0E2B193B7E3B193FA
:101F8000B0E0B1938E010D5F1F4F2801B1E03B2EF1
:101F9000B2E02B2E0E945F9625E01FE002EF0A952B
:101FA000F1F71A95E1F72A95D1F7B0E2B0937607E9
:101FB000B0E2B0937707B0E0B0937807B0E2BB83AC
:101FC000B0E2BC83B0E2BD83B0E0BE838E010D5FA2
:101FD0001F4F2801B7E03B2EB1E02B2E0E945F96E9
:101FE000BAE44B2EB7E05B2EBAE03B2EB1E02B2ECD
:101FF0000E945F96BAE3BB83B0E0BC838E010D5FA5
:102000001F4F2801BAE03B2EB1E02B2E0E945F96B5
:10201000FE013396B4E4B193B9E7B193BAE3B19357
:10202000B1E3B193B0E2B193B2E3B193B0E2B19353
:10203000B3E3B193B0E2B193B4E3B193B0E2B1933F
:10204000B5E3B193B0E2B193B6E3B193B0E2B1932B
:10205000B0E2B193B0E0B1938E010D5F1F4F280144
:10206000B1E03B2EB2E02B2E0E945F962F903F9066
:102070004F905F906F9025E01FE002EF0A95F1F717
:102080001A95E1F72A95D1F700C06F925F924F92AF
:102090003F922F9266245524B5E04B2EB2E32B2EAF
:1020A000B0E03B2E0E94C26E2F903F904F905F9009
:1020B0006F90002329F0B0910201B460B093020147
:1020C0006F925F924F923F922F92B1E06B2E552408
:1020D000B5E04B2EB0E32B2EB0E03B2E0E94C26E3B
:1020E0002F903F904F905F906F90009002011127CA
:1020F00002FC1395012339F0351410F0362C03C07F
:10210000032D0F5F302EB0910201B460B093020135
:102110006F925F924F923F922F9266245524B4E0C3
:102120004B2EB2E32B2EB0E03B2E0E94C26E2F90BE
:102130003F904F905F906F90002329F0B091020183
:10214000B460B09302016F925F924F923F922F92D0
:10215000B1E06B2E5524B4E04B2EB0E32B2EB0E053
:102160003B2E0E94C26E2F903F904F905F906F90D9
:1021700000900201112702FC1395012339F063142A
:1021800010F0352C03C0032D0150302E309228075B
:102190006F925F924F923F922F9266245524B2E045
:1021A0004B2EB0E32B2EB0E03B2E0E94C26E2F9040
:1021B0003F904F905F906F90003029F0B0910201F6
:1021C000B061B09302016F925F924F923F922F9253
:1021D000B1E06B2E5524B2E04B2EB0E32B2EB0E0D5
:1021E0003B2E0E94C26E2F903F904F905F906F9059
:1021F00000900201112704FC13950123A9F0B0916E
:102200000201BF7EB0930201B0910201BF7DB09385
:1022100002016F925F924F923F922F920ED82F90B1
:102220003F904F905F906F906F925F924F923F926E
:102230002F9266245524B6E04B2EB0E32B2EB0E04F
:102240003B2E0E94C26E2F903F904F905F906F90F8
:10225000003029F0B0910201B460B09302011090F7
:102260000201009002014E7F15FC02FE01C0416098
:102270006F925F924F923F922F92B1E06B2E552456
:10228000B6E04B2EB0E32B2EB0E03B2E0E94C26E88
:102290002F903F904F905F906F90112740FD1395C6
:1022A0000123B1F0B0910201BF7DB0930201B09162
:1022B0000201BB7FB09302016F925F924F923F92F7
:1022C0002F920E941D092F903F904F905F906F902A
:1022D0003092280739C86396CDBFDEBFDF91CF911A
:1022E0000895CF93DF93CDB7DEB76297CDBFDEBF42
:1022F00021965F926F92B0910201B062B093020199
:10230000B0910201BF7EB0930201B0910201B5FF0E
:102310004EC7B1E02B1609F0C9C0FE01B0E5B1937C
:10232000BCE6B193B5E6B193B1E6B193B3E7B1932F
:10233000B5E6B193B0E2B193B3E4B193B8E6B1932B
:10234000BFE6B193B3E7B193B5E6B193B0E2B19311
:10235000B4E4B193B1E6B193B9E7B193BAE3B19301
:10236000B0E0B1938E014F923F922F922801B1E0DD
:102370003B2EB1E02B2E0E945F96FE01B4E4B19398
:10238000B9E7B193BAE3B193B1E3B193B0E2B193DA
:10239000B2E3B193B0E2B193B3E3B193B0E2B193DE
:1023A000B4E3B193B0E2B193B5E3B193B0E2B193CA
:1023B000B6E3B193B0E2B193B7E3B193B0E0B193B8
:1023C0008E012801B1E03B2EB2E02B2E0E945F96D9
:1023D00025E01FE002EF0A95F1F71A95E1F72A953B
:1023E000D1F7FE01B0E5B193BCE6B193B5E6B19388
:1023F000B1E6B193B3E7B193B5E6B193B0E2B1936F
:10240000B3E4B193B8E6B193BFE6B193B3E7B19348
:10241000B5E6B193B0E2B193B4E4B193B1E6B19350
:10242000B9E7B193BAE3B193B0E0B1938E0128015B
:10243000B1E03B2EB1E02B2E0E945F96FE01B4E48A
:10244000B193B9E7B193BAE3B193B0E2B193B0E21B
:10245000B193B2E3B193B0E2B193B3E3B193B0E21D
:10246000B193B4E3B193B0E2B193B5E3B193B0E209
:10247000B193B6E3B193B0E2B193B7E3B193B0E0F7
:10248000B1938E012801B1E03B2EB2E02B2E0E94C9
:102490005F962F903F904F9025E01FE002EF0A9546
:1024A000F1F71A95E1F72A95D1F7CEC4B2E02B16D1
:1024B00009F0C9C0FE01B0E5B193BCE6B193B5E641
:1024C000B193B1E6B193B3E7B193B5E6B193B0E29E
:1024D000B193B3E4B193B8E6B193BFE6B193B3E778
:1024E000B193B5E6B193B0E2B193B4E4B193B1E680
:1024F000B193B9E7B193BAE3B193B0E0B1938E0170
:102500004F923F922F922801B1E03B2EB1E02B2E4B
:102510000E945F96FE01B4E4B193B9E7B193BAE3C8
:10252000B193B1E3B193B0E2B193B2E3B193B0E24E
:10253000B193B3E3B193B0E2B193B4E3B193B0E23A
:10254000B193B5E3B193B0E2B193B6E3B193B0E226
:10255000B193B7E3B193B0E0B1938E012801B1E03C
:102560003B2EB2E02B2E0E945F9625E01FE002EF8B
:102570000A95F1F71A95E1F72A95D1F7FE01B0E532
:10258000B193BCE6B193B5E6B193B1E6B193B3E7CD
:10259000B193B5E6B193B0E2B193B3E4B193B8E6C9
:1025A000B193BFE6B193B3E7B193B5E6B193B0E2AF
:1025B000B193B4E4B193B1E6B193B9E7B193BAE39F
:1025C000B193B0E0B1938E012801B1E03B2EB1E0B0
:1025D0002B2E0E945F96FE01B4E4B193B9E7B1934C
:1025E000BAE3B193B1E3B193B0E2B193B0E2B19386
:1025F000B0E2B193B3E3B193B0E2B193B4E3B1937A
:10260000B0E2B193B5E3B193B0E2B193B6E3B19365
:10261000B0E2B193B7E3B193B0E0B1938E0128017A
:10262000B1E03B2EB2E02B2E0E945F962F903F90A0
:102630004F9025E01FE002EF0A95F1F71A95E1F7B8
:102640002A95D1F701C4B3E02B1609F0C9C0FE01E9
:10265000B0E5B193BCE6B193B5E6B193B1E6B19301
:10266000B3E7B193B5E6B193B0E2B193B3E4B193FC
:10267000B8E6B193BFE6B193B3E7B193B5E6B193D2
:10268000B0E2B193B4E4B193B1E6B193B9E7B193D9
:10269000BAE3B193B0E0B1938E014F923F922F9283
:1026A0002801B1E03B2EB1E02B2E0E945F96FE0187
:1026B000B4E4B193B9E7B193BAE3B193B1E3B193A1
:1026C000B0E2B193B2E3B193B0E2B193B3E3B193AB
:1026D000B0E2B193B4E3B193B0E2B193B5E3B19397
:1026E000B0E2B193B6E3B193B0E2B193B7E3B19383
:1026F000B0E0B1938E012801B1E03B2EB2E02B2E69
:102700000E945F9625E01FE002EF0A95F1F71A9507
:10271000E1F72A95D1F7FE01B0E5B193BCE6B1939C
:10272000B5E6B193B1E6B193B3E7B193B5E6B19332
:10273000B0E2B193B3E4B193B8E6B193BFE6B1931D
:10274000B3E7B193B5E6B193B0E2B193B4E4B1931A
:10275000B1E6B193B9E7B193BAE3B193B0E0B19305
:102760008E012801B1E03B2EB1E02B2E0E945F9636
:10277000FE01B4E4B193B9E7B193BAE3B193B1E325
:10278000B193B0E2B193B2E3B193B0E2B193B0E2EE
:10279000B193B0E2B193B4E3B193B0E2B193B5E3D6
:1027A000B193B0E2B193B6E3B193B0E2B193B7E3C2
:1027B000B193B0E0B1938E012801B1E03B2EB2E0BD
:1027C0002B2E0E945F962F903F904F9025E01FE0A8
:1027D00002EF0A95F1F71A95E1F72A95D1F734C37C
:1027E000B4E02B1609F0C9C0FE01B0E5B193BCE618
:1027F000B193B5E6B193B1E6B193B3E7B193B5E662
:10280000B193B0E2B193B3E4B193B8E6B193BFE64C
:10281000B193B3E7B193B5E6B193B0E2B193B4E449
:10282000B193B1E6B193B9E7B193BAE3B193B0E034
:10283000B1938E014F923F922F922801B1E03B2E2F
:10284000B1E02B2E0E945F96FE01B4E4B193B9E78C
:10285000B193BAE3B193B1E3B193B0E2B193B2E310
:10286000B193B0E2B193B3E3B193B0E2B193B4E307
:10287000B193B0E2B193B5E3B193B0E2B193B6E3F3
:10288000B193B0E2B193B7E3B193B0E0B1938E01ED
:102890002801B1E03B2EB2E02B2E0E945F9625E08E
:1028A0001FE002EF0A95F1F71A95E1F72A95D1F7A3
:1028B000FE01B0E5B193BCE6B193B5E6B193B1E6E4
:1028C000B193B3E7B193B5E6B193B0E2B193B3E49A
:1028D000B193B8E6B193BFE6B193B3E7B193B5E670
:1028E000B193B0E2B193B4E4B193B1E6B193B9E777
:1028F000B193BAE3B193B0E0B1938E012801B1E096
:102900003B2EB1E02B2E0E945F96FE01B4E4B19302
:10291000B9E7B193BAE3B193B1E3B193B0E2B19344
:10292000B2E3B193B0E2B193B3E3B193B0E2B19348
:10293000B0E2B193B0E2B193B5E3B193B0E2B19339
:10294000B6E3B193B0E2B193B7E3B193B0E0B19322
:102950008E012801B1E03B2EB2E02B2E0E945F9643
:102960002F903F904F9025E01FE002EF0A95F1F77E
:102970001A95E1F72A95D1F767C2B5E02B1609F051
:10298000C9C0FE01B0E5B193BCE6B193B5E6B19321
:10299000B1E6B193B3E7B193B5E6B193B0E2B193C9
:1029A000B3E4B193B8E6B193BFE6B193B3E7B193A3
:1029B000B5E6B193B0E2B193B4E4B193B1E6B193AB
:1029C000B9E7B193BAE3B193B0E0B1938E014F92FE
:1029D0003F922F922801B1E03B2EB1E02B2E0E94B6
:1029E0005F96FE01B4E4B193B9E7B193BAE3B19352
:1029F000B1E3B193B0E2B193B2E3B193B0E2B1937A
:102A0000B3E3B193B0E2B193B4E3B193B0E2B19365
:102A1000B5E3B193B0E2B193B6E3B193B0E2B19351
:102A2000B7E3B193B0E0B1938E012801B1E03B2E42
:102A3000B2E02B2E0E945F9625E01FE002EF0A9580
:102A4000F1F71A95E1F72A95D1F7FE01B0E5B193B8
:102A5000BCE6B193B5E6B193B1E6B193B3E7B193F8
:102A6000B5E6B193B0E2B193B3E4B193B8E6B193F4
:102A7000BFE6B193B3E7B193B5E6B193B0E2B193DA
:102A8000B4E4B193B1E6B193B9E7B193BAE3B193CA
:102A9000B0E0B1938E012801B1E03B2EB1E02B2EC6
:102AA0000E945F96FE01B4E4B193B9E7B193BAE333
:102AB000B193B1E3B193B0E2B193B2E3B193B0E2B9
:102AC000B193B3E3B193B0E2B193B4E3B193B0E2A5
:102AD000B193B0E2B193B0E2B193B6E3B193B0E297
:102AE000B193B7E3B193B0E0B1938E012801B1E0A7
:102AF0003B2EB2E02B2E0E945F962F903F904F907E
:102B000025E01FE002EF0A95F1F71A95E1F72A9503
:102B1000D1F79AC1B6E02B1609F0C9C0FE01B0E5A5
:102B2000B193BCE6B193B5E6B193B1E6B193B3E727
:102B3000B193B5E6B193B0E2B193B3E4B193B8E623
:102B4000B193BFE6B193B3E7B193B5E6B193B0E209
:102B5000B193B4E4B193B1E6B193B9E7B193BAE3F9
:102B6000B193B0E0B1938E014F923F922F92280122
:102B7000B1E03B2EB1E02B2E0E945F96FE01B4E443
:102B8000B193B9E7B193BAE3B193B1E3B193B0E2D2
:102B9000B193B2E3B193B0E2B193B3E3B193B0E2D6
:102BA000B193B4E3B193B0E2B193B5E3B193B0E2C2
:102BB000B193B6E3B193B0E2B193B7E3B193B0E0B0
:102BC000B1938E012801B1E03B2EB2E02B2E0E9482
:102BD0005F9625E01FE002EF0A95F1F71A95E1F7FD
:102BE0002A95D1F7FE01B0E5B193BCE6B193B5E605
:102BF000B193B1E6B193B3E7B193B5E6B193B0E267
:102C0000B193B3E4B193B8E6B193BFE6B193B3E740
:102C1000B193B5E6B193B0E2B193B4E4B193B1E648
:102C2000B193B9E7B193BAE3B193B0E0B1938E0138
:102C30002801B1E03B2EB1E02B2E0E945F96FE01F1
:102C4000B4E4B193B9E7B193BAE3B193B1E3B1930B
:102C5000B0E2B193B2E3B193B0E2B193B3E3B19315
:102C6000B0E2B193B4E3B193B0E2B193B5E3B19301
:102C7000B0E2B193B0E2B193B0E2B193B7E3B193F4
:102C8000B0E0B1938E012801B1E03B2EB2E02B2ED3
:102C90000E945F962F903F904F9025E01FE002EF3B
:102CA0000A95F1F71A95E1F72A95D1F7CDC0B7E06B
:102CB0002B1609F0C9C0FE01B0E5B193BCE6B19393
:102CC000B5E6B193B1E6B193B3E7B193B5E6B1938D
:102CD000B0E2B193B3E4B193B8E6B193BFE6B19378
:102CE000B3E7B193B5E6B193B0E2B193B4E4B19375
:102CF000B1E6B193B9E7B193BAE3B193B0E0B19360
:102D00008E014F923F922F922801B1E03B2EB1E00D
:102D10002B2E0E945F96FE01B4E4B193B9E7B19304
:102D2000BAE3B193B1E3B193B0E2B193B2E3B1933B
:102D3000B0E2B193B3E3B193B0E2B193B4E3B19332
:102D4000B0E2B193B5E3B193B0E2B193B6E3B1931E
:102D5000B0E2B193B7E3B193B0E0B1938E01280133
:102D6000B1E03B2EB2E02B2E0E945F9625E01FE0E3
:102D700002EF0A95F1F71A95E1F72A95D1F7FE01CE
:102D8000B0E5B193BCE6B193B5E6B193B1E6B193CA
:102D9000B3E7B193B5E6B193B0E2B193B3E4B193C5
:102DA000B8E6B193BFE6B193B3E7B193B5E6B1939B
:102DB000B0E2B193B4E4B193B1E6B193B9E7B193A2
:102DC000BAE3B193B0E0B1938E012801B1E03B2E9C
:102DD000B1E02B2E0E945F96FE01B4E4B193B9E7F7
:102DE000B193BAE3B193B1E3B193B0E2B193B2E37B
:102DF000B193B0E2B193B3E3B193B0E2B193B4E372
:102E0000B193B0E2B193B5E3B193B0E2B193B6E35D
:102E1000B193B0E2B193B0E2B193B0E0B1938E015F
:102E20002801B1E03B2EB2E02B2E0E945F962F903E
:102E30003F904F9025E01FE002EF0A95F1F71A95B9
:102E4000E1F72A95D1F700C04F923F922F92662466
:102E50005524B5E04B2EB2E32B2EB0E03B2E0E9462
:102E6000C26E2F903F904F90002329F0B091020145
:102E7000B460B09302014F923F922F92B1E06B2E5B
:102E80005524B5E04B2EB0E32B2EB0E03B2E0E9434
:102E9000C26E2F903F904F9000900201112702FCCC
:102EA0001395012339F0231411F4242C03C0022DAF
:102EB0000F5F202EB0910201B460B09302014F92D7
:102EC0003F922F9266245524B4E04B2EB2E32B2E72
:102ED000B0E03B2E0E94C26E2F903F904F90002397
:102EE00029F0B0910201B460B09302014F923F9279
:102EF0002F92B1E06B2E5524B4E04B2EB0E32B2E75
:102F0000B0E03B2E0E94C26E2F903F904F900090F9
:102F10000201112702FC1395012339F0241411F446
:102F2000232C03C0022D0150202E209228074F92FF
:102F30003F922F9266245524B2E04B2EB0E32B2E05
:102F4000B0E03B2E0E94C26E2F903F904F90003019
:102F500029F0B0910201B061B09302014F923F920B
:102F60002F92B1E06B2E5524B2E04B2EB0E32B2E06
:102F7000B0E03B2E0E94C26E2F903F904F90009089
:102F80000201112704FC1395012309F46BC0B091D1
:102F90000201BF7EB0930201B0910201BF7DB093E8
:102FA000020100910601102F1F5F1093060100918E
:102FB0000701101719F4B1E0B09306014F923F9248
:102FC0002F920E941D09FE01B4E4B193B1E6B193C2
:102FD000B9E7B193B0E2B193B0E0B1938E012801AB
:102FE000B1E03B2EB1E02B2E0E945F962F902F92E6
:102FF000B8ED4B2EBDE05B2EB0E03B2E0E94B08FB3
:10300000B8ED4B2EBDE05B2EB6E03B2EB1E02B2E93
:103010000E945F96FE01B3E7B193B5E6B193BCE6BB
:10302000B193B5E6B193B3E6B193B4E7B193B5E626
:10303000B193B4E6B193B0E0B1938E012801B1E051
:103040003B2EB2E02B2E0E945F962F903F904F9028
:1030500025E11BE40FEB0A95F1F71A95E1F72A95A4
:10306000D1F700004F923F922F9266245524B6E08C
:103070004B2EB0E32B2EB0E03B2E0E94C26E2F9061
:103080003F904F90003029F0B0910201B460B093AE
:10309000020110900201009002014E7F15FC02FE19
:1030A00001C041604F923F922F92B1E06B2E5524A8
:1030B000B6E04B2EB0E32B2EB0E03B2E0E94C26E4A
:1030C0002F903F904F90112740FD1395012309F455
:1030D0006BC0B0910201BF7DB0930201B0910201BB
:1030E000BB7FB093020100910601102F1F5F109368
:1030F000060100910701101719F4B1E0B093060121
:103100004F923F922F920E941D09FE01B4E4B193A9
:10311000B1E6B193B9E7B193B0E2B193B0E0B19346
:103120008E012801B1E03B2EB1E02B2E0E945F966C
:103130002F902F92B8ED4B2EBDE05B2EB0E03B2ED2
:103140000E94B08FB8ED4B2EBDE05B2EB6E03B2E5B
:10315000B1E02B2E0E945F96FE01B3E7B193B5E676
:10316000B193BCE6B193B5E6B193B3E6B193B4E7DE
:10317000B193B5E6B193B4E6B193B0E0B1938E01EB
:103180002801B1E03B2EB2E02B2E0E945F962F90DB
:103190003F904F9025E11BE40FEB0A95F1F71A954C
:1031A000E1F72A95D1F7000020922807AEC86F906A
:1031B0005F906196CDBFDEBFDF91CF910895C801CA
:1031C000BA0197FB092E07260AD077FD04D00CD050
:1031D00006D000201AF4709561957F4F0895F6F798
:1031E000909581959F4F0895AA1BBB1B51E107C085
:1031F000AA1FBB1FA617B70710F0A61BB70B881F87
:10320000991F5A95A9F780959095BC01CD01089515
:103210000895CF93DF93CDB7DEB76197CDBFDEBF03
:1032200021966F92B0910201B062B0930201B09109
:103230000201BF7EB0930201B0910201B5FF4AC303
:10324000B1E03B1609F071C0FE01BCE3B193B0E2FE
:10325000B193B3E5B193B1E6B193B6E7B193B5E6F7
:10326000B193BFE2B193BEE4B193BFE6B193B0E2D4
:10327000B193B3E5B193B1E6B193B6E7B193B5E6D7
:10328000B193B0E2B193BEE3B193B0E0B1938E01DC
:103290005F924F923F922F922801B1E03B2EB1E016
:1032A0002B2E0E945F9621E11CE30CEC0A95F1F7AE
:1032B0001A95E1F72A95D1F7FE01BCE3B193B0E28C
:1032C000B193B0E2B193B0E2B193B0E2B193B0E2A6
:1032D000B193BFE2B193BEE4B193BFE6B193B0E264
:1032E000B193B3E5B193B1E6B193B6E7B193B5E667
:1032F000B193B0E2B193BEE3B193B0E0B1938E016C
:103300002801B1E03B2EB1E02B2E0E945F962F905A
:103310003F904F905F9021E11CE30CEC0A95F1F790
:103320001A95E1F72A95D1F770C0FE01BCE3B1937D
:10333000B0E2B193B3E5B193B1E6B193B6E7B1931F
:10334000B5E6B193BFE2B193BEE4B193BFE6B193EA
:10335000B0E2B193B3E5B193B1E6B193B6E7B193FF
:10336000B5E6B193B0E2B193BEE3B193B0E0B193EF
:103370008E015F924F923F922F922801B1E03B2E37
:10338000B1E02B2E0E945F9621E11CE30CEC0A9524
:10339000F1F71A95E1F72A95D1F7FE01BCE3B19355
:1033A000B0E2B193B3E5B193B1E6B193B6E7B193AF
:1033B000B5E6B193BFE2B193B0E2B193B0E2B1939D
:1033C000B0E2B193B0E2B193B0E2B193B0E2B193A5
:1033D000B0E2B193B0E2B193BEE3B193B0E0B19388
:1033E0008E012801B1E03B2EB1E02B2E0E945F96AA
:1033F0002F903F904F905F9021E11CE30CEC0A95D9
:10340000F1F71A95E1F72A95D1F75F924F923F9223
:103410002F9266245524B5E04B2EB2E32B2EB0E05C
:103420003B2E0E94C26E2F903F904F905F900023E2
:1034300029F0B0910201B460B09302015F924F9203
:103440003F922F92B1E06B2E5524B5E04B2EB0E3A6
:103450002B2EB0E03B2E0E94C26E2F903F904F90DB
:103460005F9000900201112702FC1395012339F0AF
:10347000341411F4352C03C0032D0F5F302EB0919E
:103480000201B460B09302015F924F923F922F927B
:1034900066245524B4E04B2EB2E32B2EB0E03B2E35
:1034A0000E94C26E2F903F904F905F90002329F0B2
:1034B000B0910201B460B09302015F924F923F92CB
:1034C0002F92B1E06B2E5524B4E04B2EB0E32B2E9F
:1034D000B0E03B2E0E94C26E2F903F904F905F90C5
:1034E00000900201112702FC1395012339F03514D5
:1034F00011F4342C03C0032D0150302E30922807D4
:103500005F924F923F922F9266245524B2E04B2E49
:10351000B0E32B2EB0E03B2E0E94C26E2F903F9066
:103520004F905F90003029F0B0910201B061B093EC
:1035300002015F924F923F922F92B1E06B2E552481
:10354000B2E04B2EB0E32B2EB0E03B2E0E94C26EB9
:103550002F903F904F905F9000900201112704FC44
:103560001395012309F4BCC0B0910201BF7EB09352
:103570000201B0910201BF7DB093020100910601EA
:10358000102F1F5F1093060100910701101719F407
:10359000B1E0B09306015F924F923F922F920E944A
:1035A0001D092F903F904F905F90B1E03B1609F0BE
:1035B00049C0FE01B3E5B193B1E6B193B6E7B1936B
:1035C000B5E6B193B0E2B193B9E6B193B3E7B19385
:1035D000B0E2B193B0E0B1938E015F924F923F920F
:1035E0002F922801B1E03B2EB1E02B2E0E945F9676
:1035F000FE01B3E7B193B5E6B193BCE6B193B5E68E
:10360000B193B3E6B193B4E7B193B5E6B193B4E641
:10361000B193B0E0B1938E012801B1E03B2EB2E04E
:103620002B2E0E945F962F903F904F905F9025E148
:103630001BE40FEB0A95F1F71A95E1F72A95D1F7FC
:1036400000004EC0FE01BEE4B193BFE6B193B0E20C
:10365000B193B3E5B193B1E6B193B6E7B193B5E6F3
:10366000B193B0E2B193B9E6B193B3E7B193B0E2ED
:10367000B193B0E0B1938E015F924F923F922F923F
:103680002801B1E03B2EB1E02B2E0E945F96FE0197
:10369000B3E7B193B5E6B193BCE6B193B5E6B193A8
:1036A000B3E6B193B4E7B193B5E6B193B4E6B193A1
:1036B000B0E0B1938E012801B1E03B2EB2E02B2E99
:1036C0000E945F962F903F904F905F9025E11BE402
:1036D0000FEB0A95F1F71A95E1F72A95D1F700005B
:1036E0005F924F923F922F9266245524B6E04B2E64
:1036F000B0E32B2EB0E03B2E0E94C26E2F903F9085
:103700004F905F90003029F0B0910201B460B09307
:10371000020110900201009002014E7F15FC02FE92
:1037200001C041605F924F923F922F92B1E06B2EA9
:103730005524B6E04B2EB0E32B2EB0E03B2E0E947A
:10374000C26E2F903F904F905F90112740FD1395D0
:10375000012309F4BCC0B0910201BF7DB093020106
:10376000B0910201BB7FB09302015F924F923F92F2
:103770002F920E941D092F903F904F905F900091D3
:103780000601102F1F5F109306010091070110170B
:1037900019F4B1E0B0930601B1E03B1609F049C05D
:1037A000FE01B3E5B193B1E6B193B6E7B193B5E6E7
:1037B000B193B0E2B193B9E6B193B3E7B193B0E29C
:1037C000B193B0E0B1938E015F924F923F922F92EE
:1037D0002801B1E03B2EB1E02B2E0E945F96FE0146
:1037E000B3E7B193B5E6B193BCE6B193B5E6B19357
:1037F000B3E6B193B4E7B193B5E6B193B4E6B19350
:10380000B0E0B1938E012801B1E03B2EB2E02B2E47
:103810000E945F962F903F904F905F9025E11BE4B0
:103820000FEB0A95F1F71A95E1F72A95D1F7000009
:103830004EC0FE01BEE4B193BFE6B193B0E2B193D6
:10384000B3E5B193B1E6B193B6E7B193B5E6B19301
:10385000B0E2B193B9E6B193B3E7B193B0E2B193FB
:10386000B0E0B1938E015F924F923F922F92280168
:10387000B1E03B2EB1E02B2E0E945F96FE01B3E734
:10388000B193B5E6B193BCE6B193B5E6B193B3E6B7
:10389000B193B4E7B193B5E6B193B4E6B193B0E0B8
:1038A000B1938E012801B1E03B2EB2E02B2E0E9495
:1038B0005F962F903F904F905F9025E11BE40FEBB8
:1038C0000A95F1F71A95E1F72A95D1F700003092A1
:1038D0002807B2CC6F906096CDBFDEBFDF91CF914D
:1038E000089509E0021580F44AE0022D0E94D208F2
:1038F000000F000F000F000F102F4AE0022D0E9452
:10390000D208092F012B01C0022D102F012F08957D
:10391000CF93DF93CDB7DEB76197CDBFDEBF2196E2
:103920006F92B0910201B062B0930201B0910201B6
:10393000BF7EB0930201B0910201B5FF0C94F9294A
:10394000B1E03B1609F072C5B1E02B1609F0C3C017
:10395000FE01B8E2B193BFE4B193BEE6B193BAE31E
:10396000B193BFE4B193B6E6B193B6E6B193B9E2D1
:10397000B193B0E2B193B0E2B193B8E2B193B0E5E4
:10398000B193B7E5B193BDE4B193B9E2B193B0E0BF
:10399000B1938E015F924F923F922F922801B1E036
:1039A0003B2EB1E02B2E0E945F96FE01B4E4B19352
:1039B000B9E7B193BAE3B193B1E3B193B0E2B19394
:1039C000B2E3B193B0E2B193B3E3B193B0E2B19398
:1039D000B4E3B193B0E2B193B5E3B193B0E2B19384
:1039E000B6E3B193B0E2B193B7E3B193B0E0B19372
:1039F0008E012801B1E03B2EB2E02B2E0E945F9693
:103A000025E01FE002EF0A95F1F71A95E1F72A95F4
:103A1000D1F7FE01B8E2B193B0E2B193B0E2B19355
:103A2000BAE3B193BFE4B193B6E6B193B6E6B1930E
:103A3000B9E2B193B0E2B193B0E2B193B8E2B1931D
:103A4000B0E5B193B7E5B193BDE4B193B9E2B193F9
:103A5000B0E0B1938E012801B1E03B2EB1E02B2EF6
:103A60000E945F96FE01B4E4B193B9E7B193BAE363
:103A7000B193B0E2B193B0E2B193B2E3B193B0E2EB
:103A8000B193B3E3B193B0E2B193B4E3B193B0E2D5
:103A9000B193B5E3B193B0E2B193B6E3B193B0E2C1
:103AA000B193B7E3B193B0E0B1938E012801B1E0D7
:103AB0003B2EB2E02B2E0E945F962F903F904F90AE
:103AC0005F9025E01FE002EF0A95F1F71A95E1F704
:103AD0002A95D1F7AAC4B2E02B1609F0C3C0FE01A3
:103AE000B8E2B193BFE4B193BEE6B193BAE3B19348
:103AF000BFE4B193B6E6B193B6E6B193B9E2B19340
:103B0000B0E2B193B0E2B193B8E2B193B0E5B19352
:103B1000B7E5B193BDE4B193B9E2B193B0E0B1932D
:103B20008E015F924F923F922F922801B1E03B2E7F
:103B3000B1E02B2E0E945F96FE01B4E4B193B9E789
:103B4000B193BAE3B193B1E3B193B0E2B193B2E30D
:103B5000B193B0E2B193B3E3B193B0E2B193B4E304
:103B6000B193B0E2B193B5E3B193B0E2B193B6E3F0
:103B7000B193B0E2B193B7E3B193B0E0B1938E01EA
:103B80002801B1E03B2EB2E02B2E0E945F9625E08B
:103B90001FE002EF0A95F1F71A95E1F72A95D1F7A0
:103BA000FE01B8E2B193B0E2B193B0E2B193BAE3EF
:103BB000B193BFE4B193B6E6B193B6E6B193B9E27F
:103BC000B193B0E2B193B0E2B193B8E2B193B0E592
:103BD000B193B7E5B193BDE4B193B9E2B193B0E06D
:103BE000B1938E012801B1E03B2EB1E02B2E0E9453
:103BF0005F96FE01B4E4B193B9E7B193BAE3B19330
:103C0000B1E3B193B0E2B193B0E2B193B0E2B1935A
:103C1000B3E3B193B0E2B193B4E3B193B0E2B19343
:103C2000B5E3B193B0E2B193B6E3B193B0E2B1932F
:103C3000B7E3B193B0E0B1938E012801B1E03B2E20
:103C4000B2E02B2E0E945F962F903F904F905F9096
:103C500025E01FE002EF0A95F1F71A95E1F72A95A2
:103C6000D1F7E3C3B3E02B1609F0C3C0FE01B8E2FD
:103C7000B193BFE4B193BEE6B193BAE3B193BFE4AD
:103C8000B193B6E6B193B6E6B193B9E2B193B0E2BF
:103C9000B193B0E2B193B8E2B193B0E5B193B7E5B7
:103CA000B193BDE4B193B9E2B193B0E0B1938E01A9
:103CB0005F924F923F922F922801B1E03B2EB1E0EC
:103CC0002B2E0E945F96FE01B4E4B193B9E7B19345
:103CD000BAE3B193B1E3B193B0E2B193B2E3B1937C
:103CE000B0E2B193B3E3B193B0E2B193B4E3B19373
:103CF000B0E2B193B5E3B193B0E2B193B6E3B1935F
:103D0000B0E2B193B7E3B193B0E0B1938E01280173
:103D1000B1E03B2EB2E02B2E0E945F9625E01FE023
:103D200002EF0A95F1F71A95E1F72A95D1F7FE010E
:103D3000B8E2B193B0E2B193B0E2B193BAE3B19318
:103D4000BFE4B193B6E6B193B6E6B193B9E2B193ED
:103D5000B0E2B193B0E2B193B8E2B193B0E5B19300
:103D6000B7E5B193BDE4B193B9E2B193B0E0B193DB
:103D70008E012801B1E03B2EB1E02B2E0E945F9610
:103D8000FE01B4E4B193B9E7B193BAE3B193B1E3FF
:103D9000B193B0E2B193B2E3B193B0E2B193B0E2C8
:103DA000B193B0E2B193B4E3B193B0E2B193B5E3B0
:103DB000B193B0E2B193B6E3B193B0E2B193B7E39C
:103DC000B193B0E0B1938E012801B1E03B2EB2E097
:103DD0002B2E0E945F962F903F904F905F9025E092
:103DE0001FE002EF0A95F1F71A95E1F72A95D1F74E
:103DF0001CC3B4E02B1609F0C3C0FE01B8E2B193B6
:103E0000BFE4B193BEE6B193BAE3B193BFE4B1931B
:103E1000B6E6B193B6E6B193B9E2B193B0E2B1932D
:103E2000B0E2B193B8E2B193B0E5B193B7E5B19325
:103E3000BDE4B193B9E2B193B0E0B1938E015F926A
:103E40004F923F922F922801B1E03B2EB1E02B2EF2
:103E50000E945F96FE01B4E4B193B9E7B193BAE36F
:103E6000B193B1E3B193B0E2B193B2E3B193B0E2F5
:103E7000B193B3E3B193B0E2B193B4E3B193B0E2E1
:103E8000B193B5E3B193B0E2B193B6E3B193B0E2CD
:103E9000B193B7E3B193B0E0B1938E012801B1E0E3
:103EA0003B2EB2E02B2E0E945F9625E01FE002EF32
:103EB0000A95F1F71A95E1F72A95D1F7FE01B8E2D4
:103EC000B193B0E2B193B0E2B193BAE3B193BFE47E
:103ED000B193B6E6B193B6E6B193B9E2B193B0E26D
:103EE000B193B0E2B193B8E2B193B0E5B193B7E565
:103EF000B193BDE4B193B9E2B193B0E0B1938E0157
:103F00002801B1E03B2EB1E02B2E0E945F96FE010E
:103F1000B4E4B193B9E7B193BAE3B193B1E3B19328
:103F2000B0E2B193B2E3B193B0E2B193B3E3B19332
:103F3000B0E2B193B0E2B193B0E2B193B5E3B19323
:103F4000B0E2B193B6E3B193B0E2B193B7E3B1930A
:103F5000B0E0B1938E012801B1E03B2EB2E02B2EF0
:103F60000E945F962F903F904F905F9025E01FE05A
:103F700002EF0A95F1F71A95E1F72A95D1F755C2A4
:103F8000B5E02B1609F0C3C0FE01B8E2B193BFE45F
:103F9000B193BEE6B193BAE3B193BFE4B193B6E691
:103FA000B193B6E6B193B9E2B193B0E2B193B0E2A6
:103FB000B193B8E2B193B0E5B193B7E5B193BDE485
:103FC000B193B9E2B193B0E0B1938E015F924F9299
:103FD0003F922F922801B1E03B2EB1E02B2E0E94A0
:103FE0005F96FE01B4E4B193B9E7B193BAE3B1933C
:103FF000B1E3B193B0E2B193B2E3B193B0E2B19364
:10400000B3E3B193B0E2B193B4E3B193B0E2B1934F
:10401000B5E3B193B0E2B193B6E3B193B0E2B1933B
:10402000B7E3B193B0E0B1938E012801B1E03B2E2C
:10403000B2E02B2E0E945F9625E01FE002EF0A956A
:10404000F1F71A95E1F72A95D1F7FE01B8E2B1939D
:10405000B0E2B193B0E2B193BAE3B193BFE4B193EC
:10406000B6E6B193B6E6B193B9E2B193B0E2B193DB
:10407000B0E2B193B8E2B193B0E5B193B7E5B193D3
:10408000BDE4B193B9E2B193B0E0B1938E012801E0
:10409000B1E03B2EB1E02B2E0E945F96FE01B4E40E
:1040A000B193B9E7B193BAE3B193B1E3B193B0E29D
:1040B000B193B2E3B193B0E2B193B3E3B193B0E2A1
:1040C000B193B4E3B193B0E2B193B0E2B193B0E293
:1040D000B193B6E3B193B0E2B193B7E3B193B0E07B
:1040E000B1938E012801B1E03B2EB2E02B2E0E944D
:1040F0005F962F903F904F905F9025E01FE002EF7A
:104100000A95F1F71A95E1F72A95D1F78EC1B6E035
:104110002B1609F0C3C0FE01B8E2B193BFE4B1931E
:10412000BEE6B193BAE3B193BFE4B193B6E6B193FF
:10413000B6E6B193B9E2B193B0E2B193B0E2B19314
:10414000B8E2B193B0E5B193B7E5B193BDE4B193F3
:10415000B9E2B193B0E0B1938E015F924F923F927A
:104160002F922801B1E03B2EB1E02B2E0E945F96EA
:10417000FE01B4E4B193B9E7B193BAE3B193B1E30B
:10418000B193B0E2B193B2E3B193B0E2B193B3E3D0
:10419000B193B0E2B193B4E3B193B0E2B193B5E3BC
:1041A000B193B0E2B193B6E3B193B0E2B193B7E3A8
:1041B000B193B0E0B1938E012801B1E03B2EB2E0A3
:1041C0002B2E0E945F9625E01FE002EF0A95F1F783
:1041D0001A95E1F72A95D1F7FE01B8E2B193B0E262
:1041E000B193B0E2B193BAE3B193BFE4B193B6E651
:1041F000B193B6E6B193B9E2B193B0E2B193B0E254
:10420000B193B8E2B193B0E5B193B7E5B193BDE432
:10421000B193B9E2B193B0E0B1938E012801B1E05E
:104220003B2EB1E02B2E0E945F96FE01B4E4B193C9
:10423000B9E7B193BAE3B193B1E3B193B0E2B1930B
:10424000B2E3B193B0E2B193B3E3B193B0E2B1930F
:10425000B4E3B193B0E2B193B5E3B193B0E2B193FB
:10426000B0E2B193B0E2B193B7E3B193B0E0B193F0
:104270008E012801B1E03B2EB2E02B2E0E945F960A
:104280002F903F904F905F9025E01FE002EF0A953E
:10429000F1F71A95E1F72A95D1F7C7C0B7E02B16C9
:1042A00009F0C3C0FE01B8E2B193BFE4B193BEE62A
:1042B000B193BAE3B193BFE4B193B6E6B193B6E676
:1042C000B193B9E2B193B0E2B193B0E2B193B8E285
:1042D000B193B0E5B193B7E5B193BDE4B193B9E261
:1042E000B193B0E0B1938E015F924F923F922F92C3
:1042F0002801B1E03B2EB1E02B2E0E945F96FE011B
:10430000B4E4B193B9E7B193BAE3B193B1E3B19334
:10431000B0E2B193B2E3B193B0E2B193B3E3B1933E
:10432000B0E2B193B4E3B193B0E2B193B5E3B1932A
:10433000B0E2B193B6E3B193B0E2B193B7E3B19316
:10434000B0E0B1938E012801B1E03B2EB2E02B2EFC
:104350000E945F9625E01FE002EF0A95F1F71A959B
:10436000E1F72A95D1F7FE01B8E2B193B0E2B1933B
:10437000B0E2B193BAE3B193BFE4B193B6E6B193BF
:10438000B6E6B193B9E2B193B0E2B193B0E2B193C2
:10439000B8E2B193B0E5B193B7E5B193BDE4B193A1
:1043A000B9E2B193B0E0B1938E012801B1E03B2EA8
:1043B000B1E02B2E0E945F96FE01B4E4B193B9E701
:1043C000B193BAE3B193B1E3B193B0E2B193B2E385
:1043D000B193B0E2B193B3E3B193B0E2B193B4E37C
:1043E000B193B0E2B193B5E3B193B0E2B193B6E368
:1043F000B193B0E2B193B0E2B193B0E0B1938E016A
:104400002801B1E03B2EB2E02B2E0E945F962F9048
:104410003F904F905F9025E01FE002EF0A95F1F783
:104420001A95E1F72A95D1F700C06DC5B1E02B16BA
:1044300009F0C3C0FE01B8E2B193BFE4B193BEE698
:10444000B193BAE3B193BFE4B193B6E6B193B6E6E4
:10445000B193B9E2B193B0E2B193B0E2B193B8E2F3
:10446000B193B0E5B193B7E5B193BDE4B193B9E2CF
:10447000B193B0E0B1938E015F924F923F922F9231
:104480002801B1E03B2EB1E02B2E0E945F96FE0189
:10449000B4E4B193B9E7B193BAE3B193B1E3B193A3
:1044A000B0E2B193B2E3B193B0E2B193B3E3B193AD
:1044B000B0E2B193B4E3B193B0E2B193B5E3B19399
:1044C000B0E2B193B6E3B193B0E2B193B7E3B19385
:1044D000B0E0B1938E012801B1E03B2EB2E02B2E6B
:1044E0000E945F9625E01FE002EF0A95F1F71A950A
:1044F000E1F72A95D1F7FE01B8E2B193BFE4B19399
:10450000BEE6B193BAE3B193B0E2B193B0E2B19336
:10451000B0E2B193B9E2B193B0E2B193B0E2B1933A
:10452000B8E2B193B0E5B193B7E5B193BDE4B1930F
:10453000B9E2B193B0E0B1938E012801B1E03B2E16
:10454000B1E02B2E0E945F96FE01B4E4B193B9E76F
:10455000B193BAE3B193B0E2B193B0E2B193B2E3F5
:10456000B193B0E2B193B3E3B193B0E2B193B4E3EA
:10457000B193B0E2B193B5E3B193B0E2B193B6E3D6
:10458000B193B0E2B193B7E3B193B0E0B1938E01D0
:104590002801B1E03B2EB2E02B2E0E945F962F90B7
:1045A0003F904F905F9025E01FE002EF0A95F1F7F2
:1045B0001A95E1F72A95D1F7A6C4B2E02B1609F0B7
:1045C000C3C0FE01B8E2B193BFE4B193BEE6B193BC
:1045D000BAE3B193BFE4B193B6E6B193B6E6B19353
:1045E000B9E2B193B0E2B193B0E2B193B8E2B19362
:1045F000B0E5B193B7E5B193BDE4B193B9E2B1933E
:10460000B0E0B1938E015F924F923F922F922801BA
:10461000B1E03B2EB1E02B2E0E945F96FE01B4E488
:10462000B193B9E7B193BAE3B193B1E3B193B0E217
:10463000B193B2E3B193B0E2B193B3E3B193B0E21B
:10464000B193B4E3B193B0E2B193B5E3B193B0E207
:10465000B193B6E3B193B0E2B193B7E3B193B0E0F5
:10466000B1938E012801B1E03B2EB2E02B2E0E94C7
:104670005F9625E01FE002EF0A95F1F71A95E1F742
:104680002A95D1F7FE01B8E2B193BFE4B193BEE63B
:10469000B193BAE3B193B0E2B193B0E2B193B0E2B7
:1046A000B193B9E2B193B0E2B193B0E2B193B8E2A1
:1046B000B193B0E5B193B7E5B193BDE4B193B9E27D
:1046C000B193B0E0B1938E012801B1E03B2EB1E08F
:1046D0002B2E0E945F96FE01B4E4B193B9E7B1932B
:1046E000BAE3B193B1E3B193B0E2B193B0E2B19365
:1046F000B0E2B193B3E3B193B0E2B193B4E3B19359
:10470000B0E2B193B5E3B193B0E2B193B6E3B19344
:10471000B0E2B193B7E3B193B0E0B1938E01280159
:10472000B1E03B2EB2E02B2E0E945F962F903F907F
:104730004F905F9025E01FE002EF0A95F1F71A9580
:10474000E1F72A95D1F7DFC3B3E02B1609F0C3C018
:10475000FE01B8E2B193BFE4B193BEE6B193BAE310
:10476000B193BFE4B193B6E6B193B6E6B193B9E2C3
:10477000B193B0E2B193B0E2B193B8E2B193B0E5D6
:10478000B193B7E5B193BDE4B193B9E2B193B0E0B1
:10479000B1938E015F924F923F922F922801B1E028
:1047A0003B2EB1E02B2E0E945F96FE01B4E4B19344
:1047B000B9E7B193BAE3B193B1E3B193B0E2B19386
:1047C000B2E3B193B0E2B193B3E3B193B0E2B1938A
:1047D000B4E3B193B0E2B193B5E3B193B0E2B19376
:1047E000B6E3B193B0E2B193B7E3B193B0E0B19364
:1047F0008E012801B1E03B2EB2E02B2E0E945F9685
:1048000025E01FE002EF0A95F1F71A95E1F72A95E6
:10481000D1F7FE01B8E2B193BFE4B193BEE6B19324
:10482000BAE3B193B0E2B193B0E2B193B0E2B19325
:10483000B9E2B193B0E2B193B0E2B193B8E2B1930F
:10484000B0E5B193B7E5B193BDE4B193B9E2B193EB
:10485000B0E0B1938E012801B1E03B2EB1E02B2EE8
:104860000E945F96FE01B4E4B193B9E7B193BAE355
:10487000B193B1E3B193B0E2B193B2E3B193B0E2DB
:10488000B193B0E2B193B0E2B193B4E3B193B0E2CB
:10489000B193B5E3B193B0E2B193B6E3B193B0E2B3
:1048A000B193B7E3B193B0E0B1938E012801B1E0C9
:1048B0003B2EB2E02B2E0E945F962F903F904F90A0
:1048C0005F9025E01FE002EF0A95F1F71A95E1F7F6
:1048D0002A95D1F718C3B4E02B1609F0C3C0FE0126
:1048E000B8E2B193BFE4B193BEE6B193BAE3B1933A
:1048F000BFE4B193B6E6B193B6E6B193B9E2B19332
:10490000B0E2B193B0E2B193B8E2B193B0E5B19344
:10491000B7E5B193BDE4B193B9E2B193B0E0B1931F
:104920008E015F924F923F922F922801B1E03B2E71
:10493000B1E02B2E0E945F96FE01B4E4B193B9E77B
:10494000B193BAE3B193B1E3B193B0E2B193B2E3FF
:10495000B193B0E2B193B3E3B193B0E2B193B4E3F6
:10496000B193B0E2B193B5E3B193B0E2B193B6E3E2
:10497000B193B0E2B193B7E3B193B0E0B1938E01DC
:104980002801B1E03B2EB2E02B2E0E945F9625E07D
:104990001FE002EF0A95F1F71A95E1F72A95D1F792
:1049A000FE01B8E2B193BFE4B193BEE6B193BAE3BE
:1049B000B193B0E2B193B0E2B193B0E2B193B9E296
:1049C000B193B0E2B193B0E2B193B8E2B193B0E584
:1049D000B193B7E5B193BDE4B193B9E2B193B0E05F
:1049E000B1938E012801B1E03B2EB1E02B2E0E9445
:1049F0005F96FE01B4E4B193B9E7B193BAE3B19322
:104A0000B1E3B193B0E2B193B2E3B193B0E2B19349
:104A1000B3E3B193B0E2B193B0E2B193B0E2B1933A
:104A2000B5E3B193B0E2B193B6E3B193B0E2B19321
:104A3000B7E3B193B0E0B1938E012801B1E03B2E12
:104A4000B2E02B2E0E945F962F903F904F905F9088
:104A500025E01FE002EF0A95F1F71A95E1F72A9594
:104A6000D1F751C2B5E02B1609F0C3C0FE01B8E280
:104A7000B193BFE4B193BEE6B193BAE3B193BFE49F
:104A8000B193B6E6B193B6E6B193B9E2B193B0E2B1
:104A9000B193B0E2B193B8E2B193B0E5B193B7E5A9
:104AA000B193BDE4B193B9E2B193B0E0B1938E019B
:104AB0005F924F923F922F922801B1E03B2EB1E0DE
:104AC0002B2E0E945F96FE01B4E4B193B9E7B19337
:104AD000BAE3B193B1E3B193B0E2B193B2E3B1936E
:104AE000B0E2B193B3E3B193B0E2B193B4E3B19365
:104AF000B0E2B193B5E3B193B0E2B193B6E3B19351
:104B0000B0E2B193B7E3B193B0E0B1938E01280165
:104B1000B1E03B2EB2E02B2E0E945F9625E01FE015
:104B200002EF0A95F1F71A95E1F72A95D1F7FE0100
:104B3000B8E2B193BFE4B193BEE6B193BAE3B193E7
:104B4000B0E2B193B0E2B193B0E2B193B9E2B19304
:104B5000B0E2B193B0E2B193B8E2B193B0E5B193F2
:104B6000B7E5B193BDE4B193B9E2B193B0E0B193CD
:104B70008E012801B1E03B2EB1E02B2E0E945F9602
:104B8000FE01B4E4B193B9E7B193BAE3B193B1E3F1
:104B9000B193B0E2B193B2E3B193B0E2B193B3E3B6
:104BA000B193B0E2B193B4E3B193B0E2B193B0E2A8
:104BB000B193B0E2B193B6E3B193B0E2B193B7E38E
:104BC000B193B0E0B1938E012801B1E03B2EB2E089
:104BD0002B2E0E945F962F903F904F905F9025E084
:104BE0001FE002EF0A95F1F71A95E1F72A95D1F740
:104BF0008AC1B6E02B1609F0BFC0FE01B8E2B1933E
:104C0000BFE4B193BEE6B193BAE3B193BFE4B1930D
:104C1000B6E6B193B6E6B193B9E2B193B0E2B1931F
:104C2000B0E2B193B8E2B193B0E5B193B7E5B19317
:104C3000BDE4B193B9E2B193B0E0B1938E015F925C
:104C40004F923F922F922801B1E03B2EB1E02B2EE4
:104C50000E945F96FE01B4E4B193B9E7B193BAE361
:104C6000B193B1E3B193B0E2B193B2E3B193B0E2E7
:104C7000B193B3E3B193B0E2B193B4E3B193B0E2D3
:104C8000B193B5E3B193B0E2B193B6E3B193B0E2BF
:104C9000B193B7E3B193B0E0B1938E012801B1E0D5
:104CA0003B2EB2E02B2E0E945F9625E01FE002EF24
:104CB0000A95F1F71A95E1F72A95D1F7FE01B8E2C6
:104CC000B193BFE4B193BEE6B193BAE3B193B0E25E
:104CD000B193B0E2B193B0E2B193B9E2B193B0E273
:104CE000B193B0E2B193B8E2B193B0E5B193B7E557
:104CF000B193BDE4B193B9E2B193B0E0B1938E0149
:104D00002801B1E03B2EB1E02B2E0E945F96FE0100
:104D1000B6E7B193B1E3B193B0E2B193B2E3B1932B
:104D2000B0E2B193B3E3B193B0E2B193B4E3B19322
:104D3000B0E2B193B5E3B193B0E2B193B0E2B19315
:104D4000B0E2B193B7E3B193B0E0B1938E01280123
:104D5000B1E03B2EB2E02B2E0E945F962F903F9049
:104D60004F905F9025E01FE002EF0A95F1F71A954A
:104D7000E1F72A95D1F7C7C0B7E02B1609F0C3C0F9
:104D8000FE01B8E2B193BFE4B193BEE6B193BAE3DA
:104D9000B193BFE4B193B6E6B193B6E6B193B9E28D
:104DA000B193B0E2B193B0E2B193B8E2B193B0E5A0
:104DB000B193B7E5B193BDE4B193B9E2B193B0E07B
:104DC000B1938E015F924F923F922F922801B1E0F2
:104DD0003B2EB1E02B2E0E945F96FE01B4E4B1930E
:104DE000B9E7B193BAE3B193B1E3B193B0E2B19350
:104DF000B2E3B193B0E2B193B3E3B193B0E2B19354
:104E0000B4E3B193B0E2B193B5E3B193B0E2B1933F
:104E1000B6E3B193B0E2B193B7E3B193B0E0B1932D
:104E20008E012801B1E03B2EB2E02B2E0E945F964E
:104E300025E01FE002EF0A95F1F71A95E1F72A95B0
:104E4000D1F7FE01B8E2B193BFE4B193BEE6B193EE
:104E5000BAE3B193B0E2B193B0E2B193B0E2B193EF
:104E6000B9E2B193B0E2B193B0E2B193B8E2B193D9
:104E7000B0E5B193B7E5B193BDE4B193B9E2B193B5
:104E8000B0E0B1938E012801B1E03B2EB1E02B2EB2
:104E90000E945F96FE01B4E4B193B9E7B193BAE31F
:104EA000B193B1E3B193B0E2B193B2E3B193B0E2A5
:104EB000B193B3E3B193B0E2B193B4E3B193B0E291
:104EC000B193B5E3B193B0E2B193B6E3B193B0E27D
:104ED000B193B0E2B193B0E0B1938E012801B1E09B
:104EE0003B2EB2E02B2E0E945F962F903F904F906A
:104EF0005F9025E01FE002EF0A95F1F71A95E1F7C0
:104F00002A95D1F700C05F924F923F922F9266246C
:104F10005524B5E04B2EB2E32B2EB0E03B2E0E9481
:104F2000C26E2F903F904F905F90002329F0B09178
:104F30000201B460B09302015F924F923F922F92B0
:104F4000B1E06B2E5524B5E04B2EB0E32B2EB0E034
:104F50003B2E0E94C26E2F903F904F905F9000902A
:104F60000201112702FC1395012339F0341411F4C6
:104F7000352C03C0032D0F5F302EB0910201B460B9
:104F8000B09302015F924F923F922F926624552474
:104F9000B4E04B2EB2E32B2EB0E03B2E0E94C26E4B
:104FA0002F903F904F905F90002329F0B091020125
:104FB000B460B09302015F924F923F922F92B1E0A2
:104FC0006B2E5524B4E04B2EB0E32B2EB0E03B2EDD
:104FD0000E94C26E2F903F904F905F900090020110
:104FE000112702FC1395012339F0351411F4342CE8
:104FF00003C0032D0150302E309228075F924F924C
:105000003F922F9266245524B2E04B2EB0E32B2E14
:10501000B0E03B2E0E94C26E2F903F904F905F9069
:10502000003029F0B0910201B061B09302015F92AB
:105030004F923F922F92B1E06B2E5524B2E04B2E4F
:10504000B0E32B2EB0E03B2E0E94C26E2F903F901B
:105050004F905F9000900201112704FC13950123EB
:1050600009F4C4C0B0910201BF7EB0930201B091B7
:105070000201BF7DB093020100910601102F1F5F56
:105080001093060100910701101719F4B1E0B093D5
:1050900006015F924F923F922F920E941D092F901E
:1050A0003F904F905F90B2E03B1609F051C0FE0177
:1050B000BFE4B193B6E6B193B6E6B193B0E2B19373
:1050C000B4E7B193B9E6B193BDE6B193B5E6B19358
:1050D000B0E2B193B9E6B193B3E7B193B0E2B19363
:1050E000B0E0B1938E015F924F923F922F922801D0
:1050F000B1E03B2EB1E02B2E0E945F96FE01B3E79C
:10510000B193B5E6B193BCE6B193B5E6B193B3E61E
:10511000B193B4E7B193B5E6B193B4E6B193B0E01F
:10512000B1938E012801B1E03B2EB2E02B2E0E94FC
:105130005F962F903F904F905F9025E11BE40FEB1F
:105140000A95F1F71A95E1F72A95D1F700004EC0BC
:10515000FE01BFE4B193BEE6B193B0E2B193B4E710
:10516000B193B9E6B193BDE6B193B5E6B193B0E2C0
:10517000B193B9E6B193B3E7B193B0E2B193B0E0C4
:10518000B1938E015F924F923F922F922801B1E02E
:105190003B2EB1E02B2E0E945F96FE01B3E7B19348
:1051A000B5E6B193BCE6B193B5E6B193B3E6B1937E
:1051B000B4E7B193B5E6B193B4E6B193B0E0B1937F
:1051C0008E012801B1E03B2EB2E02B2E0E945F96AB
:1051D0002F903F904F905F9025E11BE40FEB0A95D5
:1051E000F1F71A95E1F72A95D1F700005F924F92F7
:1051F0003F922F9266245524B6E04B2EB0E32B2E1F
:10520000B0E03B2E0E94C26E2F903F904F905F9077
:10521000003029F0B0910201B460B0930201109007
:105220000201009002014E7F15FC02FE01C04160A8
:105230005F924F923F922F92B1E06B2E5524B6E0D1
:105240004B2EB0E32B2EB0E03B2E0E94C26E2F906F
:105250003F904F905F90112740FD1395012309F473
:10526000C4C0B0910201BF7DB0930201B0910201B0
:10527000BB7FB09302015F924F923F922F920E94A8
:105280001D092F903F904F905F9000910601102FC5
:105290001F5F1093060100910701101719F4B1E088
:1052A000B0930601B2E03B1609F051C0FE01BFE425
:1052B000B193B6E6B193B6E6B193B0E2B193B4E779
:1052C000B193B9E6B193BDE6B193B5E6B193B0E25F
:1052D000B193B9E6B193B3E7B193B0E2B193B0E063
:1052E000B1938E015F924F923F922F922801B1E0CD
:1052F0003B2EB1E02B2E0E945F96FE01B3E7B193E7
:10530000B5E6B193BCE6B193B5E6B193B3E6B1931C
:10531000B4E7B193B5E6B193B4E6B193B0E0B1931D
:105320008E012801B1E03B2EB2E02B2E0E945F9649
:105330002F903F904F905F9025E11BE40FEB0A9573
:10534000F1F71A95E1F72A95D1F700004EC0FE015A
:10535000BFE4B193BEE6B193B0E2B193B4E7B193C9
:10536000B9E6B193BDE6B193B5E6B193B0E2B193BE
:10537000B9E6B193B3E7B193B0E2B193B0E0B193C2
:105380008E015F924F923F922F922801B1E03B2E07
:10539000B1E02B2E0E945F96FE01B3E7B193B5E614
:1053A000B193BCE6B193B5E6B193B3E6B193B4E77C
:1053B000B193B5E6B193B4E6B193B0E0B1938E0189
:1053C0002801B1E03B2EB2E02B2E0E945F962F9079
:1053D0003F904F905F9025E11BE40FEB0A95F1F7AA
:1053E0001A95E1F72A95D1F70000309228070C941E
:1053F0009B1C6F906096CDBFDEBFDF91CF9108956B
:10540000CF93DF93CDB7DEB725962F923F920881D9
:105410001981088319830A811B810A831B830C81EC
:105420001D810C831D839F928F927F926F925F925A
:105430004F923F922F920E940F06B0ED2B2E0E94AA
:105440002A0622240E942A060E940F06B1ED2B2E66
:105450000E942A06B1E02B2EB0E03B2E0E941C07D2
:105460002F903F904F905F906F907F90F30100835B
:105470005F924F923F922F92B1E02B2EB0E03B2EE5
:105480000E941C072F903F904F905F90F201008385
:105490003F922F92B1E02B2EB0E03B2E0E941C07D2
:1054A0002F903F90F1010083B1E02B2EB0E03B2E16
:1054B0000E941C07E881F9810083B1E02B2EB0E047
:1054C0003B2E0E941C078F909F90F4010083B1E057
:1054D0002B2EB0E03B2E0E941C07EA81FB8100834B
:1054E000222433240E941C07EC81FD8100830E944A
:1054F000CE063F902F90DF91CF910895CF93DF9309
:10550000CDB7DEB72B97CDBFDEBF21962F923F924E
:105510004F92B0E0B093AF07B093B007B1E0BA8359
:10552000B1E0B093AC07B1E0B093D20DB1E0B88375
:10553000B0E0B9830091AF071091B0070F5F1F4F24
:1055400009871A870A81015010E040EE50E00E945E
:10555000CA0822EB37E0020F131F4091D20D4150D1
:105560000F83188708E310E050E00E94CA082F81DB
:105570003885200F311F0091AC07015010E0000F5B
:10558000111F000F111F000F111F200F311F088165
:10559000015010E0000F111F000F111FF801E20F62
:1055A000F31F208109851A85422E18010E94A10748
:1055B0000091AF071091B0070F5F1F4F0F5F1F4F94
:1055C00009871A870A81015010E040EE50E00E94DE
:1055D000CA0822EB37E0020F131F4091D20D415051
:1055E0000F83188708E310E050E00E94CA082F815B
:1055F0003885200F311F0091AC07015010E0000FDB
:10560000111F000F111F000F111F200F311F0881E4
:10561000015010E0000F111F000F111F020F131F88
:10562000F8013196208109851A85422E18010E94C1
:10563000A1070091AF071091B0070F5F1F4F0E5FDA
:105640001F4F09871A870A81015010E040EE50E091
:105650000E94CA0822EB37E0020F131F4091D20DBF
:1056600041500F83188708E310E050E00E94CA08F9
:105670002F813885200F311F0091AC07015010E0B9
:10568000000F111F000F111F000F111F200F311FDE
:105690000881015010E0000F111F000F111F020FB1
:1056A000131FF8013296208109851A85422E1801B0
:1056B0000E94A1070091AF071091B0070F5F1F4F25
:1056C0000D5F1F4F09871A870A81015010E040EED5
:1056D00050E00E94CA0822EB37E0020F131F4091EE
:1056E000D20D41500F83188708E310E050E00E946C
:1056F000CA082F813885200F311F0091AC07015057
:1057000010E0000F111F000F111F000F111F200FBD
:10571000311F0881015010E0000F111F000F111FF1
:10572000020F131FF8013396208109851A85422E36
:1057300018010E94A1070091AF071091B0070C5FFC
:105740001F4F0093AF071093B007088119811030E5
:1057500009F4023039F0088119810F5F1F4F088367
:105760001983E8CE0091D20D043031F00091D20DB2
:105770000F5F0093D20DDACE0091AC07073031F005
:105780000091AC070F5F0093AC07CDCE0A810730C4
:1057900021F00A810F5F0A83C3CE4F903F902F9074
:1057A0002A96CDBFDEBFDF91CF9108950091F60D0F
:1057B0000077102F16951695169516950AE0109FEE
:1057C000102D0091F60D0F70010F0093F60D009152
:1057D000F70D007F102F16951695169516950AE071
:1057E000109F102D0091F70D0F70010F0093F70D12
:1057F0000091F50D0073102F1695169516951695B8
:105800000AE0109F102D0091F50D0F70010F00930D
:10581000F50D0091F20D07700093F20D0091EC0D63
:10582000007F102F16951695169516950AE0109F75
:10583000102D0091EC0D0F70010F0093EC0D0091F5
:10584000D70D0071102F16951695169516950AE02E
:10585000109F102D0091D70D0F70010F0093D70DE1
:105860000091A507007F102F169516951695169591
:105870000AE0109F102D0091A5070F70010F0093F3
:10588000A5070895CF93DF93CDB7DEB76497CDBF5B
:10589000DEBF2196B0910201B062B0930201B091D7
:1058A0000201BF7EB09302016F925F924F923F92CE
:1058B0002F920E941D092F903F904F905F906F9004
:1058C000B0910201B5FF0C94FD346F925F924F923C
:1058D0003F922F92232CB6E73B2EB7E04B2E0E942F
:1058E000F9062F903F904F904F923F922F92242C89
:1058F000BAE43B2EB7E04B2E0E94F9068E01302E03
:10590000412E2090D20D0E94F9062F903F904F908B
:105910005F906F90B1E02B1609F0E3C08E016F929B
:105920005F924F923F922F922801B2E03B2EB1E05E
:105930002B2E0E945F96B3E4BB83B8E6BC83BAE328
:10594000BD83B0E0BE838E010D5F1F4F2801B1E023
:105950003B2EB1E02B2E0E945F96B6E74B2EB7E0B0
:105960005B2EB7E03B2EB1E02B2E0E945F96BAE48F
:105970004B2EB7E05B2EBAE03B2EB1E02B2E0E94FF
:105980005F96BAE3BB83B0E0BC838E010D5F1F4F0F
:105990002801BAE03B2EB1E02B2E0E945F96FE015B
:1059A0003396B4E4B193B9E7B193BAE3B193B1E3F9
:1059B000B193B0E2B193B2E3B193B0E2B193B3E388
:1059C000B193B0E2B193B4E3B193B0E2B193B5E374
:1059D000B193B0E2B193B6E3B193B0E2B193B7E360
:1059E000B193B0E0B1938E010D5F1F4F2801B1E07C
:1059F0003B2EB2E02B2E0E945F9625E01FE002EFC7
:105A00000A95F1F71A95E1F72A95D1F7B0E2B0932C
:105A10004A07B0E2B0934B07B0E2B0934C07B0E056
:105A2000B0934D07B6E74B2EB7E05B2EB7E03B2EA9
:105A3000B1E02B2E0E945F96BAE44B2EB7E05B2EAE
:105A4000BAE03B2EB1E02B2E0E945F96BAE3BB83F7
:105A5000B0E0BC838E010D5F1F4F2801BAE03B2EE2
:105A6000B1E02B2E0E945F96FE013396B4E4B19311
:105A7000B9E7B193BAE3B193B0E2B193B0E2B193B5
:105A8000B2E3B193B0E2B193B3E3B193B0E2B193B7
:105A9000B4E3B193B0E2B193B5E3B193B0E2B193A3
:105AA000B6E3B193B0E2B193B7E3B193B0E0B19391
:105AB0008E010D5F1F4F2801B1E03B2EB2E02B2E6F
:105AC0000E945F962F903F904F905F906F9025E0DF
:105AD0001FE002EF0A95F1F71A95E1F72A95D1F741
