:100000000C948C030C94AB030C94AB030C94AB03D7
:100010000C94AB030C94AB030C94AB030C94AB03A8
:100020000C94AB030C94AB030C94AB030C94AB0398
:100030000C94AB030C94AB030C94AB030C94AB0388
:100040000C94AB030C94AB030C94AB030C94AB0378
:100050000C94AB030C94AB030C94AB030C94AB0368
:100060000C94AB030C94AB030C94AB030C94AB0358
:100070000C94AB030C94AB030C94AB030C94AB0348
:100080000C94AB030C94AB030C94AB03454550525A
:100090004F4D2077726974652064617461206661D8
:1000A000696C65642E2E00454550524F4D20777285
:1000B0006974652D32206661696C65642E2E004579
:1000C0004550524F4D2077726974652D312066611D
:1000D000696C65642E2E00454550524F4D20736566
:1000E0006E644164647265737331206661696C6526
:1000F000642E2E006932632073746172742066610D
:10010000696C65642E2E00576169742E2E2E004591
:100110004550524F4D207772697465206461746157
:10012000206661696C65642E2E00454550524F4D26
:100130002077726974652D32206661696C65642E62
:100140002E00454550524F4D2077726974652D3110
:10015000206661696C65642E2E00454550524F4DF6
:100160002073656E644164647265737331206661E7
:10017000696C65642E2E0069326320737461727439
:10018000206661696C65642E2E00454550524F4DC6
:100190002072656365697665206661696C65642EA9
:1001A0002E00454550524F4D2073656E6441646486
:1001B0007265737332206661696C65642E2E006906
:1001C0003263207265706561742D7374617274207E
:1001D0006661696C65642E2E00454550524F4D2076
:1001E00077726974652D32206661696C65642E2EA4
:1001F00000454550524F4D2077726974652D31206E
:100200006661696C65642E2E00454550524F4D2045
:1002100073656E64416464726573733120666169ED
:100220006C65642E2E0069326320737461727420D1
:100230006661696C65642E2E002046696E6973687C
:1002400065642E2E0020454550524F4D206F70653D
:10025000726174696F6E206661696C65642E2E0030
:1002600020496E76616C6964206F7074696F6E21CD
:100270000020456E74657220746578743A20002001
:1002800041646472657373206F7574206F662072A9
:10029000616E67652E2E200020456E7465722050B9
:1002A000616765204E756D62657220283030302D93
:1002B000353131293A200020486F77206D616E7901
:1002C0002062797465733F2830302D3634293A2006
:1002D0000020456E74657220746578743A200020A1
:1002E000454550524F4D20657261736564207375AA
:1002F000636365737366756C6C792E2E00204545BB
:1003000050524F4D206572617365206661696C655E
:10031000642E2E003E2053656C656374204F70740C
:10032000696F6E2028302D38293A20003E20382071
:100330003A20557064617465205254432054696DAD
:1003400065003E2037203A20557064617465205264
:1003500054432044617465003E2036203A204469AD
:1003600073706C6179205254432054696D65003E6E
:100370002035203A20446973706C617920525443CF
:100380002044617465003E2034203A205265616447
:1003900020454550524F4D2050616765003E203347
:1003A000203A20577269746520454550524F4D20C0
:1003B00050616765003E2032203A2052656164201A
:1003C000454550524F4D003E2031203A205772692A
:1003D000746520454550524F4D003E2030203A2054
:1003E000457261736520454550524F4D005072650E
:1003F000737320616E79206B65792E2E003E436FFA
:100400006D6D756E69636174696F6E20537461728E
:100410007465642E2E2E003E2D2D2D2D2D2D2D2D6F
:100420002D2D2D2D2D2D2D2D2D2D2D2D2D2D2D2DFC
:100430002D2D2D2D2D2D2D2D2D2D003E2D2D2D2D08
:100440002D2D2D2D20427920434320446861726D6B
:10045000616E69202D2D2D2D2D2D2D2D2D003E2D44
:100460002052544320262053455249414C204545B3
:1004700050524F4D2054657374696E67212D2D2D98
:1004800000496E76616C696420456E7472792E2E17
:1004900000446174652055706461746564207375EF
:1004A0006365737366756C6C792E2E00456E74658A
:1004B0007220446179202853756E6461793A302C3A
:1004C000204D6F6E6461793A312E2E2E292028300E
:1004D0002D36293A00456E7465722044617465209A
:1004E0002864642F6D6D2F7979293A00496E766101
:1004F0006C696420456E7472792E2E0054696D65A6
:1005000020557064617465642073756365737366E8
:10051000756C6C792E2E00456E7465722054696D71
:100520006520696E2032346820666F726D617428B0
:1005300068683A6D6D3A7373293A005254432077D4
:10054000726974652064617465206661696C6564B4
:100550002E2E005254432077726974652D31206627
:1005600061696C65642E2E005254432073656E647D
:100570004164647265737331206661696C65642ED1
:100580002E00525443207374617274312066616985
:100590006C65642E2E005254432077726974652076
:1005A00074696D65206661696C65642E2E00525415
:1005B000432077726974652D31206661696C6564CA
:1005C0002E2E005254432073656E6441646472653C
:1005D000737331206661696C65642E2E005254433A
:1005E00020737461727431206661696C65642E2EAB
:1005F00000556E6B6E6F776E005361747572646137
:100600007900467269646179005468757273646137
:1006100079005765646E657364617900547565731C
:10062000646179004D6F6E6461790053756E646129
:100630007900202020204461793A200044617465CB
:100640003A0054696D653A005254432072656365FF
:10065000697665206661696C65642E2E005254438C
:100660002073656E644164647265737332206661E1
:10067000696C65642E2E005254432072657065616A
:1006800074207374617274206661696C65642E2EC7
:10069000005254432077726974652D312066616978
:1006A0006C65642E2E005254432073656E64416461
:1006B000647265737331206661696C65642E2E0007
:1006C00052544320737461727431206661696C65A1
:1006D000642E2E005254432077726974652D3220A7
:1006E0006661696C65642E2E005254432073656EFA
:1006F000644164647265737331206661696C65641A
:100700002E2E00525443207374617274312066613E
:10071000696C65642E2E000011241FBECFEFD0E15E
:10072000DEBFCDBF11E0A0E0B1E0E0E8F5E100E020
:100730000BBF02C007900D92A030B107D9F711E0AE
:10074000A0E0B1E001C01D92AE31B107E1F70E9417
:1007500072050C94BE0A0C940000CF93DF938DE0D9
:100760000E94A60A8AE00E94A60A8DE00E94A60ABC
:100770008AE00E94A60A87E091E00E94AA0A8DE022
:100780000E94A60A8AE00E94A60A0E94C50481303F
:1007900019F484EF90E007C080EA0E94E5048130FC
:1007A00041F487ED90E00E94AA0A0E94340581E09E
:1007B00021C080E00E940005813019F48FEB90E0A9
:1007C000F2CF80E00E940005813019F0C0E0D0E057
:1007D0000CC087EA90E0E7CF8FEF0E9400058130E0
:1007E00019F48CE890E0DFCF2196D7FFF5CF0E9477
:1007F000340580E0DF91CF9108950F931F93182F58
:10080000062F0E94C504813019F487E791E007C0E4
:1008100080EA0E94E504813041F48AE591E00E947B
:10082000AA0A0E94340581E023C0812F0E9400059E
:10083000813019F482E491E0F2CF802F0E9400050C
:10084000813071F48AE291E0EACF812F0E94A60AFA
:10085000812F0E940005813019F48FE091E0DFCFF5
:100860000E94A10A182F8D3081F70E94340580E084
:100870001F910F910895BC0186E0660F771F8A953E
:10088000E1F7872F0E94FD030895DF92EF92FF9218
:100890000F931F93CF93DF93182F062FD42E0E9410
:1008A000C504813019F486E292E007C080EA0E9414
:1008B000E504813041F489E092E00E94AA0A0E9496
:1008C000340581E04FC0812F0E940005813019F46A
:1008D00081EF91E0F2CF802F0E940005813019F462
:1008E00089ED91E0EACF0E94D504813019F48FEBB5
:1008F00091E0E3CF81EA0E94E504813039F000E025
:10090000ED2CFF240894E108F10821C082EA91E06F
:10091000D4CFC02FD0E0CE15DF0519F40E942305F7
:1009200002C00E941205182F8E3719F48AE891E050
:10093000C4CFCF70D070CD2B31F48DE00E94A60AC9
:100940008AE00E94A60A812F0E94A60A0F5F0D1559
:1009500000F38DE00E94A60A8AE00E94A60A0E9487
:10096000340580E0DF91CF911F910F91FF90EF90C0
:10097000DF900895BC0196E0660F771F9A95E1F726
:10098000872F40E40E944504089584EA8093740010
:100990008091740087FFFCCF8091710090E0887F88
:1009A000883009F091E0892F089584EA80937400DB
:1009B0008091740087FFFCCF8091710090E0887F68
:1009C000803109F091E0892F089580FD02C028E16F
:1009D00001C020E48093730084E8809374008091C8
:1009E000740087FFFCCF8091710040E090E0887F29
:1009F000907030E08217930709F041E0842F08954A
:100A00008093730084E8809374008091740087FF62
:100A1000FCCF8091710090E0887F883209F091E0EE
:100A2000892F089584EC809374008091740087FF6F
:100A3000FCCF80917100887F803511F08EE708959A
:100A400080917300089584E880937400809174000D
:100A500087FFFCCF80917100887F883511F08EE789
:100A6000089580917300089584E980937400089537
:100A70001BBA1ABA18BA17BA15BA8FEF84BB12BAD2
:100A800011BA13B812B8109262001092610010925D
:100A90006500109264000895E4E7F0E0108282E1BE
:100AA000809370001092710084E480830895F8941C
:100AB0001CBE10926D000E9438050E94950AE4E762
:100AC000F0E0108282E1809370001092710084E463
:100AD000808315BE10926A001ABE19BE17BE10920E
:100AE0007D000895CF92DF92EF92FF920F931F93B4
:100AF000CF93DF930E9457058DE00E94A60A8AE0FB
:100B00000E94A60A8DE00E94A60A8AE00E94A60A18
:100B10008DE00E94A60A8AE00E94A60A8EE594E073
:100B20000E94AA0A8DE00E94A60A8AE00E94A60AF4
:100B30008BE394E00E94AA0A8DE00E94A60A8AE054
:100B40000E94A60A87E194E00E94AA0A8DE00E9412
:100B5000A60A8AE00E94A60A8DEF93E00E94AA0AE4
:100B600064E6C62ED12C8DE00E94A60A8AE00E947F
:100B7000A60A8DE00E94A60A8AE00E94A60A8DEECF
:100B800093E00E94AA0A0E94A10A8DE00E94A60A90
:100B90008AE00E94A60A8AED93E00E94AA0A8DE0EC
:100BA0000E94A60A8AE00E94A60A87EC93E00E94AF
:100BB000AA0A8DE00E94A60A8AE00E94A60A85EB96
:100BC00093E00E94AA0A8DE00E94A60A8AE00E9491
:100BD000A60A8DE993E00E94AA0A8DE00E94A60A67
:100BE0008AE00E94A60A86E893E00E94AA0A8DE0A5
:100BF0000E94A60A8AE00E94A60A8FE693E00E945D
:100C0000AA0A8DE00E94A60A8AE00E94A60A88E548
:100C100093E00E94AA0A8DE00E94A60A8AE00E9440
:100C2000A60A82E493E00E94AA0A8DE00E94A60A26
:100C30008AE00E94A60A8CE293E00E94AA0A8DE054
:100C40000E94A60A8AE00E94A60A8DE00E94A60AD7
:100C50008AE00E94A60A84E193E00E94AA0A0E9408
:100C6000A10AE82E0E94A60A84E38E1570F083E3A1
:100C7000E81608F06BC081E3E81651F18E15B8F163
:100C800080E3E81609F0CEC010C086E3E81609F448
:100C9000C0C0E81608F4BAC087E3E81609F4BCC07F
:100CA00088E3E81609F0BEC0BAC00E94AD03182F51
:100CB0008DE00E94A60A8AE00E94A60A113029F45B
:100CC0008DEF92E00E94AA0AB8C08FED92E080C03A
:100CD0008DE00E94A60A8AE00E94A60A81ED92E0B9
:100CE0000E94AA0A80E060E00E94FD03A4C08DE09B
:100CF0000E94A60A8AE00E94A60A87EB92E00E9460
:100D0000AA0A0E94A10A082F0E94A60A10E00F70EA
:100D10001070C80153E0880F991F5A95E1F7000F32
:100D2000111F080F0E94A10AF82E0E94A60A8DE04A
:100D30000E94A60A8AE00E94A60A8FE0F8220F0D00
:100D400080E060E0402F0E94450475C08DE00E9465
:100D5000A60A8AE00E94A60A88E992E00E94AA0AEE
:100D60000E94A10A082F0E94A60A10E00F701070BE
:100D70000C9DE0010D9DD00D1C9DD00D11240E94F5
:100D8000A10A082F0E94A60A0E94A10AF82E0E941A
:100D9000A60A10E00F701070C80133E0880F991F89
:100DA0003A95E1F7000F111F800F911FC80FD91F4F
:100DB0008FE0F822CF0DD11D82E0C030D80758F067
:100DC0008DE00E94A60A8AE00E94A60A8FE792E0C0
:100DD0000E94AA0A3CC08DE00E94A60A8AE00E94F6
:100DE000A60A83E3E81671F48DE00E94A60A8AE061
:100DF0000E94A60A81E792E00E94AA0ACE010E9400
:100E00003B0419C0CE010E94BA0415C00E94310AE9
:100E10001EC00E94840A1BC00E94020818C00E94C3
:100E2000090915C08DE00E94A60A8AE00E94A60A60
:100E300080E692E004C0813051F485E492E00E94A3
:100E4000AA0A8DE00E94A60A8AE00E94A60A8DE006
:100E50000E94A60A8AE00E94A60A89E392E00E9404
:100E6000AA0A8DE00E94A60A8AE00E94A60A7BCE0A
:100E700080910D0190E08770907064E0880F991F59
:100E80006A95E1F720910E012F70282B2093000125
:100E900080910A0190E08770907054E0880F991F4C
:100EA0005A95E1F720910B012F70282B2093010117
:100EB0008091070190E08370907044E0880F991F43
:100EC0004A95E1F7209108012F70282B2093020109
:100ED00080911C01809303018091120190E0837046
:100EE000907034E0880F991F3A95E1F72091130133
:100EF0002F70282B209304018091150190E08170C0
:100F0000907024E0880F991F2A95E1F7209116012F
:100F10002F70282B2093050190911A019295907FB4
:100F200080911B018F70982B90930601089582E3A6
:100F300096E00E94AA0A809103018330B9F08430C0
:100F400028F4813069F0823070F407C08530A1F058
:100F5000853078F08630B1F412C08BE296E014C090
:100F600084E296E011C08CE196E00EC082E196E04A
:100F70000BC089E096E008C082E096E005C089EFEA
:100F800095E002C081EF95E00E94AA0A08950E94B0
:100F9000C504813019F482E895E02AC080ED0E94F2
:100FA000E504813019F488E695E022C083E00E94D0
:100FB0000005813019F483E595E01AC080910301A2
:100FC0000E940005813091F0809104010E9400058B
:100FD000813061F0809105010E940005813031F07F
:100FE000809106010E940005813041F48BE395E079
:100FF0000E94AA0A0E94340581E008950E943405E7
:1010000080E008951F938DE00E94A60A8AE00E9466
:10101000A60A85ED94E00E94AA0A0E94A10A182F50
:101020000E94A60A812F8053843008F0B1C010932B
:1010300012010E94A10A182F0E94A60A812F805334
:101040008A3008F0A5C0109313018091100190E040
:10105000837090709C01A3E0220F331FAA95E1F7E3
:10106000880F991F280F391F80910F018F70280F4B
:10107000311D203231050CF08BC00E94A10A182FBF
:101080000E94A60A1F3229F01D3219F0103209F011
:101090007FC0109314010E94A10A182F0E94A60A73
:1010A000812F8053823008F073C0109315010E9485
:1010B000A10A182F0E94A60A812F80538A3008F0B7
:1010C00067C0109316011F708091150190E0837026
:1010D00090709C01E3E0220F331FEA95E1F7880F3F
:1010E000991F280F391F210F311D2D3031050CF0AC
:1010F0004FC00E94A10A182F0E94A60A1F3229F091
:101100001D3219F0103209F043C01093170182E329
:101110008093180180E3809319010E94A10A182F7F
:101120000E94A60A812F80538A3090F510931A01ED
:101130000E94A10A182F0E94A60A812F80538A308C
:1011400038F510931B018DE00E94A60A8AE00E94E8
:10115000A60A8CEA94E00E94AA0A0E94A10A182F0B
:101160000E94A60A812F8053873090F41F7010933D
:101170001C010E9438070E94C707882399F48DE05C
:101180000E94A60A8AE00E94A60A81E994E008C0AB
:101190008DE00E94A60A8AE00E94A60A81E894E0F7
:1011A0000E94AA0A1F9108950E94C504813019F473
:1011B0008DED95E024C080ED0E94E504813019F4A6
:1011C00083EC95E01CC080E00E940005813019F49A
:1011D0008EEA95E014C0809100010E9400058130E4
:1011E00061F0809101010E940005813031F0809111
:1011F00002010E940005813041F486E995E00E94D9
:10120000AA0A0E94340581E008950E94340580E016
:1012100008951F938DE00E94A60A8AE00E94A60A04
:1012200087E195E00E94AA0A0E94A10A182F0E9455
:10123000A60A812F8053833008F066C010930701FF
:101240000E94A10A182F0E94A60A812F80538A307B
:1012500008F05AC0109308018AE30E94A60A809100
:10126000070190E0837090709C0113E0220F331F00
:101270001A95E1F7880F991F280F391F80910801EF
:101280008F70280F311D28313105F4F50E94A10A15
:10129000182F0E94A60A812F80538630A8F510933C
:1012A0000A010E94A10A182F0E94A60A812F8053CA
:1012B0008A3050F510930B018AE30E94A60A0E941F
:1012C000A10A182F0E94A60A812F80538630E0F4CD
:1012D00010930D010E94A10A182F0E94A60A812FC7
:1012E00080538A3088F410930E010E9438070E94C0
:1012F000D408882399F48DE00E94A60A8AE00E940F
:10130000A60A8CEF94E008C08DE00E94A60A8AE04D
:101310000E94A60A8CEE94E00E94AA0A1F910895EA
:101320000E94C504813019F483E097E00FC080ED7E
:101330000E94E504813019F489EE96E007C080E050
:101340000E940005813021F484ED96E00E94AA0AF3
:101350000E94340508951F93CF93DF930E94C50424
:10136000813019F480EC96E02DC080ED0E94E504F8
:10137000813019F486EA96E025C080E00E940005DD
:10138000813019F481E996E01DC00E94D5048130B6
:1013900019F487E796E016C081ED0E94E5048130DC
:1013A00019F48DE596E00EC0C0E0D1E010E01630F3
:1013B00019F40E94230502C00E9412058E3729F4F9
:1013C00088E496E00E94AA0A04C089931F5F173040
:1013D00071F70E943405DF91CF911F9108950E940B
:1013E000AB0910921D0110921C0190910601892FEA
:1013F0008F70806380931B0192959F709063909390
:101400001A0180E38093190182E3809318013FE27F
:101410003093170180910501282F2F7020632093AE
:10142000160190E08071907044E0959587954A95FB
:10143000E1F78063809315013093140180910401DA
:10144000282F2F7020632093130190E080739070F9
:1014500024E0959587952A95E1F7806380931201A2
:1014600008950E94EF098DE00E94A60A8AE00E947A
:10147000A60A8CE396E00E94AA0A82E191E00E940B
:10148000B40A0E94970708950E94AB0910920F01B9
:1014900080910001282F2F70206320930E0190E08F
:1014A0008077907074E0959587957A95E1F78063E1
:1014B00080930D013AE330930C0180910101282FB4
:1014C0002F70206320930B0190E08077907064E090
:1014D000959587956A95E1F7806380930A0130932B
:1014E000090180910201282F2F70206320930801A9
:1014F00090E08073907054E0959587955A95E1F748
:1015000080638093070108950E94440A8DE00E9441
:10151000A60A8AE00E94A60A82E496E00E94AA0A2D
:1015200087E091E00E94B40A08951AB81BB886E0DB
:101530008093950083E389B91092900088E98AB975
:1015400008955F9BFECF8BB18CB108955D9BFECF5C
:101550008CB90895FC0104C05D9BFECF31968CB917
:1015600084918823C9F70895FC0104C05D9BFECFD8
:1015700031968CB980818823C9F70895F894FFCFFC
:00000001FF
