:100000000C94ED000C9400000C9400000C94000083
:100010000C9400000C9400000C9400000C94000060
:100020000C9400000C9400000C9400000C94000050
:100030000C9400000C9400000C9400000C94000040
:100040000C9400000C9400000C9400000C94000030
:040050000C9400000C
:1001DA00BFE5BDBFB8E0BEBFCDB7DEB72797CDBF7D
:1001EA00DEBF21962F923F924F925F92FE01BFE6A9
:1001FA00B193B6E6B193B6E6B193B6E6B193B6E675
:10020A00B193B6E6B193B0E0B1938E012801B1E0A3
:10021A003B2EB1E02B2E9BDF25E01FE002EF0A9573
:10022A00F1F71A95E1F72A95D1F7E0CF5F904F9051
:06023A003F902F90FFCF62
:100158002F92B1E02B1619F4B0E82B2E14C0B2E0A0
:100168002B1619F4B0EC2B2E0EC0B3E02B1619F495
:10017800B4E92B2E08C0B4E02B1619F4B4ED2B2EDD
:1001880002C0B0E82B2E032D0150020D202E202E88
:100198007DDFB0916000BE7FB09360009201F901ED
:1001A8000081002379F0F90100813F932F932F926A
:1001B800202E60DF2F902F913F9189010F5F1F4FF5
:1001C8009801EDCFB0916000B160B09360002F90BE
:0201D800089588
:1000940027FAB0913800B7F9B093380026FAB09136
:1000A4003800B6F9B093380025FAB0913800B5F9A4
:1000B400B093380024FAB0913800B4F9B093380002
:1000C400B091600000903800E894B0FF689400F8A4
:1000D40000923800B0913800B460B0933800B8DFB3
:1000E400B0913800BB7FB093380023FAB091380048
:1000F400B7F9B093380022FAB0913800B6F9B0934A
:10010400380021FAB0913800B5F9B093380020FADC
:10011400B0913800B4F9B0933800B0916000009009
:100124003800E894B0FF689400F800923800B09169
:100134003800B460B09338008BDFB0913800BB7FD7
:10014400B0933800B0916000B0FF02C087DF01C0F7
:040154008EDF08959D
:0C00540002E00A95F1F70000000008959A
:100060001AE303E20A95F1F71A95E1F700000000A0
:020070000895F1
:0A00720005E80A95F1F70000089573
:10007C00B0916000BE7FB093600006D0B09160007C
:08008C00B160B093600008951B
:00000001FF
