:100000000C948B1A0C9400000C9400000C94EA1BC6
:100010000C9400000C9400000C9400000C94000060
:100020000C9400000C9400000C9400000C94000050
:100030000C9400000C9400000C9400000C94000040
:100040000C9400000C9400000C9400000C94000030
:100050000C9400000C9400000C9400000C94000020
:100060000C9400000C9400000C9400000C94000010
:100070000C9400000C9400000C9400000C94000000
:100080000C9400000C9400000C94000012D321F09A
:10009000662309F097D498940895F8DF09F441C0D5
:1000A000E62ED52EC42EB32EA22E912E802E002DFC
:1000B000112D222D332DEADF09F43DC0842F952F19
:1000C0008C199D09B9F072F49095809501964C2D8C
:1000D0005D2D883180F53595279517950795019702
:1000E000D1F708C08831E8F4B594A7949794879421
:1000F0000197D1F766272EF0080D191D2A1D3B1D0B
:1001000009C0801A910AA20AB30A082D192D2A2DB6
:100110003B2D332312F456D460E8A6D001C02BD077
:1001200016C0002D112D222D332DD6F795D0C1F3F9
:1001300040E83427F5CF082D192D2A2D3B2D4C2DC5
:100140005D2D6E2D33235AF73DD460E8E8CF089536
:10015000002E112E222E332E042F152F262F372F4F
:1001600070D000231CF40024039401C000240895DF
:10017000689493DF089570D039F041585F4F342F61
:10018000220F36952795362B08953F932F931F9373
:100190000F93002D112D222D332D8BD209F44BC03E
:1001A000E62ED52EC42EB32EA22E912E802E0F9188
:1001B0001F912F913F917DD261F16E254C195D0900
:1001C000403853073CF541387FEF57077CF180E218
:1001D0007724632E522E412E302F222711270027FD
:1001E000000F111F221F331F441C551C661C771C57
:1001F00028F0481859086A087B0804C0480C591CA4
:100200006A1C7B1C0AF001608A9551F741505040EE
:100210002BD016C00FEF102F2FE73FE76623C9F34F
:100220001BD0B9F3342D30E83425F3CF0027102F3D
:10023000202F302FEECF0F900F900F900F90EACF1E
:10024000089596DF332332F007D011F001E003C0A8
:10025000002701C00FEF0895002329F4112319F49A
:10026000222309F433230895F7DF11F19F938F932D
:100270008EE790E0332351F0369527951795079533
:1002800048175907B4F44F5F5F4FF4CF80959095AE
:10029000019622239AF0000F111F221F48175907B9
:1002A0001CF041505040F5CF00271127222733275B
:1002B00008C033270FEF102F2FE7322F8F919F9118
:1002C0005ADF0895152D110FB7E0042D0695BA9544
:1002D000E9F7010F0E57F3010193B0E007FDBFEFFF
:1002E000B193BFE74B22B0E04B2AB0E85B22BFE3FB
:1002F0005B2AA101B2018A019B010895052D000F1F
:10030000402F50E0460D571DB7E0042D0695BA95D5
:10031000E9F7202F30E0240F351F390100E010E00D
:10032000201731072CF440E050E060E070E02CC072
:100330000FEF10E006151705BCF440E050E060E058
:1003400070E08101920127D5002800E009F00FEF4D
:10035000002329F04CEC5CEC6CE47EEF15C04CEC17
:100360005CEC6CE47EE710C0BFE74B22B7E0062DE3
:10037000000FBA95E9F7402AB0E85B228301159592
:100380000795502AA101B2018A019B010895C9D0A5
:1003900019F40024039401C000240895042E152E9E
:1003A000262E372EF2DE002E112E222E332E089509
:1003B000082D10E0000F111F000F111FF801E60DAE
:1003C000F71D0191119121913191A801B901B0E07E
:1003D0008B1661F18F925F924F923F922F92810123
:1003E00092019FD32F903F904F905F908F90A801E4
:1003F000B901082D0150802E10E0000F111F000FD1
:10040000111FF801E60DF71D019111912191319114
:100410008F925F924F923F922F92B3D42F903F9042
:100420004F905F908F90A801B901D1CF8A019B01B5
:100430000895CF93DF93CDB7DEB72497CDBFDEBF4E
:100440002196152D110FB7E0042D0695BA95E9F701
:10045000010F0F57202F30E007FD3FEF00E010E0C5
:1004600020173107DCF440E050E060E070E08101EB
:10047000920191D4002800E009F00FEF002341F031
:10048000B0E0B883B983B0E8BA83BFEBBB8305C0E3
:10049000B0E0B883B983BA83BB832CC008E110E015
:1004A0000217130728F4288239824A825B8222C00D
:1004B0008101920112D30ED3088319832A833B83CF
:1004C000A101B201088119812A813B8141DE002806
:1004D00000E009F00FEF002369F040E050E060E831
:1004E0007FE3088119812A813B8125D30883198301
:1004F0002A833B83088119812A813B812396CDBFC2
:10050000DEBFDF91CF91089547E16627552726F09A
:10051000332312F457D260E8A7DE0895E894BDDDD6
:100520000895042E152E262E372E8BDE00230895D7
:10053000CF93DF93CDB7DEB7A697CDBFDEBF2196B1
:100540006F927F928F92BFEFBA83B6EEBB83BBED03
:10055000BC83BEE2BD83B4ECBE83BFEFBF83BFE705
:10056000B887BFE3B987B0E8BA87BFEEBB87BFEFF4
:10057000BC87BEEBBD87B0E9BE87B1EEBF87B9EAE5
:10058000B88BBEE3B98BBCEEBA8BB2E8BB8BB6E7D7
:10059000BC8BBEEBBD8BB2E8BE8BBDEABF8BBBE2B2
:1005A000B88FBEE3B98FBEE0BA8FBCE3BB8FB3ECAC
:1005B000BC8FBDEBBD8FB7E8BE8FB1EDBF8FB3E190
:1005C000B8A3BDE3B9A3B1E4BAA3B8E7BBA3B3ED45
:1005D000BCA3BBEBBDA35F924F923F922F9240E032
:1005E00050E060E070E0810192018BD4002800E0CF
:1005F00009F00FEF2F903F904F905F90002329F06C
:1006000040E050E060E070E049C08E015F924F92A0
:100610003F922F92380156DE40E050E060E070E4F7
:1006200080D240E050E060E87FE385D22F903F9099
:100630004F905F90180129014881598141505040E5
:1006400048835983AE014E5F5F4F5F924F923F9256
:100650002F92B8E08B2E3A0118012901A9DE2F90C4
:100660003F904F905F90180129010881198120E087
:1006700017FD2FEF322F2ED25F924F923F922F9283
:1006800048E152E761E37FE34CD22F903F904F90D7
:100690005F90A101B20175D3A801B9018A019B0144
:1006A0008F907F906F90A596CDBFDEBFDF91CF91E9
:1006B0000895D2DD79F0632F6078220F331F432F26
:1006C0005FE7451B55275040269530E8232B3327FD
:1006D000989403C0442755276627089522DF19F010
:1006E0000024039401C000240895CF93DF93CDB775
:1006F000DEB7AF97CDBFDEBF21966F927F928F920C
:10070000B0E0BF83B887B0E8B987BFE3BA87B8E184
:10071000BB87B2E7BC87B1E3BD87BFE3BE87B0EF5D
:10072000BF87BDEFB88BB5E7B98BBEE3BA8BB7E433
:10073000BB8BB8E5BC8BB3E6BD8BBDE3BE8BB8E528
:10074000BF8BB5E9B88FBDE1B98FBCE3BA8FB2E812
:10075000BB8FB4ECBC8FBEEABD8FBAE3BE8FB8EAE4
:10076000BF8FB8E7B8A3B1E2B9A3B9E3BAA3BFEEAC
:10077000BBA3B3E9BCA3B0E8BDA3B7E3BEA3B0EA93
:10078000BFA3B2E9B8A7B7EAB9A7B5E3BAA7B6E479
:10079000BBA7B6E5BCA7B5E1BDA7B4E3BEA75F9212
:1007A0004F923F922F928101920140E050E060E031
:1007B00070E0EDDD002800E009F00FEF2F903F9092
:1007C0004F905F90002341F0B0E0B883B983B0E868
:1007D000BA83BFE3BB83E9C05F924F923F922F92EF
:1007E0004EEF54ED62EB72E481019201B1DC00281E
:1007F00000E009F00FEF2F903F904F905F900023A3
:1008000041F0BCECB883B983BCE4BA83BEE7BB83D8
:10081000CCC05F924F923F922F9240E55CEA6EEA25
:1008200072EC81019201B7D2002800E009F00FEFCD
:100830002F903F904F905F90002331F0B0E0B8834D
:10084000B983BA83BB83B1C05F924F923F922F921C
:1008500040E050E060E070E0810192019CD200280D
:1008600000E009F00FEF2F903F904F905F90002332
:1008700019F0BFEFBE8302C0B0E0BE830E8100233B
:1008800089F05F924F923F922F92A101B20100E056
:1008900010E020E030E04FD12F903F904F905F90DC
:1008A000180129015F924F923F922F92810192018C
:1008B0004BE35AEA68EB7FE334D12F903F904F909F
:1008C0005F90180129015F924F923F922F92180179
:1008D0002901AFDD2F903F904F905F90FED00C83A9
:1008E0001D8320E017FD2FEF322FF4D05F924F923F
:1008F0003F922F92A801B901810192011CD12F9042
:100900003F904F905F9018012901AE01495F5F4F02
:100910005F924F923F922F92B9E08B2E3A011801CD
:10092000290146DD2F903F904F905F9018012901DB
:100930005F924F923F922F926C807D801801290127
:10094000DDDC2F903F904F905F90180129010E81C0
:100950000F3F39F55F924F923F922F9281019201A2
:100960004CEC5CEC6CE47EE712DD002800E009F062
:100970000FEF2F903F904F905F90002331F0B0E049
:10098000B883B983BA83BB830BC0A101B20100E075
:1009900010E020E83FE302DD088319832A833B83CC
:1009A00004C0288239824A825B82088119812A81A7
:1009B0003B818F907F906F90AE96CDBFDEBFDF9171
:1009C000CF91089500951095209530950F5F1F4F9A
:1009D0002F4F3F4F0895C9019A01AB01B80197FB12
:1009E000092E05260ED057FD04D014D00AD0001CC5
:1009F00038F450954095309521953F4F4F4F5F4FBC
:100A00000895F6F790958095709561957F4F8F4F7B
:100A10009F4F0895A1E21A2EAA1BBB1BFD010DC01A
:100A2000AA1FBB1FEE1FFF1FA217B307E407F5079E
:100A300020F0A21BB30BE40BF50B661F771F881F7A
:100A4000991F1A9469F760957095809590959B0110
:100A5000AC01BD01CF0108952CDE81F1E62ED52E2B
:100A6000C42EB32EA22E912E802E002D112D222DBC
:100A7000332D1FDE19F16E254C0D5D1D40385307D7
:100A8000F4F441387FEF5707FCF088279927AA270D
:100A9000BB2770E2B695A7959795879537952795CB
:100AA0001795079520F4880D991DAA1DBB1D7A95F1
:100AB00089F7032F3A2F292F182FD6DB0AC00FEF03
:100AC000102F2FE73FE7FACF0027102F202F302FCE
:100AD000F5CF0895E89418DD0895EBDDF1F0552386
:100AE000C2F04F31A8F44731C1F050F44195495E4E
:100AF00005C035952795179507954A95D1F70DC0EF
:100B00004751000F111F221F331F4A95D1F705C00F
:100B10003FE7232F132F032F03C0662309F052DF73
:100B20000895042E152E262E372E96DF002E112E18
:100B3000222E332E0895042E152E262E372E18DB46
:100B4000002E112E222E332E0895CF93DF93CDB792
:100B5000DEB72997CDBFDEBF2196B0E0BC839F9260
:100B60008F927F926F925F924F923F922F9283016A
:100B7000940140E050E060E070E009DC002800E013
:100B800009F00FEF2F903F904F905F906F907F9004
:100B90008F909F90002341F0B0E0B883B983B0E814
:100BA000BA83BFE3BB83D7C09F928F927F926F922D
:100BB0005F924F923F922F928101920140E050E06C
:100BC00060E070E0E4DB002800E009F00FEF2F9018
:100BD0003F904F905F906F907F908F909F900023F9
:100BE00031F0B0E0B883B983BA83BB83B4C09F92BD
:100BF0008F927F926F925F924F923F922F9240E03E
:100C000050E060E070E081019201C5D0002800E072
:100C100009F00FEF2F903F904F905F906F907F9073
:100C20008F909F90002309F456C08301940155DFF3
:100C30000D831E832F8338874DDF9F928F927F9283
:100C40006F925F924F923F922F92A301B40146DDC3
:100C50000028B0E009F0BFEF0B2F2F903F904F908E
:100C60005F906F907F908F909F90002331F0B0E065
:100C7000B883B983BA83BB836EC00D811E812F8177
:100C800038850170107020703070303029F42030B9
:100C900019F4103009F4003019F0BFEFBC8302C022
:100CA000B0E0BC839F928F927F926F925F924F923F
:100CB0003F922F92A101B20100E010E020E030E06D
:100CC0003ADF2F903F904F905F906F907F908F9082
:100CD0009F90180129019F928F927F926F925F924D
:100CE0004F923F922F9224DC2F903F904F905F9035
:100CF0006F907F908F909F90180129015F924F9283
:100D00003F922F92A301B4010CDF2F903F904F90A0
:100D10005F90180129015F924F923F922F92180124
:100D20002901E3DC2F903F904F905F90180129013B
:100D30000C81003061F0A101B20100E010E020E080
:100D400030E0F9DE088319832A833B8304C02882BC
:100D500039824A825B82088119812A813B812896E7
:100D6000CDBFDEBFDF91CF910895F101008100304A
:100D700011F03196FBCF8F010219130998018901F7
:100D80000895042E152E262E372EC8DB002E112E88
:100D9000222E332E0895C5DB1CF40024039401C0D9
:100DA00000240895CF93DF93CDB7DEB72397CDBF4F
:100DB000DEBF2196B0E85B1641F4B0E04B1629F493
:100DC000B0E03B1611F4B0E02B16D1F4F301BDE214
:100DD000B193B2E3B193B1E3B193B4E3B193B7E3A9
:100DE000B193B4E3B193B8E3B193B3E3B193B6E392
:100DF000B193B4E3B193B8E3B193B0E0B1937BC0E6
:100E0000B0E0BA8300E010E020E030E020163106C8
:100E10004206530664F4BFEFBA8300E010E020E01E
:100E200030E0021913092409350918012901F301D9
:100E3000B0E2B193B0E2B193B0E2B193B0E2B1935A
:100E4000B0E2B193B0E2B193B0E2B193B0E2B1934A
:100E5000B0E2B193B0E2B193B0E3B193B0E0B1933B
:100E60008301065F1F4F08831983B0E05B1641F4CE
:100E7000B0E04B1629F4B0E03B1611F4B0E02B16AD
:100E800099F17F926F925F924F923F922F924AE038
:100E900050E060E070E0810192019DDD8B019C01DA
:100EA0002F903F904F905F90005DE881F981008323
:100EB0005F924F923F922F924AE050E060E070E0E4
:100EC0008101920188DD89019A012F903F904F9016
:100ED0005F906F907F90180129010881198101505E
:100EE000104008831983C1CF0A81002321F0E881D3
:100EF000F981BDE2B0832296CDBFDEBFDF91CF91F5
:100F00000895002E112E222E332E042F152F262F5A
:100F1000372F97D900231CF00024039401C000242C
:100F2000089500917100087F102F012F0895B4EAF1
:100F3000B0937400B0917400B7FD02C00000FACF06
:100F4000F0DF0830B0E009F0BFEF0B2F102F012FBA
:100F50000895B0913400BD7FB0933400C8D4C7D495
:100F6000B0913400BE7FB0933400C1D4C0D4B091EE
:100F70003400B260B0933400BAD4B9D4B091340024
:100F8000B160B09334000895B4E9B093740008954B
:100F9000B4E8B093740020FAB0917400B6F9B0933D
:100FA0007400B0917400B7FD02C00000FACF109138
:100FB0007300012F089520927300B4E8B093740079
:100FC000B0917400B7FD02C00000FACF0895CF932E
:100FD000DF93CDB7DEB7A197CDBFDEBF2196B0E0DE
:100FE000BE8F8101920179DD088319832A833B83B7
:100FF0005F924F923F922F9240E050E060E070E0AD
:1010000081019201C8DE002800E009F00FEF2F9067
:101010003F904F905F90002311F0BFEFBE8F8E0185
:101020000A5F1F4F7F926F925F924F923F922F9273
:101030003801288039804A805B80B4DE2F903F9051
:101040004F905F906F907F90088119812A813B813A
:1010500041DD5F924F923F922F92A801B901810129
:10106000920169DD40E050E563EC77E45ADD2F90B2
:101070003F904F905F9031DD088319832A833B8333
:1010800040E050E060E070E00417150726073707DE
:1010900084F40880198000E010E0001911090A802A
:1010A0001B8020E030E020093109088319832A835E
:1010B0003B838E010E5E1F4F7F926F925F924F9225
:1010C0003F922F923801288039804A805B806ADE07
:1010D0002F903F904F905F906F907F9040E050E056
:1010E000B0E0BC83BD83F301B0E2B193B0E2B19351
:1010F000B0E2B193B0E2B193B0E2B193B0E2B19398
:10110000B0E2B193B0E2B193B0E2B193B0E2B19387
:10111000B0E3B193B0E0B1935F934F93810192013B
:10112000DCDC303029F4203019F4103009F40030C0
:10113000B0E009F4BFEF0B2F08A340E050E060E0FF
:1011400070E08101920127DE002800E009F00FEF36
:101150004F915F9118A10123002341F0F301BDE2FB
:10116000B08311E020E0412F522F00C02E812032A9
:1011700081F40C811D8198012F5F3F4F2C833D83AB
:101180008E010A5F1F4FF901E00FF11F0081202F30
:10119000EECF022F0030D1F0FA01E60DF71D0083EB
:1011A0000C811D8198012F5F3F4F2C833D838A0165
:1011B0000F5F1F4FB8018E010A5F1F4FF901E00F4B
:1011C000F11F0081202F022FAB01E4CF0E8D0030E4
:1011D00010E009F41FEF503009F4403000E009F44A
:1011E0000FEF012351F0FA01E60DF71DB0E3B083D4
:1011F0008A010F5F1F4F980101C09A01303009F436
:10120000213010E009F41FEF0E8D012359F0F90190
:10121000E60DF71DB0E3B08389010F5F1F4FA801F2
:101220009A0100C0F901E60DF71DBEE2B083890105
:101230000F5F1F4FA801B6E0BC83B0E0BD83288DCF
:101240002030F9F0203219F420E3022F01C0022FE0
:10125000FA01E60DF71D00830C811D8198012F5FB7
:101260003F4F2C833D838A010F5F1F4FB8018E01D2
:101270000E5E1F4FF901E00FF11F0081AB01202F1F
:10128000DFCFFA01E60DF71DB0E0B083A096CDBF29
:10129000DEBFDF91CF910895CF93DF93CDB7DEB757
:1012A0002397CDBFDEBF2196B0E0B883B0E8B98305
:1012B000B0E0BA8309811A81103009F4003009F4D2
:1012C00033C015D314D3B0913400BD7FB093340034
:1012D0000ED30DD3B0913400BE7FB0933400B091E3
:1012E0000501BD7FB0930501B0913300B0FD06C08C
:1012F000B0910501B1FF01C001C0F6CFB09133003C
:10130000B1FF04C018810981012B0883F0D2EFD20C
:10131000B0913400B160B093340009811A81169500
:10132000079509831A83C6CFB0913400BD7FB0936F
:101330003400DDD2DCD2B0E03B1611F4B0E02B1665
:1013400029F0B0913400B260B0933400D0D2CFD243
:10135000B0913400BE7FB0933400B0910501BD7FE1
:10136000B0930501B0913300B0FD06C0B091050106
:10137000B1FF01C001C0F6CFBAD2B9D2B0913400EA
:10138000B160B0933400B3D2B2D2B0913400B26045
:10139000B093340008812296CDBFDEBFDF91CF919C
:1013A0000895B0913400B260B0933400A0D29FD2BF
:1013B000B0913400BE7FB0933400B0910501BD7F81
:1013C000B0930501B0913300B0FD06C0B0910501A6
:1013D000B1FF01C001C0F6CF8AD289D288D287D2AC
:1013E00086D285D284D283D2B0913400BD7FB093AF
:1013F00034007DD27CD20895CF93DF93CDB7DEB792
:101400002397CDBFDEBF2196B1E0B883B0E8B983A2
:10141000B0E0BA8309811A81103009F4003009F470
:101420003BC065D264D263D262D2B0913400B16065
:10143000B09334005CD25BD209811A810221107012
:10144000103009F4003031F0B0913400BD7FB0931A
:10145000340005C0B0913400B260B093340047D27C
:1014600046D2B0913400BE7FB0933400B0910501F4
:10147000BD7FB0930501B0913300B0FD06C0B091BF
:101480000501B1FF01C001C0F6CF09811A8116958F
:10149000079509831A83BECFB0E0B88328D227D23C
:1014A000B0913400B160B093340021D220D2B09119
:1014B0003400BD7FB09334001AD219D218D217D29B
:1014C000B0913400BE7FB0933400B0910501BD7F70
:1014D000B0930501B0913300B0FD06C0B091050195
:1014E000B1FF01C001C0F6CFB0E0B88300D2FFD198
:1014F000B0913300B1FF03C0088101600883F7D1C8
:10150000F6D1F5D1F4D1F3D1F2D1F1D1F0D1EFD1BF
:10151000EED1EDD1ECD1EBD1EAD1E9D1E8D1B09166
:101520003400B160B0933400B0913400B260B09335
:10153000340008812296CDBFDEBFDF91CF910895A0
:10154000CF93DF93CDB7DEB76C97CDBFDEBF2196CB
:101550002F923F924F925F926F927F928F929F92C3
:10156000B0E0B0932F01B0933001B0E0BE83BF83F1
:10157000B1E0B887B0E0B987BAE22B2EB1E03B2EDC
:10158000F4DB902FA12FB0E0BA83BB83B0E0BC8323
:10159000BD83592F6A2F515060400C811D81501717
:1015A00061070CF443C02AE231E00C811D81F8018F
:1015B000E20FF31F2081022F10E000531040088338
:1015C00019832E3221F4B1E0BE83B0E0BF833881AD
:1015D000498100E010E03017410720E00CF02FEFC8
:1015E00009E010E003171407B0E00CF0BFEF0B2F79
:1015F00020230E811F81103009F40030B0E009F47F
:10160000BFEF0B2F022331F00A811B810F5F1F4FA9
:101610000A831B830C811D810517160739F00C8185
:101620001D810F5F1F4F0C831D83B3CFB0E0BC83C0
:10163000BD832A813B81215030402A8F3B8F0C8112
:101640001D81201731070CF475C02AE231E00C81AE
:101650001D81F801E20FF31F0081302F40E030536D
:1016600040403883498300E010E03017410720E014
:101670000CF02FEF09E010E003171407B0E00CF0B6
:10168000BFEF0B2F022309F447C008841984B0E090
:1016900017FCBFEF0A811B8120E017FD2FEF322FCF
:1016A000001911092B0B3B0B15DA38014901B0E089
:1016B0002B2E3B2EB0E24B2EB1E45B2E46DA0E8B86
:1016C0001F8B288F398F0881198120E017FD2FEF9C
:1016D000322F00DA4E895F89688D798D22DA0E8B80
:1016E0001F8B288F398F00912F011091300120E03E
:1016F00017FD2FEF322FEED94E895F89688D798DD6
:1017000040DBEBD900932F01109330010885198538
:101710000F5F1F4F088719872C813D810A8D1B8D14
:101720002017310739F00C811D810F5F1F4F0C838B
:101730001D837FCF9F908F907F906F905F904F9091
:101740003F902F906B96CDBFDEBFDF91CF91089574
:10175000992779E004C0991F941708F0941B001F83
:101760007A95C9F700950895C801BA01AA1BBB1B59
:1017700051E107C0AA1FBB1FA617B70710F0A61B91
:10178000B70B881F991F5A95A9F7809590950895D2
:1017900068940E94840208951AE303E20A95F1F71F
:1017A0001A95E1F7000000000895B1E14B1619F415
:1017B0003BBC2ABC26C0B2E14B1619F439BC28BC8C
:1017C00020C0B3E14B1629F43092790020927800C2
:1017D00018C0B4E14B1629F430928700209286009D
:1017E00010C0B5E14B1629F4309285002092840098
:1017F00008C0B6E14B1629F4309283002092820093
:1018000000C00895CF93DF93CDB7DEB72497CDBF47
:10181000DEBF2196152D110FB7E0042D0695BA9560
:10182000E9F7010F0F57202F30E007FD3FEF00E0F1
:1018300010E020173107DCF440E050E060E070E099
:10184000810192015EDB002800E009F00FEF002328
:1018500031F0B0E0B883B983BA83BB8307C0B0E08E
:10186000B883B983B0E8BA83BFE3BB832AC008E179
:10187000021728F4288239824A825B8222C08101C1
:1018800092012BD927D9088319832A833B83A1018D
:10189000B201088119812A813B817DDA002800E0AC
:1018A00009F00FEF002369F0088119812A813B813B
:1018B00040E050E060E87FE364DA088319832A831C
:1018C0003B83088119812A813B812396CDBFDEBFEE
:1018D000DF91CF910895B0E3B0937100B4E0B0937D
:1018E0007400089505E80A95F1F70000089502E0F4
:1018F0000A95F1F7000000000895C801BA0197FBAE
:10190000092E07260AD077FD04D00CD006D000207F
:101910001AF4709561957F4F0895F6F7909581952B
:101920009F4F0895AA1BBB1B51E107C0AA1FBB1FF5
:10193000A617B70710F0A61BB70B881F991F5A955B
:10194000A9F780959095BC01CD010895089516E002
:101950000BE20A95F1F71A95E1F7000000000895EF
:101960009801249F8001259F100D349F100D08952C
:1019700027FAB0913500B7F9B093350026FAB09147
:101980003500B6F9B093350025FAB0913500B5F9B8
:10199000B093350024FAB0913500B4F9B093350016
:1019A000B091050100903500E894B0FF689402F80A
:1019B00000923500B0913500B860B093350097DFE4
:1019C000B0913500B77FB093350023FAB091350060
:1019D000B7F9B093350022FAB0913500B6F9B0935B
:1019E000350021FAB0913500B5F9B093350020FAF1
:1019F000B0913500B4F9B0933500B0910501009075
:101A00003500E894B0FF689402F800923500B09178
:101A10003500B860B09335006ADFB0913500B77F0C
:101A2000B0933500B0910501B0FF02C0B5DE01C032
:101A300059DF0895B0913500B77FB0933500B0916C
:101A40003500BB7FB0933500B0913500BF77B093C0
:101A50003500B0913500BF7BB0933500B0913500B3
:101A6000BF7DB0933500B0913500BF7EB093350097
:101A7000B0913400B860B0933400B0913400B460D9
:101A8000B0933400B0913400B061B0933400B091A1
:101A90003400B062B0933400B0913400B064B093BD
:101AA0003400B0913400B068B093340075DE74DE59
:101AB00073DEB0913500B062B0933500B09135005F
:101AC000B061B0933500B0913500B860B093350087
:101AD0000EDFB0913500B77FB09335005DDEB09179
:101AE0003500B860B093350002DFB0913500B77FA4
:101AF000B093350051DEB0913500B860B093350039
:101B0000F6DEB0913500B77FB093350045DEB09179
:101B10003500BF7EB0933500B0913500B860B0930A
:101B20003500E5DEB0913500B77FB093350034DE87
:101B3000B0913500B860B0933500D9DEB091350072
:101B4000B77FB0933500B0913500BF7DB0933500BD
:101B5000B0913500B068B0933500B0913500B860F1
:101B6000B0933500C4DEB0913500B77FB093350037
:101B700013DEB0913500BF77B0933500B0913500DA
:101B8000B061B0933500B0913500B860B0933500C6
:101B9000AEDEB0913500B77FB0933500B09135001F
:101BA000BF7EB0933500B0913500B860B09335007A
:101BB0009EDEB0913500B77FB0933500EDDDB0917A
:101BC0003500B860B093350092DEB0913500B77F34
:101BD000B0933500B0913500B061B0933500B0914D
:101BE0003500B860B093350082DEB0913500B77F24
:101BF000B0933500D1DDB0913500BF7EB093350094
:101C0000B0913500B860B093350071DEB091350009
:101C1000B77FB0933500B0913500B068B093350010
:101C2000B0913500B064B0933500B0913500B0622A
:101C3000B0933500B0913500B061B0933500B091EC
:101C40003500B860B093350052DEB0913500B77FF3
:101C5000B0933500A1DDB0910501B160B0930501ED
:101C60000895CF93DF93CDB7DEB72197CDBFDEBF09
:101C700021962F923F923F922F926BD9B0EA2B2E52
:101C8000BBDB2F903F902882232CB6DB2880B4DB6F
:101C900060D9B1EA2B2EB0DB22243324FDDA009385
:101CA000630A7FDB3F902F90CDBFDEBFDF91CF91E6
:101CB0000895CF93DF93CDB7DEB72397CDBFDEBFB7
:101CC0002196B0E83B1611F4B0E02B1681F4F20136
:101CD000BDE2B193B3E3B193B2E3B193B7E3B19390
:101CE000B6E3B193B8E3B193B0E0B19351C0B0E0C3
:101CF000BA8300E010E0201631063CF4BFEFBA834F
:101D000000E010E0021913091801F201B0E2B193EA
:101D1000B0E2B193B0E2B193B0E2B193B0E2B1936B
:101D2000B0E3B193B0E0B19382010B5F1F4F088322
:101D30001983B0E03B1611F4B0E02B1611F15F925D
:101D40004F923F922F924AE050E08101D6DD8C0104
:101D50002F903F90005DE881F98100833F922F92A0
:101D60004AE050E08101C9DD8B012F903F904F90F8
:101D70005F90180108811981015010400883198370
:101D8000D8CF0A81002321F0E881F981BDE2B08338
:101D90002296CDBFDEBFDF91CF910895B0E0B3BFF3
:101DA000B0E0B2BF51BE022D042903BF3092650AD4
:101DB000032903BF08952F92B0917100BE7FB093A5
:101DC0007100B0917100BD7FB0937100B0E2B0932B
:101DD000700081DDACD82F92B0EA2B2EECD82F907A
:101DE000EAD8A5D8B1EA2B2EE6D82224D1D8009380
:101DF000630ACAD818E605EE0A95F1F71A95E1F7D5
:101E00002F9008952F92B0917100BE7FB093710012
:101E1000B0917100BD7FB0937100B0E2B0937000DB
:101E20005ADD85D82F92B0EA2B2EC5D82F90C3D873
:101E3000232CC1D8A9D818E605EE0A95F1F71A9512
:101E4000E1F72F9008952F923F924F927F92022DAB
:101E500010E04FEF50E084DD44E650E085DC8C017B
:101E600020E0322F95DC6F925F922F9218012901AA
:101E7000C9DCBAE26B2EB1E07B2E18012901A7D88C
:101E80000E947E1A5DDB2F905F906F9000912F0172
:101E9000109130011F930F936F925F922F92B4E2D3
:101EA0004B2EB1E05B2E20902F013090300101DFEE
:101EB000BAE24B2EB1E05B2EB1E03B2EB1E02B2E0F
:101EC0000E94D017B4E24B2EB1E05B2EB6E03B2E61
:101ED000B2E02B2E0E94D0172F90B4E24B2EB1E02F
:101EE0005B2EB0E03B2EE5DEB4E24B2EB1E05B2E84
:101EF000B1E03B2EB2E02B2E0E94D0175F906F9086
:101F00000F911F91B0E06B1611F4B1E05B1629F44C
:101F1000B1E14B2E180149DC3EC0B0E06B1611F464
:101F2000B2E05B1629F4B2E14B2E18013EDC33C05F
:101F3000B0E06B1611F4B3E05B1619F4202E28D133
:101F40002AC0B0E06B1611F4B4E05B1619F4202E31
:101F50001DD121C0B0E06B1611F4B5E05B1629F479
:101F6000B4E14B2E180121DC16C0B0E06B1611F461
:101F7000B6E05B1629F4B5E14B2E180116DC0BC058
:101F8000B0E06B1611F4B7E05B1629F4B6E14B2E06
:101F900018010BDC00C07F904F903F902F90089568
:101FA000B1E07B1609F059C0B0E0BFBDB0E0BEBDE6
:101FB000B0E0BDBDB0E0BCBD4FBC6BBC5ABC69BCA1
:101FC00058BC6092790050927800BBE02B1639F42F
:101FD0000FB501600FBD0EB5077E0EBD38C0BCE069
:101FE0002B1639F4BFB5B260BFBD0EB5077E0EBD6E
:101FF0002EC0BDE02B1639F40FB503600FBD0EB532
:10200000077E0EBD24C0BEE02B1639F40FB501606B
:102010000FBD0EB508600EBD1AC0BFE02B1639F417
:102020000FB502600FBD0EB508600EBD10C0B0E167
:102030002B1639F40FB503600FBD0EB508600EBD49
:1020400006C00FB50C7F0FBD0EB5077E0EBD3092DA
:10205000640A0EB503290EBD89C0B3E07B1609F0F2
:1020600085C0B0E0B0938B00B0E0B0938A00B0E0E0
:10207000B0938900B0E0B0938800B0E0B0938A00DC
:102080006092870050928600609285005092840092
:10209000609283005092820000918B00042900938B
:1020A0008B00BBE02B1659F400918B00016000936C
:1020B0008B0000918A00077E00938A0050C0BCE02C
:1020C0002B1659F400918B00026000938B00009155
:1020D0008A00077E00938A0042C0BDE02B1659F4A7
:1020E00000918B00036000938B0000918A00077EB3
:1020F00000938A0034C0BEE02B1659F400918B0087
:10210000016000938B0000918A00086000938A00B0
:1021100026C0BFE02B1659F400918B00026000939B
:102120008B0000918A00086000938A0018C0B0E11B
:102130002B1659F400918B00036000938B000091E3
:102140008A00086000938A000AC000918B000C7F0F
:1021500000938B0000918A00077E00938A003092E2
:10216000660A00918A00032900938A000895B0E06E
:10217000B4BD53BCB0E0B5BD05B50229042905BD09
:102180003092670A05B5032905BD089523BC08955B
:1021900021BE0895CF93DF93CDB7DEB72297CDBF91
:1021A000DEBF2196488239822F920E94A907B0EAA9
:1021B0002B2E22D9288020D929801ED92F901CD9D6
:1021C000F0D825E01FE002EF0A95F1F71A95E1F744
:1021D0002A95D1F72196CDBFDEBFDF91CF9108952B
:1021E000CF93DF93CDB7DEB72597CDBFDEBF219666
:1021F0002F923F924F92B0E0B0930201B09303014F
:10220000B2E0B0930401B1E0B0932201B0E0B0932A
:102210002301B1E0B0933101B0E0B0933201B1E0FD
:10222000B883B0E0B983009102010F5F0C83009185
:102230000401015010E040E551E092DB23E331E07E
:10224000020F131F4091310141500A831B8300E7A5
:1022500010E050E085DB2A813B81200F311F009187
:102260002201015010E0000F111F000F111F000F7D
:10227000111F000F111F200F311F0881015010E0A6
:10228000000F111F000F111F000F111FF801E20FA7
:10229000F31F119121910C81312E422E202E7ADFD5
:1022A000009102010F5F0F5F0C8300910401015048
:1022B00010E040E551E054DB23E331E0020F131F4F
:1022C0004091310141500A831B8300E710E050E048
:1022D00047DB2A813B81200F311F009122010150F1
:1022E00010E0000F111F000F111F000F111F000F32
:1022F000111F200F311F0881015010E0000F111F26
:10230000000F111F000F111F020F131FF80132964B
:10231000119121910C81312E422E202E3BDF009114
:1023200002010F5F0E5F0C8300910401015010E069
:1023300040E551E015DB23E331E0020F131F40912C
:10234000310141500A831B8300E710E050E008DBB5
:102350002A813B81200F311F00912201015010E0A2
:10236000000F111F000F111F000F111F000F111F71
:10237000200F311F0881015010E0000F111F000FC6
:10238000111F000F111F020F131FF8013496119136
:1023900021910C81312E422E202EFCDE0091020173
:1023A0000F5F0D5F0C8300910401015010E040E5C8
:1023B00051E0D6DA23E331E0020F131F40913101DF
:1023C00041500A831B8300E710E050E0C9DA2A81FC
:1023D0003B81200F311F00912201015010E0000FBE
:1023E000111F000F111F000F111F000F111F200FD1
:1023F000311F0881015010E0000F111F000F111F45
:10240000000F111F020F131FF80136961191219131
:102410000C81312E422E202EBDDE00910201109142
:1024200003010C5F1F4F0093020110930301088109
:102430001981103009F4023039F0088119810F5FD9
:102440001F4F08831983EFCE0091310110913201A3
:10245000103009F4043059F000913101109132012B
:102460000F5F1F4F0093310110933201D8CE0091BE
:10247000220110912301103009F4073059F0009126
:102480002201109123010F5F1F4F0093220110932F
:102490002301BFCE00910401023031F0009104010C
:1024A0000F5F00930401AFCE4F903F902F90249682
:1024B000CDBFDEBFDF91CF910895CF93DF93CDB72E
:1024C000DEB72497CDBFDEBF21962F923F92B0E0BA
:1024D000B0930201B0930301B2E0B0930401B1E004
:1024E000B0932201B0E0B0932301B1E0B093310189
:1024F000B0E0B0933201B1E0B883B0E0B9830091AD
:102500000201109103010F5F1F4F1801AADB009118
:102510000401015010E040E551E022DA23E331E00C
:10252000020F131F4091310141500A831B8300E7C2
:1025300010E050E015DA2A813B81200F311F009115
:102540002201015010E0000F111F000F111F000F9A
:10255000111F000F111F200F311F0881015010E0C3
:10256000000F111F000F111F000F111FF801E20FC4
:10257000F31F0091630A0193B0E0B193009102014F
:10258000109103010E5F1F4F18016BDB00910401D6
:10259000015010E040E551E0E3D923E331E0020FC0
:1025A000131F4091310141500A831B8300E710E063
:1025B00050E0D6D92A813B81200F311F00912201A2
:1025C000015010E0000F111F000F111F000F111F0D
:1025D000000F111F200F311F0881015010E0000F64
:1025E000111F000F111F000F111F020F131FF80101
:1025F00032960091630A0193B0E0B1930091020119
:10260000109103010D5F1F4F18012BDB0091040196
:10261000015010E040E551E0A3D923E331E0020F7F
:10262000131F4091310141500A831B8300E710E0E2
:1026300050E096D92A813B81200F311F0091220161
:10264000015010E0000F111F000F111F000F111F8C
:10265000000F111F200F311F0881015010E0000FE3
:10266000111F000F111F000F111F020F131FF80180
:1026700034960091630A0193B0E0B1930091020196
:10268000109103010C5F1F4F1801EBDA0091040158
:10269000015010E040E551E063D923E331E0020F3F
:1026A000131F4091310141500A831B8300E710E062
:1026B00050E056D92A813B81200F311F0091220121
:1026C000015010E0000F111F000F111F000F111F0C
:1026D000000F111F200F311F0881015010E0000F63
:1026E000111F000F111F000F111F020F131FF80100
:1026F00036960091630A0193B0E0B1930091020114
:10270000109103010C5F1F4F00930201109303010E
:1027100008811981103009F4023039F008811981DB
:102720000F5F1F4F08831983EACE0091310110918A
:102730003201103009F4043059F000913101109148
:1027400032010F5F1F4F0093310110933201D3CE3E
:102750000091220110912301103009F4073059F043
:1027600000912201109123010F5F1F4F009322015E
:1027700010932301BACE00910401023031F0009190
:1027800004010F5F00930401AACE3F902F9023967F
:10279000CDBFDEBFDF91CF910895B0910501BE7F1F
:1027A000B0930501E5D8B0910501B160B093050182
:1027B0000895E32DF42DB0E2B193B0E2B193B0E30C
:1027C000B193B0E0B193032D142D0E5F1F4F98010C
:1027D000B0E02B1691F04AE0022D0E94A80B092FC1
:1027E000005DF90100834AE0022D0E94A80B202E13
:1027F0008901015010409801EBCF0895CF93DF93EA
:10280000CDB7DEB76897CDBFDEBF21962F923F923E
:102810004F925F926F927F928F929F926FD6B0E0AD
:10282000B093630A222433241CDA0091630A0C302B
:1028300009F0E1C0FE01B5E6B193B8E7B193B4E7A2
:10284000B193B0E2B193B5E4B193B5E4B193B0E71D
:10285000B193B2E7B193BFE6B193BDE6B193B0E2F5
:10286000B193B7E7B193B2E7B193B9E6B193B4E7E7
:10287000B193B5E6B193B4E6B193B0E2B193B2E6E9
:10288000B193B5E6B193B6E6B193BFE6B193B2E7C3
:10289000B193B0E0B1938E012801B1E03B2EB1E0DD
:1028A0002B2E7ED3B4E23B2EB1E04B2E2090630A58
:1028B00080DFB4E24B2EB1E05B2EB1E03B2EB2E004
:1028C0002B2E6ED32DE311EE00E40A95F1F71A9545
:1028D000E1F72A95D1F70000000010D6FE01B2E51D
:1028E000B193B5E6B193B1E6B193B4E6B193B9E66D
:1028F000B193BEE6B193B7E6B193B0E2B193B6E659
:10290000B193B2E7B193BFE6B193BDE6B193B0E244
:10291000B193B0E0B1938E012801B1E03B2EB1E05C
:102920002B2E3ED3FE01B5E4B193B5E4B193B0E5EF
:10293000B193B2E5B193BFE4B193BDE4B193B0E21A
:10294000B193BEE2B193BEE2B193BEE2B193B0E205
:10295000B193B0E0B1938E012801B1E03B2EB2E01B
:102960002B2E1ED3AADDB0E0B093630AB4E02B2E69
:10297000B0E03B2E76D9B4E23B2EB1E04B2E209056
:10298000630A17DFFE01B5E4B193B5E4B193B0E794
:10299000B193B2E7B193BFE6B193BDE6B193BDE2A7
:1029A000B193B5E6B193B8E7B193B4E7B193B0E2B0
:1029B000B193B0E3B193B4E3B193B0E0B1938E01BE
:1029C0002801B1E03B2EB1E02B2EEAD2B4E24B2E2F
:1029D000B1E05B2EB1E03B2EB2E02B2EE1D22DE335
:1029E00011EE00E40A95F1F71A95E1F72A95D1F76F
:1029F00000000000E7C0FE01B5E6B193B8E7B1936F
:102A0000B4E7B193B0E2B193BEE6B193BFE6B19340
:102A1000B4E7B193B0E2B193B7E7B193B2E7B19342
:102A2000B9E6B193B4E7B193B5E6B193B4E6B19327
:102A3000B1E3B193B1E3B193B1E3B193B1E3B19336
:102A4000B1E3B193B1E3B193B1E3B193B1E3B19326
:102A5000B1E3B193B0E0B1938E012801B1E03B2E18
:102A6000B1E02B2E9DD22DE311EE00E40A95F1F793
:102A70001A95E1F72A95D1F700000000BCE03B2E43
:102A8000B0E04B2E222486DB882499246624772408
:102A9000B1E04B2EB0E05B2EB1E02B2EB0E03B2E30
:102AA000B0E0BF93B2E1BF934DD1ADB7BEB71296C0
:102AB000ADBFBEBF8824992466247724B1E04B2E95
:102AC000B0E05B2EB2E02B2EB0E03B2EB0E0BF9327
:102AD000B2E1BF9337D1ADB7BEB71296ADBFBEBF9F
:102AE0000DD5FE01B7E5B193B2E7B193B9E6B19365
:102AF000B4E7B193B9E6B193BEE6B193B7E6B1934B
:102B0000B0E2B193B4E7B193BFE6B193B0E2B19351
:102B1000B0E2B193B0E0B1938E012801B1E03B2E59
:102B2000B1E02B2E3DD2FE01B5E4B193B5E4B193F3
:102B3000B0E5B193B2E5B193BFE4B193BDE4B19315
:102B4000B0E2B193BEE2B193BEE2B193BEE2B19303
:102B5000B0E2B193B0E0B1938E012801B1E03B2E19
:102B6000B2E02B2E1DD23CDBFE01B7E7B193B2E7FA
:102B7000B193B9E6B193B4E7B193B9E6B193BEE6C8
:102B8000B193B7E6B193B0E2B193B5E6B193B8E7CC
:102B9000B193B4E7B193B0E2B193B5E6B193B5E6C2
:102BA000B193B0E7B193B2E7B193BFE6B193BDE69D
:102BB000B193B0E0B1938E012801B1E03B2EB1E0BA
:102BC0002B2EEED12DE311EE00E40A95F1F71A95C4
:102BD000E1F72A95D1F70000000090D4B0E0B0935F
:102BE000630A222433243DD80091630A0C3079F51E
:102BF000FE01B1E3B193B2E3B193B0E2B193B9E6B0
:102C0000B193B3E7B193B0E2B193B7E6B193BFE646
:102C1000B193BFE6B193B4E6B193B0E0B1938E0146
:102C20002801B1E03B2EB1E02B2EBAD1B4E23B2E0D
:102C3000B1E04B2E2090630ABCDDB4E24B2EB1E034
:102C40005B2EB1E03B2EB2E02B2EAAD161C0FE017B
:102C5000B5E6B193B8E7B193B4E7B193B0E2B193FD
:102C6000BEE6B193BFE6B193B4E7B193B0E2B193DE
:102C7000B7E7B193BFE6B193B2E7B193BBE6B193C7
:102C8000B9E6B193BEE6B193B7E6B193B0E0B193C4
:102C90008E012801B1E03B2EB1E02B2E81D12DE336
:102CA00011EE00E40A95F1F71A95E1F72A95D1F7AC
:102CB00000000000BCE03B2EB0E04B2E22246ADA7C
:102CC000FE01B5E6B193B8E7B193B4E7B193B0E2D2
:102CD000B193BEE6B193BFE6B193B4E7B193B0E26E
:102CE000B193B7E7B193BFE6B193B2E7B193BBE657
:102CF000B193B9E6B193BEE6B193B7E6B193B0E054
:102D0000B1938E012801B1E03B2EB1E02B2E48D1CA
:102D10002DE311EE00E40A95F1F71A95E1F72A95F3
:102D2000D1F700000000EAD39F908F907F906F90C2
:102D30005F904F903F902F906796CDBFDEBFDF91A1
:102D4000CF910895CF93DF93CDB7DEB72497CDBF52
:102D5000DEBF21960885198508871987B1E0B093F1
:102D60000401B1E0B0932201B0E0B0932301B1E0DF
:102D7000B0933101B0E0B0933201009104010150F1
:102D800010E040E551E00E94B00C23E331E0020F77
:102D9000131F4091310141500A831B8300E710E06B
:102DA00050E00E94B00C2A813B81200F311F00911E
:102DB0002201015010E0000F111F000F111F000F22
:102DC000111F000F111F200F311F022D015010E0A5
:102DD000000F111F000F111F000F111FF801E20F4C
:102DE000F31F4192519200910401015010E040E51F
:102DF00051E00E94B00C23E331E0020F131F409119
:102E0000310141500A831B8300E710E050E00E942B
:102E1000B00C2A813B81200F311F0091220101500B
:102E200010E0000F111F000F111F000F111F000FE6
:102E3000111F200F311F022D015010E0000F111F34
:102E4000000F111F000F111F020F131FF801329600
:102E50006192719200910401015010E040E551E04F
:102E60000E94B00C23E331E0020F131F40913101A7
:102E700041500A831B8300E710E050E00E94B00C31
:102E80002A813B81200F311F00912201015010E067
:102E9000000F111F000F111F000F111F000F111F36
:102EA000200F311F022D015010E0000F111F000FE5
:102EB000111F000F111F020F131FF801349681928A
:102EC000919200910401015010E040E551E00E9410
:102ED000B00C23E331E0020F131F40913101415048
:102EE0000A831B8300E710E050E00E94B00C2A81A7
:102EF0003B81200F311F00912201015010E0000F93
:102F0000111F000F111F000F111F000F111F200FA5
:102F1000311F022D015010E0000F111F000F111F73
:102F2000000F111F020F131FF8013696088519852F
:102F3000019311930091310110913201103009F485
:102F4000033059F000913101109132010F5F1F4F92
:102F5000009331011093320110CF009122011091A2
:102F60002301103009F4073059F00091220110912B
:102F700023010F5F1F4F0093220110932301F7CE0F
:102F800000910401073031F0009104010F5F0093BC
:102F90000401E7CE2396CDBFDEBFDF91CF91089528
:102FA0002F92B1E02B1619F4B0E82B2E14C0B2E02A
:102FB0002B1619F4B0EC2B2E0EC0B3E02B1619F41F
:102FC000B4E92B2E08C0B4E02B1619F4B4ED2B2E67
:102FD00002C0B0E82B2E032D0150020D202E202E12
:102FE0000E94B80CB0910501BE7FB093050192011B
:102FF000F9010081002379F0F90100813F932F93BB
:103000002F92202ECADB2F902F913F9189010F5FC5
:103010001F4F9801EDCFB0910501B160B09305014C
:103020002F900895CF93DF93CDB7DEB72197CDBF13
:10303000DEBF2196B0E0B883B42D11E0BB2319F0B8
:10304000110FBA95E9F7F1010081102300E010306B
:1030500009F001E00615E9F400E0051540F40E94CE
:10306000A70C0E94A70C052D0150502EF5CFB42DB2
:1030700011E0BB2319F0110FBA95E9F7F1010081B6
:10308000102300E0103009F001E0061511F4BFEF45
:10309000B8830881CDBFDEBFDF91CF910895CF9374
:1030A000DF93CDB7DEB76697CDBFDEBF21962F92F7
:1030B0003F924F925F92B0E0B093630A1FD22224F6
:1030C0000E94DB0E0091630A003709F03EC0FE014A
:1030D000B5E4B193B8E7B193B4E7B193B0E2B1937B
:1030E000B4E5B193B7E5B193B9E4B193B0E2B1936C
:1030F000B5E4B193B5E4B193B0E7B193B0E2B19365
:10310000B7E7B193B2E7B193B0E2B193B2E6B1934E
:10311000B5E6B193B6E6B193B6E6B193BFE6B19327
:10312000B2E7B193B0E0B1938E012801B1E03B2E3C
:10313000B1E02B2E35DF29E216E900E80A95F1F718
:103140001A95E1F72A95D1F774C0B0E73B2EB0E0AD
:103150004B2E22240E94020FFE01B5E4B193B8E782
:10316000B193B4E7B193B0E2B193B4E5B193B7E5ED
:10317000B193B9E4B193B0E2B193B5E4B193B5E4DE
:10318000B193B0E7B193B0E2B193BEE6B193BFE6BD
:10319000B193B4E7B193B0E2B193B7E7B193B2E7BB
:1031A000B193B4E7B193B5E6B193B4E6B193B0E0AF
:1031B000B1938E012801B1E03B2EB1E02B2EF0DE61
:1031C000FE01B7E5B193B2E7B193B4E7B193B4E7C9
:1031D000B193B9E6B193BEE6B193B7E6B193B0E26D
:1031E000B193B5E6B193B8E7B193B4E7B193B0E268
:1031F000B193B4E7B193B7E7B193B9E6B193B0E255
:10320000B193B5E6B193B5E6B193B0E7B193B0E051
:10321000B1938E012801B1E03B2EB2E02B2EC0DE2F
:1032200029E216E900E80A95F1F71A95E1F72A95DF
:10323000D1F7B0E0B093630A61D122240E94DB0E83
:103240000091630A003709F07BC0FE01B5E4B19339
:10325000B8E7B193B4E7B193B0E2B193B4E5B193F9
:10326000B7E5B193B9E4B193B0E2B193B5E4B193EA
:10327000B5E4B193B0E7B193B0E2B193B7E7B193DE
:10328000BFE6B193B2E7B193BBE6B193B9E6B193B0
:10329000BEE6B193B7E6B193B0E0B1938E012801D9
:1032A000B1E03B2EB1E02B2E7BDE29E216E900E8EF
:1032B0000A95F1F71A95E1F72A95D1F7B4E24B2E6A
:1032C000B1E05B2E2090630AB0E03B2E0E94590EC5
:1032D00015D1FE01B5E4B193B5E4B193B0E7B19374
:1032E000B2E7B193BFE6B193BDE6B193B0E2B1935B
:1032F000B4E5B193B7E5B193B9E4B193B0E2B1935A
:10330000BFE6B193B0E2B193B0E0B1938E01280172
:10331000B1E03B2EB1E02B2E43DEB4E24B2EB1E008
:103320005B2EB1E03B2EB2E02B2E3ADE29E216E90D
:1033300000E80A95F1F71A95E1F72A95D1F739C017
:10334000FE01B4E5B193B7E5B193B9E4B193B0E24E
:10335000B193B5E4B193B5E4B193B0E7B193B0E202
:10336000B193BEE6B193BFE6B193B4E7B193B0E2D7
:10337000B193B7E7B193BFE6B193B2E7B193BBE6C0
:10338000B193B9E6B193BEE6B193B7E6B193B0E0BD
:10339000B1938E012801B1E03B2EB1E02B2E00DE6F
:1033A00029E216E900E80A95F1F71A95E1F72A955E
:1033B000D1F729E216E900E80A95F1F71A95E1F745
:1033C0002A95D1F79BD05F904F903F902F906596B4
:1033D000CDBFDEBFDF91CF910895CF93DF93CDB7FF
:1033E000DEB72397CDBFDEBF21962F923F924F923B
:1033F0005F926F927F92B0E0B883B7B3B061B7BB12
:10340000B7B3B062B7BBB7B3B064B7BBB7B3B0685C
:10341000B7BBB2B1B860B2B9B2B1B061B2B9B2B112
:10342000B062B2B95524B0E24B2EB2E03B2EB8E404
:103430002B2E0E94CE0E5880B0E24B2EB2E03B2ED7
:10344000B8E42B2E0E94B710B1E07B2E5880B0E07C
:103450006B2EB8EA4B2EB2E03B2EBBE02B2E0E9427
:10346000D00FB3E07B2E5880B0E06B2EB8EA4B2E25
:10347000B2E03B2EBBE02B2E0E94D00F28800E9492
:10348000C81028800E94C610B0E0B1BFB0E0B3BD44
:10349000B0E0B983BA8349815A8104E1409F002D8D
:1034A000B7E05B2EB0E06B2EBFEF3B2EB0E04B2EB3
:1034B000202E0E94230F29E01EE105EE0A95F1F768
:1034C0001A95E1F72A95D1F7000009811A81103089
:1034D00009F4053039F009811A810F5F1F4F098304
:1034E0001A83D9CF7F906F905F904F903F902F902D
:1034F0002296CDBFDEBFDF91CF9108952F920E941B
:103500001A0DB1E02B2E0E94B80CBCE02B2E0E94AD
:10351000B80C2F900895BFEFBDBFB0E1BEBFCDB7CF
:10352000DEB76397CDBFDEBF21962F923F924F92B9
:103530005F926F927F928F929F920E941A0DB1E0DC
:103540002B2E0E94B80CBCE02B2E0E94B80CE6E09B
:10355000F1E0B8E6B193B5E6B193BCE6B193BCE651
:10356000B193BFE6B193B0E0B193E7E1F1E0B2E52A
:10357000B193B4E5B193B3E4B193B2E3B193B0E2E4
:10358000B193B3E6B193BCE6B193B9E6B193B3E6B8
:10359000B193BBE6B193B0E0B1938824992466243B
:1035A0007724B1E04B2EB0E05B2EB1E02B2EB0E0E3
:1035B0003B2EB0E0BF93BBE0BF93C4DBADB7BEB75B
:1035C0001296ADBFBEBF8824992466247724B1E04B
:1035D0004B2EB0E05B2EB2E02B2EB0E03B2EB0E0E5
:1035E000BF93B2E1BF93AEDBADB7BEB71296ADBF2E
:1035F000BEBF04D954DDFE01B7E7B193B2E7B19382
:10360000B9E6B193B4E7B193B9E6B193BEE6B1932D
:10361000B7E6B193B0E2B193B5E6B193B8E7B19331
:10362000B4E7B193B0E2B193B5E6B193B5E6B19327
:10363000B0E7B193B2E7B193BFE6B193BDE6B19302
:10364000B0E0B1938E012801B1E03B2EB1E02B2E0A
:10365000A7DC54DFB1E0B0932201B0E0B0932301C6
:10366000B1E0B0933101B0E0B0933201B2E0B09379
:103670000401B1E0B0930001B0E0B093010120E596
:1036800031E003E311E0020F131FF80136960191B8
:103690001191B4E24B2EB1E05B2E18010E94590E3D
:1036A000FE01BFE6B193BEE6B193BFE5B193B1E6CB
:1036B000B193BFE5B193B0E3B193B0E0B1938E01A4
:1036C0002801B1E03B2EB1E02B2E6ADCB4E24B2E98
:1036D000B1E05B2EB1E03B2EB2E02B2E61DC25E1A8
:1036E0001BE40FEB0A95F1F71A95E1F72A95D1F74C
:1036F000000073DEB1E05B2EB0E06B2EBFEF3B2E1F
:10370000B0E04B2EB4E62B2E0E94230FB2E05B2ECE
:10371000B0E06B2EBFEF3B2EB0E04B2EB4E62B2E6D
:103720000E94230FB3E05B2EB0E06B2EBFEF3B2E69
:10373000B0E04B2EB4E62B2E0E94230FB4E05B2E9C
:10374000B0E06B2EBFEF3B2EB0E04B2EB4E62B2E3D
:103750000E94230FB5E05B2EB0E06B2EBFEF3B2E37
:10376000B0E04B2EB4E62B2E0E94230FB6E05B2E6A
:10377000B0E06B2EBFEF3B2EB0E04B2EB4E62B2E0D
:103780000E94230FB7E05B2EB0E06B2EBFEF3B2E05
:10379000B0E04B2EB4E62B2E0E94230FB6E04B2E4A
:1037A000B1E05B2EB1E03B2EB1E02B2EF9DBB7E1AF
:1037B0004B2EB1E05B2EB4E03B2EB2E02B2EF0DBC3
:1037C000EDCF9F908F907F906F905F904F903F9044
:1037D0002F90FFCF0F922F925F920F931F932F93F3
:1037E0003F93EF93FF93EF93FF93BF93BFB7BF93C5
:1037F0002F923F924F925F926F92BFB7BF77BFBF3A
:10380000B8B7BB7FB8BFB9B7BB7FB9BFE6E0F1E0DF
:10381000BCE3B193B9E6B193BEE6B193B4E7B1931B
:10382000B0E2B193B9E6B193B3E7B193B0E2B1932B
:10383000B3E7B193B5E6B193BCE6B193B5E6B19306
:10384000B3E6B193B4E7B193B5E6B193B4E6B193FF
:10385000BEE3B193B0E0B193B6E04B2EB1E05B2E86
:10386000B1E03B2EB1E02B2E9BDBB1E06B2E55245B
:10387000B2E04B2EB0E32B2EB0E03B2ED3DB00307A
:1038800079F0B0910501B460B093050137DE21E114
:103890001CE30CEC0A95F1F71A95E1F72A95D1F79C
:1038A00066245524B2E04B2EB0E32B2EB0E03B2E25
:1038B000B9DB00900501112702FC1395012339F1B2
:1038C000B0910501BB7FB0930501E6E0F1E0BCE3F8
:1038D000B193B7E6B193BFE6B193BFE6B193B4E657
:1038E000B193BEE3B193B0E0B193B6E04B2EB1E03B
:1038F0005B2EB1E03B2EB1E02B2E52DB21E11CE32D
:103900000CEC0A95F1F71A95E1F72A95D1F7B0E09A
:10391000B1BDB9B7B460B9BFBFB7B068BFBF6F9032
:103920005F904F903F902F90BF91BFBFBF91FF918D
:10393000EF91FF91EF913F912F911F910F915F9028
:103940002F900F901895FFFFFFFFFFFFFFFFFFFF76
:00000001FF
