:100000000C94FD060C9400000C9400000C9400006D
:100010000C9400000C9400000C9400000C94000060
:100020000C9400000C9400000C9400000C94000050
:100030000C9400000C9400000C9400000C94000040
:100040000C9400000C9400000C9400000C94000030
:100050000C9400000C9400000C9400000C94000020
:100060000C9400000C9400000C9400000C94000010
:100070000C9400000C9400000C9400000C94000000
:100080000C9400000C9400000C940000A7D039F0F0
:1000900041585F4F342F220F36952795362B089500
:1000A0009DD011F19F938F938EE790E0332351F011
:1000B000369527951795079548175907B4F44F5F5C
:1000C0005F4FF4CF80959095019622239AF0000F10
:1000D000111F221F481759071CF041505040F5CFFF
:1000E000002711272227332708C033270FEF102FAF
:1000F0002FE7322F8F919F91C9DF0895B8D021F05B
:10010000662309F0C9D098940895F8DF09F441C036
:10011000E62ED52EC42EB32EA22E912E802E002D8B
:10012000112D222D332DEADF09F43DC0842F952FA8
:100130008C199D09B9F072F49095809501964C2D1B
:100140005D2D883180F53595279517950795019791
:10015000D1F708C08831E8F4B594A79497948794B0
:100160000197D1F766272EF0080D191D2A1D3B1D9A
:1001700009C0801A910AA20AB30A082D192D2A2D46
:100180003B2D332312F488D060E88ADF01C07EDF84
:1001900016C0002D112D222D332DD6F71FD0C1F3FF
:1001A00040E83427F5CF082D192D2A2D3B2D4C2D55
:1001B0005D2D6E2D33235AF76FD060E8E8CF089598
:1001C0006894A3DF0895FCDF332332F007D011F0E9
:1001D00001E003C0002701C00FEF0895002329F4B8
:1001E000112319F4222309F433230895C9019A0134
:1001F000AB01B80197FB092E05260ED057FD04D0A0
:1002000014D00AD0001C38F45095409530952195B3
:100210003F4F4F4F5F4F0895F6F79095809570953B
:1002200061957F4F8F4F9F4F0895A1E21A2EAA1B11
:10023000BB1BFD010DC0AA1FBB1FEE1FFF1FA21796
:10024000B307E407F50720F0A21BB30BE40BF50B93
:10025000661F771F881F991F1A9469F7609570951C
:10026000809590959B01AC01BD01CF010895B6DF4B
:1002700079F0632F6078220F331F432F5FE7451B10
:1002800055275040269530E8232B3327989403C0F8
:100290004427552766270895009510952095309599
:1002A0000F5F1F4F2F4F3F4F089547E16627552798
:1002B00026F0332312F4F0DF60E8F2DE0895D7DF92
:1002C00081F1E62ED52EC42EB32EA22E912E802E95
:1002D000002D112D222D332DCADF19F16E254C0D65
:1002E0005D1D40385307F4F441387FEF5707FCF0A9
:1002F00088279927AA27BB2770E2B695A7959795D7
:100300008795379527951795079520F4880D991DA2
:10031000AA1DBB1D7A9589F7032F3A2F292F182F75
:10032000BFDE0AC00FEF102F2FE73FE7FACF0027FD
:10033000102F202F302FF5CF0895042E152E262EA6
:10034000372E41DF0023089518E003E20A95F1F704
:100350001A95E1F70000000008950000089500E1FB
:100360000A95F1F7000000000895E8949EDF0895D3
:100370003F932F931F930F93002D112D222D332D7B
:1003800076DF09F44BC0E62ED52EC42EB32EA22E56
:10039000912E802E0F911F912F913F9168DF61F177
:1003A0006E254C195D09403853073CF541387FEF05
:1003B00057077CF180E27724632E522E412E302F96
:1003C000222711270027000F111F221F331F441C53
:1003D000551C661C771C28F0481859086A087B08C9
:1003E00004C0480C591C6A1C7B1C0AF001608A95E9
:1003F00051F74150504054DE16C00FEF102F2FE739
:100400003FE76623C9F3EADEB9F3342D30E834253B
:10041000F3CF0027102F202F302FEECF0F900F900B
:100420000F900F90EACF0895042E152E262E372E0A
:1004300046DF002E112E222E332E0895042E152E67
:10044000262E372EBDDE002E112E222E332E08959D
:1004500074DF1CF40024039401C000240895CF939A
:10046000DF93CDB7DEB72397CDBFDEBF2196B0E8CF
:100470005B1641F4B0E04B1629F4B0E03B1611F4E2
:10048000B0E02B16D1F4F301BDE2B193B2E3B19326
:10049000B1E3B193B4E3B193B7E3B193B4E3B193F0
:1004A000B8E3B193B3E3B193B6E3B193B4E3B193DB
:1004B000B8E3B193B0E0B1937BC0B0E0BA8300E0A1
:1004C00010E020E030E0201631064206530664F4C6
:1004D000BFEFBA8300E010E020E030E0021913091A
:1004E0002409350918012901F301B0E2B193B0E202
:1004F000B193B0E2B193B0E2B193B0E2B193B0E2A4
:10050000B193B0E2B193B0E2B193B0E2B193B0E293
:10051000B193B0E3B193B0E0B1938301065F1F4F95
:1005200008831983B0E05B1641F4B0E04B1629F460
:10053000B0E03B1611F4B0E02B1699F17F926F9268
:100540005F924F923F922F924AE050E060E070E05D
:10055000810192014BDE8B019C012F903F904F90C7
:100560005F90005DE881F98100835F924F923F9236
:100570002F924AE050E060E070E08101920136DEA7
:1005800089019A012F903F904F905F906F907F90DC
:10059000180129010881198101501040088319832D
:1005A000C1CF0A81002321F0E881F981BDE2B08347
:1005B0002296CDBFDEBFDF91CF91089558DEF1F0D6
:1005C0005523C2F04F31A8F44731C1F050F44195A2
:1005D000495E05C035952795179507954A95D1F73A
:1005E0000DC04751000F111F221F331F4A95D1F72D
:1005F00005C03FE7232F132F032F03C0662309F005
:100600004BDE0895CF93DF93CDB7DEB7A197CDBF73
:10061000DEBF2196B0E0BE8F81019201CFDF08835B
:1006200019832A833B835F924F923F922F9240E03F
:1006300050E060E070E0810192010ADF002800E0F4
:1006400009F00FEF2F903F904F905F90002311F033
:10065000BFEFBE8F8E010A5F1F4F7F926F925F9236
:100660004F923F922F923801288039804A805B80D8
:10067000F6DE2F903F904F905F906F907F900881B3
:1006800019812A813B8171DE5F924F923F922F92B6
:10069000A801B90181019201D1DE40E050E563EC8F
:1006A00077E4C2DE2F903F904F905F9087DF088302
:1006B00019832A833B8340E050E060E070E0041738
:1006C00015072607370784F40880198000E010E03A
:1006D000001911090A801B8020E030E0200931094F
:1006E000088319832A833B838E010E5E1F4F7F92FE
:1006F0006F925F924F923F922F92380128803980FB
:100700004A805B80ACDE2F903F904F905F906F905F
:100710007F9040E050E0B0E0BC83BD83F301B0E2E5
:10072000B193B0E2B193B0E2B193B0E2B193B0E271
:10073000B193B0E2B193B0E2B193B0E2B193B0E261
:10074000B193B0E2B193B0E3B193B0E0B1935F93F2
:100750004F938101920132DF303029F4203019F4B7
:10076000103009F40030B0E009F4BFEF0B2F08A3FC
:1007700040E050E060E070E08101920169DE002815
:1007800000E009F00FEF4F915F9118A101230023C2
:1007900041F0F301BDE2B08311E020E0412F522F80
:1007A00000C02E81203281F40C811D8198012F5FC1
:1007B0003F4F2C833D838E010A5F1F4FF901E00FED
:1007C000F11F0081202FEECF022F0030D1F0FA016F
:1007D000E60DF71D00830C811D8198012F5F3F4FAF
:1007E0002C833D838A010F5F1F4FB8018E010A5F82
:1007F0001F4FF901E00FF11F0081202F022FAB01E5
:10080000E4CF0E8D003010E009F41FEF503009F4F2
:10081000403000E009F40FEF012351F0FA01E60D3A
:10082000F71DB0E3B0838A010F5F1F4F980101C02D
:100830009A01303009F4213010E009F41FEF0E8DD9
:10084000012359F0F901E60DF71DB0E3B0838901EA
:100850000F5F1F4FA8019A0100C0F901E60DF71DB7
:10086000BEE2B08389010F5F1F4FA801B6E0BC83D1
:10087000B0E0BD83288D2030F9F0203219F420E358
:10088000022F01C0022FFA01E60DF71D00830C8133
:100890001D8198012F5F3F4F2C833D838A010F5F9D
:1008A0001F4FB8018E010E5E1F4FF901E00FF11FBF
:1008B0000081AB01202FDFCFFA01E60DF71DB0E07C
:1008C000B083A096CDBFDEBFDF91CF910895B091E8
:1008D0003500B77FB0933500B0913500BB7FB09342
:1008E0003500B0913500BF77B0933500B091350039
:1008F000BF7BB0933500B0913500BF7DB09335001C
:10090000B0913500BF7EB0933500B0913400B8602F
:10091000B0933400B0913400B460B0933400B0911F
:100920003400B061B0933400B0913400B062B09341
:100930003400B0913400B064B0933400B09134000E
:10094000B068B093340000DDFFDCFEDCB091350010
:10095000B062B0933500B0913500B061B09335000E
:10096000B0913500B860B0933500F7DCB091350038
:10097000B77FB0933500E8DCB0913500B860B09334
:100980003500EBDCB0913500B77FB0933500DCDC8F
:10099000B0913500B860B0933500DFDCB091350020
:1009A000B77FB0933500D0DCB0913500BF7EB093F7
:1009B0003500B0913500B860B0933500CEDCB09111
:1009C0003500B77FB0933500BFDCB0913500B8601B
:1009D000B0933500C2DCB0913500B77FB0933500DD
:1009E000B0913500BF7DB0933500B0913500B0684F
:1009F000B0933500B0913500B860B0933500ADDCF0
:100A0000B0913500B77FB09335009EDCB0913500D2
:100A1000BF77B0933500B0913500B061B093350029
:100A2000B0913500B860B093350097DCB0913500D7
:100A3000B77FB0933500B0913500BF7EB0933500DD
:100A4000B0913500B860B093350087DCB0913500C7
:100A5000B77FB093350078DCB0913500B860B093C3
:100A600035007BDCB0913500B77FB0933500B09195
:100A70003500B061B0933500B0913500B860B093E7
:100A800035006BDCB0913500B77FB09335005CDC8E
:100A9000B0913500BF7EB0933500B0913500B8609D
:100AA000B09335005ADCB0913500B77FB093350074
:100AB000B0913500B068B0933500B0913500B064A6
:100AC000B0933500B0913500B062B0933500B0916D
:100AD0003500B061B0933500B0913500B860B09387
:100AE00035003BDCB0913500B77FB09335002CDC8E
:100AF000B0911A01B160B0931A010895042E152E19
:100B0000262E372E35DC002E112E222E332E089560
:100B100007B1007E022907B9B6B1B064B6B9B6B163
:100B2000B6FF02C00000FBCF24B130E005B1102FAA
:100B30000027022B132B98018901089527FAB09101
:100B40003500B7F9B093350026FAB0913500B6F903
:100B5000B093350025FAB0913500B5F9B093350062
:100B600024FAB0913500B4F9B0933500B0911A0170
:100B700000903500E894B0FF689402F800923500C8
:100B8000B0913500B860B0933500E7DBB091350027
:100B9000B77FB093350023FAB0913500B7F9B09321
:100BA000350022FAB0913500B6F9B093350021FA3C
:100BB000B0913500B5F9B093350020FAB091350009
:100BC000B4F9B0933500B0911A0100903500E89463
:100BD000B0FF689402F800923500B0913500B8601B
:100BE000B0933500BADBB0913500B77FB0933500D4
:100BF000B0911A01B0FF02C0A7DB01C0B0DB0895BD
:100C0000B0911A01BE7FB0931A0198DFB0911A011A
:100C1000B160B0931A0108952F92B1E02B1619F428
:100C2000B0E82B2E14C0B2E02B1619F4B0EC2B2E2A
:100C30000EC0B3E02B1619F4B4E92B2E08C0B4E0B3
:100C40002B1619F4B4ED2B2E02C0B0E82B2E032D79
:100C50000150020D202E202E71DFB0911A01BE7FAF
:100C6000B0931A019201F9010081002379F0F90192
:100C700000813F932F932F92202EC2DF2F902F9130
:100C80003F9189010F5F1F4F9801EDCFB0911A017D
:100C9000B160B0931A012F9008952F923F924F9216
:100CA0005F926F927F92222433DF009304011093AE
:100CB000050124E01CE004E30A95F1F71A95E1F739
:100CC0002A95D1F700000000009104011091050160
:100CD00020E017FD2FEF322F48DB43E25BED69EF99
:100CE0007EE3A2DB00930001109301012093020137
:100CF00030930301009104011091050120E017FDDC
:100D00002FEF322F00561040204030402EDB47EDB1
:100D100052E164EF70E4F2DE0093000110930101F0
:100D20002093020130930301B6E06B2EB1E07B2EDD
:100D3000532E422E312E202E65DCB6E04B2EB1E034
:100D40005B2EB1E03B2EB2E02B2E66DF12E80EEDFB
:100D50000A95F1F71A95E1F700007F906F905F9088
:100D60004F903F902F9008952F92B1E02B1619F4D9
:100D7000B0E82B2E14C0B2E02B1619F4B0EC2B2ED9
:100D80000EC0B3E02B1619F4B4E92B2E08C0B4E062
:100D90002B1619F4B4ED2B2E02C0B0E82B2E032D28
:100DA0000150020D202EB0911A01B160B0931A01CA
:100DB000202EC4DEB0911A01BE7FB0931A01242CFC
:100DC000BDDEB0911A01B160B0931A012F90089561
:100DD0002F927DDDB1E02B2EB1DEBCE02B2EAEDEFE
:100DE0002F900895B8E8B0931B01B5E0B0931C01B3
:100DF000B7E8B6B9B0E0B7B90895BFEFBDBFB0E18D
:100E0000BEBFCDB7DEB72B97CDBFDEBF21962F92E9
:100E10003F924F925F92DCDFFE01B4E5B193B5E6FD
:100E2000B193BDE6B193B0E7B193B2E7B193B1E648
:100E3000B193B4E7B193BFE6B193B2E7B193B5E62E
:100E4000B193B0E0B1938E012801B1E03B2EB1E047
:100E50002B2EE2DEBFED4B2EB9E03B2EB2E02B2E67
:100E600083DFB3E44B2EBAE03B2EB2E02B2E7CDFC7
:100E7000B9DF01E20A95F1F700000FDF22E014E08C
:100E80000BEB0A95F1F71A95E1F72A95D1F70000D7
:100E9000F4CF5F904F903F902F90FFCFFFFFFFFF69
:00000001FF
