:100000000C942A020C9400000C9400000C94000044
:100010000C9400000C9400000C9400000C94000060
:100020000C9400000C9400000C9400000C94000050
:100030000C9400000C9400000C9400000C94000040
:100040000C9400000C9400000C9400000C94000030
:100050000C9400000C9400000C9400000C94000020
:100060000C9400000C9400000C9400000C94000010
:100070000C9400000C9400000C9400000C94000000
:100080000C9400000C9400000C9400001AE303E2AE
:100090000A95F1F71A95E1F700000000089502E0D3
:1000A0000A95F1F700000000089505E80A95F1F7B8
:1000B0000000089527FAB0913500B7F9B0933500E4
:1000C00026FAB0913500B6F9B093350025FAB09113
:1000D0003500B5F9B093350024FAB0913500B4F984
:1000E000B0933500B091000100903500E894B0FF66
:1000F000689402F800923500B0913500B860B09372
:100100003500CDDFB0913500B77FB093350023FACD
:10011000B0913500B7F9B093350022FAB0913500AF
:10012000B6F9B093350021FAB0913500B5F9B09326
:10013000350020FAB0913500B4F9B0933500B09194
:10014000000100903500E894B0FF689402F8009236
:100150003500B0913500B860B0933500A0DFB091A4
:100160003500B77FB0933500B0910001B0FF02C0F9
:100170008DDF01C09ADF0895B0910001BE7FB0937A
:10018000000198DFB0910001B160B09300010895C3
:10019000B0913500B77FB0933500B0913500BB7F8B
:1001A000B0933500B0913500BF77B0933500B09172
:1001B0003500BF7BB0933500B0913500BF7DB09363
:1001C0003500B0913500BF7EB0933500B09134005A
:1001D000B860B0933400B0913400B460B093340090
:1001E000B0913400B061B0933400B0913400B0628B
:1001F000B0933400B0913400B064B0933400B09147
:100200003400B068B093340041DF40DF3FDFB0918D
:100210003500B062B0933500B0913500B061B09355
:100220003500B0913500B860B093350038DFB0913B
:100230003500B77FB093350029DFB0913500B86045
:10024000B09335002CDFB0913500B77FB093350007
:100250001DDFB0913500B860B093350020DFB0915C
:100260003500B77FB093350011DFB0913500BF7E08
:10027000B0933500B0913500B860B09335000FDF12
:10028000B0913500B77FB093350000DFB0913500F5
:10029000B860B093350003DFB0913500B77FB093FD
:1002A0003500B0913500BF7DB0933500B091350079
:1002B000B068B0933500B0913500B860B0933500A8
:1002C000EEDEB0913500B77FB0933500DFDEB09140
:1002D0003500BF77B0933500B0913500B061B09371
:1002E0003500B0913500B860B0933500D8DEB091DC
:1002F0003500B77FB0933500B0913500BF7EB09325
:100300003500B0913500B860B0933500C8DEB091CB
:100310003500B77FB0933500B9DEB0913500B860D5
:10032000B0933500BCDEB0913500B77FB093350097
:10033000B0913500B061B0933500B0913500B86030
:10034000B0933500ACDEB0913500B77FB093350087
:100350009DDEB0913500BF7EB0933500B091350081
:10036000B860B09335009BDEB0913500B77FB09395
:100370003500B0913500B068B0933500B0913500CC
:10038000B064B0933500B0913500B062B0933500E1
:10039000B0913500B061B0933500B0913500B860D0
:1003A000B09335007CDEB0913500B77FB093350057
:1003B0006DDEB0910001B160B093000108952F92FD
:1003C000B1E02B1619F4B0E82B2E14C0B2E02B16B6
:1003D00019F4B0EC2B2E0EC0B3E02B1619F4B4E9CF
:1003E0002B2E08C0B4E02B1619F4B4ED2B2E02C04E
:1003F000B0E82B2E032D0150020D202E202E5ADEA8
:10040000B0910001BE7FB09300019201F90100811B
:10041000002379F0F90100813F932F932F92202E32
:10042000ABDE2F902F913F9189010F5F1F4F9801F5
:10043000EDCFB0910001B160B09300012F9008950D
:100440002F92A6DEB1E02B2E35DEBCE02B2E32DE65
:100450002F900895BFEFBDBFB0E1BEBFCDB7DEB7EF
:100460002C97CDBFDEBF21962F923F924F925F9285
:10047000E7DFFE01B4E5B193B5E6B193BDE6B19314
:10048000B0E7B193B2E7B193B1E6B193B4E7B193FA
:10049000BFE6B193B2E7B193B5E6B193B0E0B193E3
:1004A0008E012801B1E03B2EB1E02B2E88DF12E057
:1004B00009E00A95F1F71A95E1F7FE01B4E5B19369
:1004C000B5E4B193B3E5B193B4E5B193B0E2B193C0
:1004D000B3E5B193B9E6B193BDE6B193B0E7B1939B
:1004E000BCE6B193B5E6B193B0E0B1938E012801BB
:1004F000B1E03B2EB1E02B2E62DF22E51BE200E0F3
:100500000A95F1F71A95E1F72A95D1F70000000056
:1005100000000000D2CF5F904F903F902F90FFCF10
:00000001FF
