:100000000C945D340C94FD330C9400000C940000AF
:100010000C9400000C9400000C9400000C94000060
:100020000C9400000C94E4330C9400000C94000039
:100030000C9400000C9400000C9400000C94000040
:100040000C947A3A0C9400000C9400000C9400007C
:100050000C9400000C9400000C9400000C94000020
:100060000C9400000C9400000C9400000C94000010
:100070000C9400000C9400000C9400000C94000000
:100080000C9400000C9400000C940000F5D321F0B7
:10009000662309F017D498940895F8DF09F441C055
:1000A000E62ED52EC42EB32EA22E912E802E002DFC
:1000B000112D222D332DEADF09F43DC0842F952F19
:1000C0008C199D09B9F072F49095809501964C2D8C
:1000D0005D2D883180F53595279517950795019702
:1000E000D1F708C08831E8F4B594A7949794879421
:1000F0000197D1F766272EF0080D191D2A1D3B1D0B
:1001000009C0801A910AA20AB30A082D192D2A2DB6
:100110003B2D332312F4D6D360E8A6D001C087D09C
:1001200016C0002D112D222D332DD6F78AD0C1F304
:1001300040E83427F5CF082D192D2A2D3B2D4C2DC5
:100140005D2D6E2D33235AF7BDD360E8E8CF0895B7
:10015000002E112E222E332E042F152F262F372F4F
:1001600078D000231CF40024039401C000240895D7
:10017000689493DF08953F932F931F930F93002D5F
:10018000112D222D332D78D309F44BC0E62ED52E18
:10019000C42EB32EA22E912E802E0F911F912F913F
:1001A0003F916AD361F16E254C195D0940385307C0
:1001B0003CF541387FEF57077CF180E27724632ECE
:1001C000522E412E302F222711270027000F111FFA
:1001D000221F331F441C551C661C771C28F048182E
:1001E00059086A087B0804C0480C591C6A1C7B1C0F
:1001F0000AF001608A9551F74150504035D016C041
:100200000FEF102F2FE73FE76623C9F31AD0B9F39A
:10021000342D30E83425F3CF0027102F202F302F36
:10022000EECF0F900F900F900F90EACF089509D066
:1002300039F041585F4F342F220F36952795362BD2
:100240000895002329F4112319F4222309F43323F8
:1002500008958EDF332332F0F4DF11F001E003C0A4
:10026000002701C00FEF0895ECDF11F19F938F93EA
:100270008EE790E0332351F0369527951795079533
:1002800048175907B4F44F5F5F4FF4CF80959095AE
:10029000019622239AF0000F111F221F48175907B9
:1002A0001CF041505040F5CF00271127222733275B
:1002B00008C033270FEF102F2FE7322F8F919F9118
:1002C000B6DF0895052D000F402F50E0460D571D55
:1002D000B7E0042D0695BA95E9F7202F30E0240FFA
:1002E000351F390100E010E0201731072CF440E001
:1002F00050E060E070E02CC00FEF10E0061517052D
:10030000BCF440E050E060E070E08101920116D65C
:10031000002800E009F00FEF002329F04CEC5CEC22
:100320006CE47EEF15C04CEC5CEC6CE47EE710C036
:10033000BFE74B22B7E0062D000FBA95E9F7402A38
:10034000B0E85B22830115950795502AA101B201FF
:100350008A019B01089545D219F40024039401C039
:1003600000240895042E152E262E372E04DF002E8D
:10037000112E222E332E0895152D110FB7E0042DC6
:100380000695BA95E9F7010F0E57F3010193B0E016
:1003900007FDBFEFB193BFE74B22B0E04B2AB0E8B7
:1003A0005B22BFE35B2AA101B2018A019B01089590
:1003B000082D10E0000F111F000F111FF801E60DAE
:1003C000F71D0191119121913191A801B901B0E07E
:1003D0008B1661F18F925F924F923F922F92810123
:1003E0009201A2D52F903F904F905F908F90A801DF
:1003F000B901082D0150802E10E0000F111F000FD1
:10040000111FF801E60DF71D019111912191319114
:100410008F925F924F923F922F92A3D52F903F9051
:100420004F905F908F90A801B901D1CF8A019B01B5
:100430000895CF93DF93CDB7DEB72497CDBFDEBF4E
:100440002196152D110FB7E0042D0695BA95E9F701
:10045000010F0F57202F30E007FD3FEF00E010E0C5
:1004600020173107DCF440E050E060E070E08101EB
:10047000920164D5002800E009F00FEF002341F05D
:10048000B0E0B883B983B0E8BA83BFEBBB8305C0E3
:10049000B0E0B883B983BA83BB832CC008E110E015
:1004A0000217130728F4288239824A825B8222C00D
:1004B0008101920139D36CD4088319832A833B8349
:1004C000A101B201088119812A813B8141DE002806
:1004D00000E009F00FEF002369F040E050E060E831
:1004E0007FE3088119812A813B8114D50883198310
:1004F0002A833B83088119812A813B812396CDBFC2
:10050000DEBFDF91CF910895CF93DF93CDB7DEB7F4
:10051000AF97CDBFDEBF21966F927F928F92B0E0F2
:10052000BF83B887B0E8B987BFE3BA87B8E1BB87B4
:10053000B2E7BC87B1E3BD87BFE3BE87B0EFBF873B
:10054000BDEFB88BB5E7B98BBEE3BA8BB7E4BB8B15
:10055000B8E5BC8BB3E6BD8BBDE3BE8BB8E5BF8B06
:10056000B5E9B88FBDE1B98FBCE3BA8FB2E8BB8FF4
:10057000B4ECBC8FBEEABD8FBAE3BE8FB8EABF8FC2
:10058000B8E7B8A3B1E2B9A3B9E3BAA3BFEEBBA37E
:10059000B3E9BCA3B0E8BDA3B7E3BEA3B0EABFA371
:1005A000B2E9B8A7B7EAB9A7B5E3BAA7B6E4BBA75B
:1005B000B6E5BCA7B5E1BDA7B4E3BEA75F924F9275
:1005C0003F922F928101920140E050E060E070E0A4
:1005D000C2DE002800E009F00FEF2F903F904F900F
:1005E0005F90002341F0B0E0B883B983B0E8BA83EC
:1005F000BFE3BB83E9C05F924F923F922F924EEFD1
:1006000054ED62EB72E481019201A2DD002800E06A
:1006100009F00FEF2F903F904F905F90002341F033
:10062000BCECB883B983BCE4BA83BEE7BB83CCC05F
:100630005F924F923F922F9240E55CEA6EEA72EC35
:10064000810192017BD4002800E009F00FEF2F9088
:100650003F904F905F90002331F0B0E0B883B983B2
:10066000BA83BB83B1C05F924F923F922F9240E01A
:1006700050E060E070E08101920160D4002800E069
:1006800009F00FEF2F903F904F905F90002319F0EB
:10069000BFEFBE8302C0B0E0BE830E81002389F0AD
:1006A0005F924F923F922F92A101B20100E010E0C1
:1006B00020E030E02FD42F903F904F905F901801B2
:1006C00029015F924F923F922F92810192014BE359
:1006D0005AEA68EB7FE328D42F903F904F905F90C9
:1006E000180129015F924F923F922F921801290120
:1006F000A0DE2F903F904F905F9016D20C831D8309
:1007000020E017FD2FEF322F43D35F924F923F929D
:100710002F92A801B90181019201FCD32F903F9043
:100720004F905F9018012901AE01495F5F4F5F92C2
:100730004F923F922F92B9E08B2E3A011801290176
:1007400037DE2F903F904F905F90180129015F9204
:100750004F923F922F926C807D8018012901B2DD6B
:100760002F903F904F905F90180129010E810F3F0D
:1007700039F55F924F923F922F92810192014CEC9A
:100780005CEC6CE47EE7E7DD002800E009F00FEFA9
:100790002F903F904F905F90002331F0B0E0B883EE
:1007A000B983BA83BB830BC0A101B20100E010E0A2
:1007B00020E83FE3D7DD088319832A833B8304C005
:1007C000288239824A825B82088119812A813B8191
:1007D0008F907F906F90AE96CDBFDEBFDF91CF91AF
:1007E0000895042E152E262E372E33DD002308956E
:1007F000C9019A01AB01B80197FB092E05260ED05D
:1008000057FD04D014D00AD0001C38F45095409500
:10081000309521953F4F4F4F5F4F0895F6F79095D4
:100820008095709561957F4F8F4F9F4F0895A1E2FE
:100830001A2EAA1BBB1BFD010DC0AA1FBB1FEE1F5A
:10084000FF1FA217B307E407F50720F0A21BB30BA5
:10085000E40BF50B661F771F881F991F1A9469F721
:1008600060957095809590959B01AC01BD01CF017D
:100870000895E89412DC0895E4DC79F0632F607841
:10088000220F331F432F5FE7451B55275040269506
:1008900030E8232B3327989403C044275527662735
:1008A00008959FDF19F00024039401C000240895E7
:1008B00047E16627552726F0332312F403D060E87A
:1008C000D3DC089500951095209530950F5F1F4F4C
:1008D0002F4F3F4F08950FB6BCB3B1FF02C00000C9
:1008E000FBCFF8943FBA2EBA4DBABCB3B460BCBBD0
:1008F000BCB3B260BCBB0FBE0895BEDF81F1E62E73
:10090000D52EC42EB32EA22E912E802E002D112D69
:10091000222D332DB1DF19F16E254C0D5D1D4038B0
:100920005307F4F441387FEF5707FCF088279927E5
:10093000AA27BB2770E2B695A79597958795379517
:1009400027951795079520F4880D991DAA1DBB1DA5
:100950007A9589F7032F3A2F292F182F85DC0AC0A3
:100960000FEF102F2FE73FE7FACF0027102F202F90
:10097000302FF5CF0895CF93DF93CDB7DEB7A6978D
:10098000CDBFDEBF21966F927F928F92BFEFBA8369
:10099000B6EEBB83BBEDBC83BEE2BD83B4ECBE83CD
:1009A000BFEFBF83BFE7B887BFE3B987B0E8BA87B7
:1009B000BFEEBB87BFEFBC87BEEBBD87B0E9BE878C
:1009C000B1EEBF87B9EAB88BBEE3B98BBCEEBA8B88
:1009D000B2E8BB8BB6E7BC8BBEEBBD8BB2E8BE8B7F
:1009E000BDEABF8BBBE2B88FBEE3B98FBEE0BA8F62
:1009F000BCE3BB8FB3ECBC8FBDEBBD8FB7E8BE8F44
:100A0000B1EDBF8FB3E1B8A3BDE3B9A3B1E4BAA31D
:100A1000B8E7BBA3B3EDBCA3BBEBBDA35F924F9202
:100A20003F922F9240E050E060E070E0810192013F
:100A3000B2D1002800E009F00FEF2F903F904F90C7
:100A40005F90002329F040E050E060E070E049C092
:100A50008E015F924F923F922F9238018DDC40E0E1
:100A600050E060E070E460D240E050E060E87FE396
:100A700051D22F903F904F905F90180129014881EB
:100A800059814150504048835983AE014E5F5F4FBA
:100A90005F924F923F922F92B8E08B2E3A0118014D
:100AA000290186DC2F903F904F905F90180129011B
:100AB0000881198120E017FD2FEF322F69D15F9255
:100AC0004F923F922F9248E152E761E37FE32CD2AD
:100AD0002F903F904F905F90A101B20142D2A801A8
:100AE000B9018A019B018F907F906F90A596CDBF31
:100AF000DEBFDF91CF9108959801249F8001259F4B
:100B0000100D349F100D08950FB6BCB3B1FF02C095
:100B10000000FBCFF8943FBA2EBABCB3B160BCBBA7
:100B20000FBE1DB3012F0895A7DEF1F05523C2F0CB
:100B30004F31A8F44731C1F050F44195495E05C0EA
:100B400035952795179507954A95D1F70DC04751CB
:100B5000000F111F221F331F4A95D1F705C03FE731
:100B6000232F132F032F03C0662309F0ABDE089554
:100B7000CF93DF93CDB7DEB72997CDBFDEBF2196E8
:100B8000B0E0BC839F928F927F926F925F924F9260
:100B90003F922F928301940140E050E060E070E0CA
:100BA000DADB002800E009F00FEF2F903F904F9024
:100BB0005F906F907F908F909F90002341F0B0E006
:100BC000B883B983B0E8BA83BFE3BB83D7C09F9231
:100BD0008F927F926F925F924F923F922F928101FC
:100BE000920140E050E060E070E0B5DB002800E0FA
:100BF00009F00FEF2F903F904F905F906F907F9094
:100C00008F909F90002331F0B0E0B883B983BA830E
:100C1000BB83B4C09F928F927F926F925F924F92EC
:100C20003F922F9240E050E060E070E0810192013D
:100C300085D1002800E009F00FEF2F903F904F90F2
:100C40005F906F907F908F909F90002309F456C023
:100C50008301940169DF0D831E832F83388798D029
:100C60009F928F927F926F925F924F923F922F92BC
:100C7000A301B40116DE0028B0E009F0BFEF0B2F8E
:100C80002F903F904F905F906F907F908F909F90AC
:100C9000002331F0B0E0B883B983BA83BB836EC060
:100CA0000D811E812F813885017010702070307089
:100CB000303029F4203019F4103009F4003019F0E4
:100CC000BFEFBC8302C0B0E0BC839F928F927F9243
:100CD0006F925F924F923F922F92A101B20100E07A
:100CE00010E020E030E016D12F903F904F905F90C1
:100CF0006F907F908F909F90180129019F928F9203
:100D00007F926F925F924F923F922F9234DE2F909C
:100D10003F904F905F906F907F908F909F901801C1
:100D200029015F924F923F922F92A301B401FCD010
:100D30002F903F904F905F90180129015F924F9242
:100D40003F922F9218012901DFDB2F903F904F90A7
:100D50005F90180129010C81003061F0A101B201FE
:100D600000E010E020E030E0D5D0088319832A832A
:100D70003B8304C0288239824A825B8208811981C0
:100D80002A813B812896CDBFDEBFDF91CF910895A8
:100D9000E8948EDD0895002E112E222E332E042F7E
:100DA000152F262F372F55DA00231CF0002403942B
:100DB00001C000240895CF93DF93CDB7DEB723970A
:100DC000CDBFDEBF2196B0E85B1641F4B0E04B1614
:100DD00029F4B0E03B1611F4B0E02B16D1F4F30186
:100DE000BDE2B193B2E3B193B1E3B193B4E3B19394
:100DF000B7E3B193B4E3B193B8E3B193B3E3B19381
:100E0000B6E3B193B4E3B193B8E3B193B0E0B19377
:100E10007BC0B0E0BA8300E010E020E030E02016B4
:100E200031064206530664F4BFEFBA8300E010E0D7
:100E300020E030E0021913092409350918012901BD
:100E4000F301B0E2B193B0E2B193B0E2B193B0E29A
:100E5000B193B0E2B193B0E2B193B0E2B193B0E23A
:100E6000B193B0E2B193B0E2B193B0E3B193B0E02B
:100E7000B1938301065F1F4F08831983B0E05B16AF
:100E800041F4B0E04B1629F4B0E03B1611F4B0E0A9
:100E90002B1699F17F926F925F924F923F922F9211
:100EA0004AE050E060E070E081019201A1DC8B013A
:100EB0009C012F903F904F905F90005DE881F981F9
:100EC00000835F924F923F922F924AE050E060E0A1
:100ED00070E0810192018CDC89019A012F903F9092
:100EE0004F905F906F907F901801290108811981C0
:100EF0000150104008831983C1CF0A81002321F0DB
:100F0000E881F981BDE2B0832296CDBFDEBFDF91DB
:100F1000CF910895042E152E262E372E29D9002E76
:100F2000112E222E332E0895042E152E262E372E06
:100F3000E4DC002E112E222E332E089552DC1CF4F8
:100F40000024039401C000240895F10100810030C1
:100F500011F03196FBCF8F01021913099801890115
:100F60000895042E152E262E372E83DC002E112EEA
:100F7000222E332E0895CF93DF93CDB7DEB723977C
:100F8000CDBFDEBF2196B0E0B883B0E8B983B0E052
:100F9000BA8309811A81103009F4003009F433C092
:100FA000CED7CDD7B0913400BD7FB0933400C7D732
:100FB000C6D7B0913400BE7FB0933400B091000129
:100FC000BD7FB0930001B0913300B0FD06C0B09179
:100FD0000001B1FF01C001C0F6CFB0913300B1FFF5
:100FE00004C018810981012B0883A9D7A8D7B09123
:100FF0003400B160B093340009811A8116950795C9
:1010000009831A83C6CFB0913400BD7FB0933400FA
:1010100096D795D7B0E03B1611F4B0E02B1629F027
:10102000B0913400B260B093340089D788D7B091C2
:101030003400BE7FB0933400B0910001BD7FB09307
:101040000001B0913300B0FD06C0B0910001B1FFC6
:1010500001C001C0F6CF73D772D7B0913400B16030
:10106000B09334006CD76BD7B0913400B260B093BA
:10107000340008812296CDBFDEBFDF91CF91089565
:10108000B0913400B260B093340059D758D7B091C2
:101090003400BE7FB0933400B0910001BD7FB093A7
:1010A0000001B0913300B0FD06C0B0910001B1FF66
:1010B00001C001C0F6CF43D742D741D740D73FD771
:1010C0003ED73DD73CD7B0913400BD7FB0933400BC
:1010D00036D735D70895BFE1B0930C01BCE1B0938A
:1010E0000D01BFE1B0930E01BEE1B0930F01BFE16E
:1010F000B0931001BEE1B0931101BFE1B0931201B2
:10110000BFE1B0931301BEE1B0931401BFE1B0930E
:101110001501BEE1B0931601BFE1B0931701BDE622
:10112000B0934D01B1E0B0934E01B0E0B0934F01E8
:10113000B093500144E050E000919F071091A00748
:101140000E9441128C01009358011093590144E60A
:1011500050E000919F071091A0070E9441128C015E
:10116000009324011093250140E951E000919F076D
:101170001091A0070E9441128C0100932601109348
:10118000270140915801509159012091240130913B
:101190002501242335232093200130932101303071
:1011A00009F42030B0E009F0BFEF2B2F103009F424
:1011B0000030B0E009F4BFEF0B2F022B21F0BCE1AF
:1011C000B0930D0103C0BDE1B0930D0100919F07E5
:1011D0001091A0070150104000934B0110934C0157
:1011E00044E050E00E9441128C010093580110939A
:1011F000590144E650E000914B0110914C010E94CE
:1012000041128C01009324011093250140E951E023
:1012100000914B0110914C010E9441128C010093EE
:1012200026011093270140915801509159012091B6
:10123000240130912501242335232093200130936C
:101240002101303009F42030B0E009F0BFEF2B2F3E
:10125000103009F40030B0E009F4BFEF0B2F022B7F
:1012600031F0B0910001BB7FB093000105C0B09197
:101270000001B460B09300010091AA071091AB0780
:10128000015010400093580110935901B1E0B09300
:1012900055012091550100915801109159010217F3
:1012A000B0E01B072CF12091550121500CE011E01A
:1012B000E22FF0E0E00FF11F208100914F0110912B
:1012C0005001020FB0E01B1F00934F01109350011B
:1012D00000915501209158013091590110E00217F9
:1012E000130731F0009155010F5F00935501D1CFE5
:1012F00020919D0730919E0700914F011091500160
:10130000200F311F20934F01309350010FE410E064
:10131000021713070CF0AAC020914F013091500121
:101320002F543040209358013093590100919F076A
:101330001091A0070D5612400093560110935701CB
:101340000AEB10E0201731070CF044C04FE150E0E9
:1013500000915801109159010E9441128C01009393
:101360002401109325014FE150E0009158011091A4
:1013700059010E9441128B0100932601109327010D
:101380000091240110912501103009F4003079F406
:1013900000912601109127010093510110935201F1
:1013A000BFE1B0935301B0E0B093540112C000917B
:1013B0002601109127010F5F1F4F009351011093D9
:1013C00052010091240110912501009353011093C3
:1013D00054014BC000915801109159010A5B104013
:1013E00000932401109325014EE150E00E94411228
:1013F0008C0100932601109327014EE150E00091EB
:101400002401109125010E9441128B0100932001BB
:10141000109321010091260110912701103009F449
:10142000003089F400912001109121010A5F1F4FC3
:101430000093510110935201BEE1B0935301B0E00B
:10144000B093540112C00091200110912101095F55
:101450001F4F0093510110935201009126011091EA
:10146000270100935301109354016CC000919F0712
:101470001091A0070E561240009356011093570189
:10148000B0910001B2FF0BC000914F0110915001CB
:10149000055F1F4F00934F01109350010AC0009148
:1014A0004F0110915001065F1F4F00934F011093A1
:1014B00050014EE150E000914F0110915001E1D7F1
:1014C0008C0100932401109325014EE150E000911E
:1014D0004F0110915001D5D78B0100932601109335
:1014E00027010091240110912501103009F40030EA
:1014F00089F40091260110912701075F1F4F009387
:10150000510110935201BEE1B0935301B0E0B0938A
:10151000540112C00091260110912701065F1F4F50
:101520000093510110935201009124011091250163
:1015300000935301109354011BE003E60A95F1F761
:101540001A95E1F7089500919B070077102F1695E3
:101550001695169516950AE0109F102D00919B0781
:101560000F70010F00939B0700919707007F102FCA
:1015700016951695169516950AE0109F102D009158
:1015800097070F70010F009397070091980700735A
:10159000102F16951695169516950AE0109F102D8A
:1015A000009198070F70010F00939807009194071E
:1015B0000770009394070091AC07007F102F1695D9
:1015C0001695169516950AE0109F102D0091AC0700
:1015D0000F70010F0093AC070091A9070071102F45
:1015E00016951695169516950AE0109F102D0091E8
:1015F000A9070F70010F0093A90700919C07007FB6
:10160000102F16951695169516950AE0109F102D19
:1016100000919C070F70010F00939C070895CF93D2
:10162000DF93CDB7DEB72C97CDBFDEBF21962F92CB
:101630003F924F92B0E0B883B983B2E0B093940781
:10164000B1E0B0939507B0E0B0939607B1E0B093E6
:101650007201B0E0B0937301B1E0BA83B0E0BB8334
:10166000088119810F5F1F4F0A871B87009194071C
:10167000015010E040EE50E03FDA24E731E0020F85
:10168000131F4091720141500887198700E710E04D
:1016900050E032DA28853985200F311F00919507F7
:1016A000015010E0000F111F000F111F000F111F3C
:1016B000000F111F200F311F0A81015010E0000F91
:1016C000111F000F111F000F111FF801E20FF31F70
:1016D00020810A851B85422E1801FDD808811981B9
:1016E0000F5F1F4F0F5F1F4F0A871B8700919407E3
:1016F000015010E040EE50E0FFD924E731E0020F46
:10170000131F4091720141500887198700E710E0CC
:1017100050E0F2D928853985200F311F00919507B7
:10172000015010E0000F111F000F111F000F111FBB
:10173000000F111F200F311F0A81015010E0000F10
:10174000111F000F111F000F111F020F131FF801AF
:10175000329620810A851B85422E1801BCD808814B
:1017600019810F5F1F4F0E5F1F4F0A871B87009164
:101770009407015010E040EE50E0BED924E731E07C
:10178000020F131F4091720141500887198700E72B
:1017900010E050E0B1D928853985200F311F009124
:1017A0009507015010E0000F111F000F111F000FCF
:1017B000111F000F111F200F311F0A81015010E06F
:1017C000000F111F000F111F000F111F020F131F19
:1017D000F801349620810A851B85422E18017BD89A
:1017E000088119810F5F1F4F0D5F1F4F0A871B87ED
:1017F00000919407015010E040EE50E07DD924E7BD
:1018000031E0020F131F4091720141500887198780
:1018100000E710E050E070D928853985200F311F8E
:1018200000919507015010E0000F111F000F111FCC
:10183000000F111F000F111F200F311F0A810150CF
:1018400010E0000F111F000F111F000F111F020FDA
:10185000131FF801369620810A851B85422E180138
:101860003AD8088119810C5F1F4F088319830A81B8
:101870001B81103009F4023039F00A811B810F5F9F
:101880001F4F0A831B83ECCE0091720110917301EC
:10189000103009F4033059F0009172011091730176
:1018A0000F5F1F4F0093720110937301D5CE00910B
:1018B000950710919607103009F4073059F0009100
:1018C0009507109196070F5F1F4F00939507109390
:1018D0009607BCCE00919407023031F00091940736
:1018E0000F5F00939407ACCE4F903F902F902B96B4
:1018F000CDBFDEBFDF91CF910895992779E004C075
:10190000991F941708F0941B001F7A95C9F700954A
:101910000895CF93DF93CDB7DEB72397CDBFDEBF5A
:101920002196B1E0B883B0E8B983B0E0BA83098109
:101930001A81103009F4003009F43BC000D3FFD203
:10194000FED2FDD2B0913400B160B0933400F7D232
:10195000F6D209811A8102211070103009F400308A
:1019600031F0B0913400BD7FB093340005C0B09128
:101970003400B260B0933400E2D2E1D2B0913400CE
:10198000BE7FB0933400B0910001BD7FB0930001E1
:10199000B0913300B0FD06C0B0910001B1FF01C0AD
:1019A00001C0F6CF09811A811695079509831A831C
:1019B000BECFB0E0B883C3D2C2D2B0913400B16020
:1019C000B0933400BCD2BBD2B0913400BD7FB09391
:1019D0003400B5D2B4D2B3D2B2D2B0913400BE7F0B
:1019E000B0933400B0910001BD7FB0930001B0917D
:1019F0003300B0FD06C0B0910001B1FF01C001C0CD
:101A0000F6CFB0E0B8839BD29AD2B0913300B1FF49
:101A100003C008810160088392D291D290D28FD204
:101A20008ED28DD28CD28BD28AD289D288D287D2D2
:101A300086D285D284D283D2B0913400B160B09383
:101A40003400B0913400B260B09334000881229623
:101A5000CDBFDEBFDF91CF910895B0913400BD7F3F
:101A6000B09334006CD26BD2B0913400BE7FB0938F
:101A7000340065D264D2B0913400B260B0933400C7
:101A80005ED25DD2B0913400B160B093340008955D
:101A9000CF93DF93CDB7DEB76297CDBFDEBF219680
:101AA000B0915A01B860B0935A01B0910001BF7D66
:101AB000B0930001B0915A01B3FF3BC27F926F9285
:101AC0005F924F923F922F9266245524B5E04B2EA1
:101AD000BBE32B2EB0E03B2E0E94CD252F903F90F4
:101AE0004F905F906F907F90002329F0B0915A0142
:101AF000B064B0935A017F926F925F924F923F927F
:101B00002F92B1E06B2E5524B5E04B2EB9E32B2E6E
:101B1000B0E03B2E0E94CD252F903F904F905F90DC
:101B20006F907F9000905A01112706FC13950123B6
:101B300009F44FC02414350411F4130104C08101C9
:101B40000F5F1F4F18017F926F925F924F923F92EB
:101B50002F920E94C3262F903F903F922F92B5E084
:101B60004B2EB1E05B2E0E948F1EB5E04B2EB1E0F4
:101B70005B2EB9E03B2EB2E02B2E0E94E61CFE014C
:101B8000B6E5B193B1E6B193BCE6B193B5E7B193D5
:101B9000B5E6B193B0E2B193BAE3B193B0E2B193D9
:101BA000B0E0B1938E012801B5E03B2EB2E02B2EC0
:101BB0000E94E61C2F903F904F905F906F907F9017
:101BC00025E01FE002EF0A95F1F71A95E1F72A9553
:101BD000D1F7B0915A01B064B0935A017F926F92DD
:101BE0005F924F923F922F9266245524B4E04B2E81
:101BF000BBE32B2EB0E03B2E0E94CD252F903F90D3
:101C00004F905F906F907F90002329F0B0915A0120
:101C1000B064B0935A017F926F925F924F923F925D
:101C20002F92B1E06B2E5524B4E04B2EB9E32B2E4E
:101C3000B0E03B2E0E94CD252F903F904F905F90BB
:101C40006F907F9000905A01112706FC1395012395
:101C500009F44FC02614370411F4120104C08101A5
:101C60000150104018017F926F925F924F923F9205
:101C70002F920E94C3262F903F903F922F92B5E063
:101C80004B2EB1E05B2E0E948F1EB5E04B2EB1E0D3
:101C90005B2EBBE03B2EB2E02B2E0E94E61CFE0129
:101CA000B6E5B193B1E6B193BCE6B193B5E7B193B4
:101CB000B5E6B193B0E2B193BAE3B193B0E2B193B8
:101CC000B0E0B1938E012801B5E03B2EB2E02B2E9F
:101CD0000E94E61C2F903F904F905F906F907F90F6
:101CE00025E01FE002EF0A95F1F71A95E1F72A9532
:101CF000D1F72092A1073092A2077F926F925F9254
:101D00004F923F922F92662455244424B0E32B2E09
:101D1000B0E03B2E0E94CD252F903F904F905F90DA
:101D20006F907F90003029F0B0910001B062B093C5
:101D300000017F926F925F924F923F922F92B1E09B
:101D40006B2E55244424B0E32B2EB0E03B2E0E9492
:101D5000CD252F903F904F905F906F907F90009097
:101D60000001112705FC1395012309F44EC0B09121
:101D70000001BF7DB0930001B0915A01B77FB093CD
:101D80005A017F926F925F924F923F922F920E94E0
:101D9000C326FE01B5E4B193B8E7B193B9E6B193B8
:101DA000B4E7B193B0E2B193BEE4B193BFE6B193AF
:101DB000B0E2B193B3E7B193B1E6B193B6E7B193B3
:101DC000B5E6B193B0E2B193B1E2B193B1E2B193B0
:101DD000B1E2B193B0E2B193B0E0B1938E012801CA
:101DE000B1E03B2EB2E02B2E0E94E61C2F903F90DC
:101DF0004F905F906F907F9025E01FE002EF0A9573
:101E0000F1F71A95E1F72A95D1F77F926F925F92D9
:101E10004F923F922F9266245524B6E04B2EB9E3A1
:101E20002B2EB0E03B2E0E94CD252F903F904F905F
:101E30005F906F907F90003029F0B0915A01B064AC
:101E4000B0935A0110905A0100905A014E7F13FC32
:101E500006FE01C041607F926F925F924F923F9267
:101E60002F92B1E06B2E5524B6E04B2EB9E32B2E0A
:101E7000B0E03B2E0E94CD252F903F904F905F9079
:101E80006F907F90112740FD1395012309F44CC0FA
:101E9000B0915A01B77FB0935A01B0915A01BF7BFC
:101EA000B0935A017F926F925F924F923F922F921E
:101EB000B5E04B2EB1E05B2E2090A1073090A20739
:101EC0000E948F1EB5E04B2EB1E05B2EBBE03B2E97
:101ED000B2E02B2E0E94E61CFE01B6E5B193B1E6FE
:101EE000B193BCE6B193B5E7B193B5E6B193B0E277
:101EF000B193BAE3B193B0E0B1938E012801B5E09C
:101F00003B2EB2E02B2E0E94E61C2F903F904F906C
:101F10005F906F907F9025E01FE002EF0A95F1F748
:101F20001A95E1F72A95D1F72092A1073092A207DE
:101F3000C1CD6196CDBFDEBFDF91CF91089502E0A4
:101F40000A95F1F70000000008952F928F927F927A
:101F50006F925F924F923F922F927FDDB0ED2B2ECA
:101F6000D8DC2224D6DCB0E82B2ED3DC2F903F9097
:101F70002F92232CCEDC2F90CCDC4F905F906F9073
:101F80005F924F92262CC5DC4F905F904F92252C8C
:101F9000C0DC4F907F904F92272CBBDC4F908F90EE
:101FA0004F92282CB6DC6CD858DDB0ED2B2EB1DC6E
:101FB0002224AFDC4F90042D0070202EAADC60D8C4
:101FC0002F900895CF93DF93CDB7DEB72497CDBF81
:101FD000DEBF2196152D110FB7E0042D0695BA9599
:101FE000E9F7010F0F57202F30E007FD3FEF00E02A
:101FF00010E020173107E4F440E050E060E070E0CA
:10200000810192010E94CB06002800E009F00FEF49
:10201000002331F0B0E0B883B983BA83BB8307C033
:10202000B0E0B883B983B0E8BA83BFE3BB832EC006
:1020300008E1021728F4288239824A825B8226C08E
:10204000810192010E9494050E94C80608831983A9
:102050002A833B83A101B201088119812A813B8136
:102060000E949E07002800E009F00FEF002371F0A6
:10207000088119812A813B8140E050E060E87FE3DC
:102080000E94B107088319832A833B830881198141
:102090002A813B812396CDBFDEBFDF91CF9108958A
:1020A000CF93DF93CDB7DEB725962F923F9208816D
:1020B0001981088319830A811B810A831B830C8180
:1020C0001D810C831D839F928F927F926F925F92EE
:1020D0004F923F922F92C1DCB0ED2B2E1ADC2224BE
:1020E00018DCBBDCB1ED2B2E14DCB1E02B2EB0E004
:1020F0003B2E0E94BB072F903F904F905F906F90B8
:102100007F90F30100835F924F923F922F92B1E054
:102110002B2EB0E03B2E0E94BB072F903F904F909C
:102120005F90F20100833F922F92B1E02B2EB0E03E
:102130003B2E0E94BB072F903F90F1010083B1E03E
:102140002B2EB0E03B2E0E94BB07E881F981008373
:10215000B1E02B2EB0E03B2E0E94BB078F909F90EA
:10216000F4010083B1E02B2EB0E03B2E0E94BB07B0
:10217000EA81FB810083222433240E94BB07EC8187
:10218000FD8100830E9440083F902F90DF91CF9106
:102190000895CF93DF93CDB7DEB7A197CDBFDEBF54
:1021A0002196B0E0BE8F810192010E9494050883C0
:1021B00019832A833B835F924F923F922F9240E094
:1021C00050E060E070E0810192010E949E070028CB
:1021D00000E009F00FEF2F903F904F905F900023A9
:1021E00011F0BFEFBE8F8E010A5F1F4F7F926F927B
:1021F0005F924F923F922F923801288039804A8017
:102200005B800E94DB062F903F904F905F906F9015
:102210007F90088119812A813B810E94C8065F92C4
:102220004F923F922F92A801B901810192010E9421
:102230008A0740E050E563EC77E40E9494072F9012
:102240003F904F905F900E949405088319832A83E2
:102250003B8340E050E060E070E00417150726077C
:10226000370784F40880198000E010E00019110994
:102270000A801B8020E030E020093109088319839F
:102280002A833B838E010E5E1F4F7F926F925F9277
:102290004F923F922F923801288039804A805B808C
:1022A0000E94DB062F903F904F905F906F907F9041
:1022B00040E050E0B0E0BC83BD83F301B0E2B193F5
:1022C000B0E2B193B0E2B193B0E2B193B0E2B193B6
:1022D000B0E2B193B0E2B193B0E2B193B0E2B193A6
:1022E000B0E2B193B0E3B193B0E0B1935F934F9399
:1022F000810192010E949405303029F4203019F4B4
:10230000103009F40030B0E009F4BFEF0B2F08A340
:1023100040E050E060E070E0810192010E949E0781
:10232000002800E009F00FEF4F915F9118A1012301
:10233000002341F0F301BDE2B08311E020E0412F22
:10234000522F00C02E81203281F40C811D81980112
:102350002F5F3F4F2C833D838E010A5F1F4FF90192
:10236000E00FF11F0081202FEECF022F0030D1F0BF
:10237000FA01E60DF71D00830C811D8198012F5F86
:102380003F4F2C833D838A010F5F1F4FB8018E01A1
:102390000A5F1F4FF901E00FF11F0081202F022F6C
:1023A000AB01E4CF0E8D003010E009F41FEF503088
:1023B00009F4403000E009F40FEF012351F0FA0175
:1023C000E60DF71DB0E3B0838A010F5F1F4F980140
:1023D00001C09A01303009F4213010E009F41FEFF8
:1023E0000E8D012359F0F901E60DF71DB0E3B0831E
:1023F00089010F5F1F4FA8019A0100C0F901E60D86
:10240000F71DBEE2B08389010F5F1F4FA801B6E040
:10241000BC83B0E0BD83288D2030F9F0203219F460
:1024200020E3022F01C0022FFA01E60DF71D008301
:102430000C811D8198012F5F3F4F2C833D838A01C2
:102440000F5F1F4FB8018E010E5E1F4FF901E00FA5
:10245000F11F0081AB01202FDFCFFA01E60DF71D40
:10246000B0E0B083A096CDBFDEBFDF91CF910895DD
:102470001AE303E20A95F1F71A95E1F7000000006C
:102480000895C801BA0197FB092E07260AD077FDE7
:1024900004D00CD006D000201AF4709561957F4FBF
:1024A0000895F6F7909581959F4F0895AA1BBB1B41
:1024B00051E107C0AA1FBB1FA617B70710F0A61B44
:1024C000B70B881F991F5A95A9F780959095BC0165
:1024D000CD0108950895B0913500B77FB0933500D0
:1024E000B0913500BB7FB0933500B0913500BF7718
:1024F000B0933500B0913500BF7BB0933500B091FB
:102500003500BF7DB0933500B0913500BF7EB093EC
:102510003500B0913400B860B0933400B09134000D
:10252000B460B0933400B0913400B061B093340023
:10253000B0913400B062B0933400B0913400B06414
:10254000B0933400B0913400B068B093340090DFA1
:102550008FDF8EDFB0913500B062B0933500B0915F
:102560003500B061B0933500B0913500B860B093DC
:102570003500E5DCB0913500B77FB093350078DFEA
:10258000B0913500B860B0933500D9DCB09135001A
:10259000B77FB09335006CDFB0913500B860B09371
:1025A0003500CDDCB0913500B77FB093350060DFEA
:1025B000B0913500BF7EB0933500B0913500B86062
:1025C000B0933500BCDCB0913500B77FB0933500D7
:1025D0004FDFB0913500B860B0933500B0DCB091FA
:1025E0003500B77FB0933500B0913500BF7DB09313
:1025F0003500B0913500B068B0933500B09135002A
:10260000B860B09335009BDCB0913500B77FB093D4
:1026100035002EDFB0913500BF77B0933500B09113
:102620003500B061B0933500B0913500B860B0931B
:10263000350085DCB0913500B77FB0933500B0919F
:102640003500BF7EB0933500B0913500B860B093CF
:10265000350075DCB0913500B77FB093350008DFE9
:10266000B0913500B860B093350069DCB0913500A9
:10267000B77FB0933500B0913500B061B0933500AD
:10268000B0913500B860B093350059DCB091350099
:10269000B77FB0933500ECDEB0913500BF7EB093CC
:1026A0003500B0913500B860B093350048DCB0918A
:1026B0003500B77FB0933500B0913500B068B09366
:1026C0003500B0913500B064B0933500B09135005D
:1026D000B062B0933500B0913500B061B093350071
:1026E000B0913500B860B093350029DCB091350069
:1026F000B77FB0933500BCDEB0910001B160B093FC
:1027000000010895CF93DF93CDB7DEB76F97CDBFAC
:10271000DEBF21962F923F924F925F926F927F92EF
:102720008F929F92B0910001BF7DB0930001B2E003
:10273000B0939407B1E0B0937201B0E0B09373012D
:10274000B1E0B0939507B0E0B0939607B0E0B093D6
:102750009807B0E0B0939707B0915A01BF7BB09350
:102760005A01B0E0BA83BB83B0915A01BF7DB093E8
:102770005A01B0915A01B068B0935A01B0E0B883E1
:10278000B983B0E0B0930101B0930201B1E0B0931E
:102790007201B0E0B09373010E94C326BCEA8B2E95
:1027A000B7E09B2EBBE96B2EB7E07B2EB7E94B2E33
:1027B000B7E05B2EB8E92B2EB7E03B2EB7E0BF9316
:1027C000BCE9BF93B7E0BF93B9EABF93B7E0BF934B
:1027D000B4E9BF9365DCADB7BEB71696ADBFBEBF5B
:1027E0000E94A30AB0915A01B7FFBEC566245524C2
:1027F0004424B0E32B2EB0E03B2E0E94CD250030C8
:1028000029F0B0910001B062B0930001B1E06B2EED
:1028100055244424B0E32B2EB0E03B2E0E94CD255E
:1028200000900001112705FC1395012309F457C0FE
:10283000B0910001BF7DB0930001B0915A01B06228
:10284000B0935A01088119810F5F1F4F08831983C4
:10285000103009F40A3021F4B1E0B883B0E0B98354
:10286000B5E04B2EB1E05B2E288039800E948F1E90
:10287000B5E04B2EB1E05B2EB9E03B2EB2E02B2E43
:102880000E94E61CFE013696B0E5B193BFE6B19317
:10289000B3E7B193B9E6B193B4E7B193B9E6B193B5
:1028A000BFE6B193BEE6B193B0E2B193BAE3B193A0
:1028B000B0E2B193B0E0B1938E010A5F1F4F2801DF
:1028C000B1E03B2EB2E02B2E0E94E61C25E01FE07B
:1028D00002EF0A95F1F71A95E1F72A95D1F76624E8
:1028E0005524B6E04B2EB9E32B2EB0E03B2E0E94D0
:1028F000CD25003029F0B0915A01B064B0935A014F
:1029000010905A0100905A016E7F15FC06FE01C01E
:102910006160B1E06B2E5524B6E04B2EB9E32B2E4F
:10292000B0E03B2E0E94CD25112760FD13950123B9
:1029300009F419C5B0915A01BF7BB0935A010881BF
:102940001981103009F4013009F0BAC0E3EAF7E068
:10295000BFE4B193BEE6B193B0E2B193B1E6B193F7
:10296000BEE6B193B4E6B193B0E2B193BFE4B193E4
:10297000B6E6B193B6E6B193B0E0B193662477249E
:10298000B1E04B2EB0E05B2E2090010130900201AF
:10299000B2D60091A1070D8300919407015010E079
:1029A00040EE50E00E947C0524E731E0020F131F47
:1029B0004091720141500D8F1E8F00E710E050E0F2
:1029C0000E947C052D8D3E8D200F311F00919507B3
:1029D000015010E0000F111F000F111F000F111FF9
:1029E000000F111F200F311F00919907015010E0B7
:1029F000000F111F000F111F000F111FF801E20F30
:102A0000F31F0D810193B0E0B19300919407015041
:102A100010E040EE50E00E947C0524E731E0020F18
:102A2000131F4091720141500D8F1E8F00E710E07F
:102A300050E00E947C052D8D3E8D200F311F0091AE
:102A40009507015010E0000F111F000F111F000F1C
:102A5000111F000F111F200F311F00919907015006
:102A600010E0000F111F000F111F000F111FF801C0
:102A7000E20FF31F01911191B5E04B2EB1E05B2EF7
:102A800018010E948F1EB5E04B2EB1E05B2EBBE01B
:102A90003B2EB2E02B2E9AD7B5E04B2EB1E05B2E49
:102AA00020907201309073010E948F1EB5E04B2E72
:102AB000B1E05B2EB1E03B2EB2E02B2E87D74AC4AB
:102AC00008811981103009F40230F1F4E3EAF7E0EB
:102AD000B7E7B193B5E6B193B5E6B193BBE6B19371
:102AE000B0E0B193B1E06B2EB0E07B2EB7E04B2E9F
:102AF000B0E05B2E20909407B0E03B2EFCD5009117
:102B0000A1070093940726C408811981103009F4A5
:102B1000033031F5E3EAF7E0B3E4B193B8E6B193FB
:102B2000B1E6B193BEE6B193B5E6B193BCE6B1931D
:102B3000B0E0B193B1E06B2EB0E07B2EB5E04B2E50
:102B4000B0E05B2E2090720130907301D4D50091DB
:102B5000A1071091A2070093720110937301FAC3A9
:102B600008811981103009F4043009F08EC0E3EABD
:102B7000F7E0B8E6B193BFE6B193B5E7B193B2E73A
:102B8000B193B3E7B193B0E0B193009194070150D2
:102B900010E040EE50E00E947C0524E731E0020F97
:102BA000131F4091720141500D8F1E8F00E710E0FE
:102BB00050E00E947C052D8D3E8D200F311F00912D
:102BC0009507015010E0000F111F000F111F000F9B
:102BD000111F000F111F200F311F00919907015085
:102BE00010E0000F111F000F111F000F111F020F27
:102BF000131FF80132960191119166247724B7E1F1
:102C00004B2EB0E05B2E180176D50091A107009302
:102C1000980700919407015010E040EE50E00E94A8
:102C20007C0524E731E0020F131F409172014150EF
:102C30000D8F1E8F00E710E050E00E947C052D8D67
:102C40003E8D200F311F00919507015010E0000FBD
:102C5000111F000F111F000F111F000F111F200F58
:102C6000311F00919907015010E0000F111F000F54
:102C7000111F000F111F020F131FF8013296009150
:102C800098070193B0E0B19365C3088119811030B2
:102C900009F4053009F090C0E3EAF7E0BDE6B1932E
:102CA000B9E6B193BEE6B193B5E7B193B4E7B1939A
:102CB000B5E6B193B3E7B193B0E0B1930091940757
:102CC000015010E040EE50E00E947C0524E731E026
:102CD000020F131F4091720141500D8F1E8F00E7AC
:102CE00010E050E00E947C052D8D3E8D200F311F9D
:102CF00000919507015010E0000F111F000F111FE8
:102D0000000F111F000F111F200F311F0091990795
:102D1000015010E0000F111F000F111F000F111FB5
:102D2000020F131FF8013496019111916624772444
:102D3000BBE34B2EB0E05B2E1801DDD40091A10760
:102D40000C8300919407015010E040EE50E00E9487
:102D50007C0524E731E0020F131F409172014150BE
:102D60000D8F1E8F00E710E050E00E947C052D8D36
:102D70003E8D200F311F00919507015010E0000F8C
:102D8000111F000F111F000F111F000F111F200F27
:102D9000311F00919907015010E0000F111F000F23
:102DA000111F000F111F020F131FF80134960C8121
:102DB0000193B0E0B193CEC208811981103009F4BB
:102DC0000630D1F5E3EAF7E0B0E5B193B7E5B193AA
:102DD000BDE4B193B0E2B193B3E4B193B8E6B1937B
:102DE000B1E6B193BEE6B193B5E6B193BCE6B1935B
:102DF000B0E2B193B3E6B193BFE6B193BCE6B19351
:102E0000BFE6B193B2E7B193B0E0B193B1E06B2EFE
:102E1000B0E07B2EB7E04B2EB0E05B2E2090950704
:102E20003090960768D40091A1071091A2070093F3
:102E30009507109396078EC208811981103009F406
:102E4000073009F097C0E3EAF7E0B0E5B193B7E5E2
:102E5000B193BDE4B193B0E2B193B0E5B193B2E701
:102E6000B193B5E6B193B3E6B193B5E6B193BEE6DF
:102E7000B193B4E7B193B0E0B193009194070150DE
:102E800010E040EE50E00E947C0524E731E0020FA4
:102E9000131F4091720141500D8F1E8F00E710E00B
:102EA00050E00E947C052D8D3E8D200F311F00913A
:102EB0009507015010E0000F111F000F111F000FA8
:102EC000111F000F111F200F311F00919907015092
:102ED00010E0000F111F000F111F000F111F020F34
:102EE000131FF80136960191119166247724B4E6F8
:102EF0004B2EB0E05B2E1801FED3009194070150D9
:102F000010E040EE50E00E947C0524E731E0020F23
:102F1000131F4091720141500D8F1E8F00E710E08A
:102F200050E00E947C052D8D3E8D200F311F0091B9
:102F30009507015010E0000F111F000F111F000F27
:102F4000111F000F111F200F311F00919907015011
:102F500010E0000F111F000F111F000F111F020FB3
:102F6000131FF80136960091A1071091A207019353
:102F70001193F0C108811981103009F4083009F06B
:102F8000AAC1E3EAF7E0BCE3B193B3E5B193B1E6DC
:102F9000B193B6E7B193B5E6B193BEE3B193B0E2B6
:102FA000B193B1E6B193BEE6B193B4E6B193B0E2AA
:102FB000B193B5E4B193B8E7B193B9E6B193B4E78F
:102FC000B193B0E0B19366247724B1E04B2EB0E02A
:102FD0005B2E2A803B808FD30091A1071091A2071E
:102FE0000A831B83103009F4013009F073C1B091DA
:102FF0005A01BF77B0935A010E94C326FE0136964C
:10300000BFE6B193BEE6B193BFE5B193B1E6B1932C
:10301000BFE5B193B0E3B193BDE3B193BFE6B19324
:10302000BEE6B193BFE5B193B1E6B193B0E2B1931F
:10303000B0E2B193B2E3B193B0E0B1938E010A5F15
:103040001F4F2801B1E03B2EB2E02B2EBFD40091E0
:103050009407015010E040EE50E00E947C0524E708
:1030600031E0020F131F4091720141500D8F1E8FEE
:1030700000E710E050E00E947C052D8D3E8D200F72
:10308000311F00919507015010E0000F111F000F34
:10309000111F000F111F000F111F200F311F009172
:1030A0009907015010E0000F111F000F111F000FB2
:1030B000111FF801E20FF31F01911191B5E04B2EA2
:1030C000B1E05B2E18012BD6B5E04B2EB1E05B2EA4
:1030D000BBE03B2EB1E02B2E79D4B5E04B2EB1E016
:1030E0005B2E209072013090730119D6B5E04B2E03
:1030F000B1E05B2EB1E03B2EB2E02B2E67D4FE0197
:103100003696B5E4B193BEE6B193B4E6B193B0E2BE
:10311000B193BFE6B193B6E6B193B0E2B193B3E732
:10312000B193B1E6B193B6E7B193B5E6B193B0E030
:10313000B1938E010A5F1F4F2801B1E03B2EB2E030
:103140002B2E44D40E940F0B222433240E9484058A
:103150000A3709F04BC0FE013696B5E4B193B5E4E9
:10316000B193B0E7B193B2E7B193BFE6B193BDE6D7
:10317000B193B0E2B193B0E2B193B7E7B193B2E7E4
:10318000B193B9E6B193B4E7B193B5E6B193B4E6C0
:10319000B193B0E2B193B2E6B193B5E6B193B6E6BE
:1031A000B193BFE6B193B2E7B193B0E0B1938E01B2
:1031B0000A5F1F4F2801B1E03B2EB1E02B2E06D451
:1031C000222433240E948405B5E04B2EB1E05B2E0F
:1031D000202EB0E03B2EA3D5B5E04B2EB1E05B2E08
:1031E000B1E03B2EB2E02B2EF1D327C0BAE74B2E35
:1031F000222433240E946B04FE013696BEE6B1936E
:10320000BFE6B193B4E7B193B0E2B193B7E7B1933E
:10321000B2E7B193B9E6B193B4E7B193B5E6B19330
:10322000B4E6B193B0E0B1938E010A5F1F4F28015D
:10323000B1E03B2EB1E02B2EC9D325E11BE40FEB0F
:103240000A95F1F71A95E1F72A95D1F700000E9447
:10325000C326B4E02B2EB0E03B2E0E948405B5E0DF
:103260004B2EB1E05B2E202EB0E03B2E58D5FE0158
:103270003696B5E4B193B5E4B193B0E7B193B2E754
:10328000B193BFE6B193BDE6B193B0E2B193B0E3C1
:10329000B193B4E3B193B0E0B1938E010A5F1F4FD5
:1032A0002801B1E03B2EB1E02B2E90D3B5E04B2EA0
:1032B000B1E05B2EB1E03B2EB2E02B2E87D32DE3A5
:1032C00011EE00E40A95F1F71A95E1F72A95D1F786
:1032D000000000003FC008811981103009F4093056
:1032E000C9F5E3EAF7E0BCE3B193B5E4B193B8E71D
:1032F000B193B9E6B193B4E7B193BEE3B193B0E251
:10330000B193BEE4B193BFE6B193B0E2B193B3E73A
:10331000B193B1E6B193B6E7B193B5E6B193B0E03E
:10332000B19366247724B1E04B2EB0E05B2E2A8067
:103330003B80E1D10091A1071091A2070A831B8372
:10334000103009F4013029F4B0915A01BF77B093DD
:103350005A0100C025E01FE002EF0A95F1F71A9527
:10336000E1F72A95D1F73ECAFE013696B5E4B1934E
:10337000BEE6B193B4E6B193B0E2B193BFE6B193C8
:10338000B6E6B193B0E2B193B7E7B193B8E6B193C3
:10339000B9E6B193BCE6B193B5E6B193B0E2B193AF
:1033A000BFE6B193BBE6B193B0E0B1938E010A5F83
:1033B0001F4F2801B1E03B2EB2E02B2E07D325E1B1
:1033C0001BE40FEB0A95F1F71A95E1F72A95D1F76F
:1033D00000009F908F907F906F905F904F903F90F4
:1033E0002F906E96CDBFDEBFDF91CF910895B09143
:1033F0000001BE7FB09300012AD3B0910001B160FB
:10340000B09300010895CF93DF93CDB7DEB76C97EB
:10341000CDBFDEBF21962F923F924F925F926F9267
:103420007F928F929F92B0E0B0931D01B0931E01E6
:10343000B0E0BE83BF83B1E0B887B0E0B987B8E140
:103440002B2EB1E03B2E0E94A507902FA12FB0E0BC
:10345000BA83BB83B0E0BC83BD83592F6A2F515020
:1034600060400C811D81501761070CF443C028E1B6
:1034700031E00C811D81F801E20FF31F2081022F42
:1034800010E000531040088319832E3221F4B1E07C
:10349000BE83B0E0BF833881498100E010E030177F
:1034A000410720E00CF02FEF09E010E003171407AC
:1034B000B0E00CF0BFEF0B2F20230E811F811030E6
:1034C00009F40030B0E009F4BFEF0B2F022331F014
:1034D0000A811B810F5F1F4F0A831B830C811D8193
:1034E0000517160739F00C811D810F5F1F4F0C83E4
:1034F0001D83B3CFB0E0BC83BD832A813B812150C3
:1035000030402A8F3B8F0C811D81201731070CF42E
:103510007CC028E131E00C811D81F801E20FF31F2E
:103520000081302F40E0305340403883498300E031
:1035300010E03017410720E00CF02FEF09E010E019
:1035400003171407B0E00CF0BFEF0B2F022309F4B0
:103550004EC008841984B0E017FCBFEF0A811B81BC
:1035600020E017FD2FEF322F001911092B0B3B0B19
:103570000E94C80638014901B0E02B2E3B2EB0E274
:103580004B2EB1E45B2E0E94B8050E8B1F8B288F4B
:10359000398F0881198120E017FD2FEF322F0E940B
:1035A000C8064E895F89688D798D0E9494070E8BBD
:1035B0001F8B288F398F00911D0110911E0120E073
:1035C00017FD2FEF322F0E94C8064E895F89688D44
:1035D000798D0E94B1070E94940500931D011093FC
:1035E0001E01088519850F5F1F4F088719872C81D9
:1035F0003D810A8D1B8D2017310739F00C811D810B
:103600000F5F1F4F0C831D8378CF9F908F907F900B
:103610006F905F904F903F902F906B96CDBFDEBF25
:10362000DF91CF91089568940E945804089505E8A9
:103630000A95F1F7000008952F92B1E02B1619F4C6
:10364000B0E82B2E14C0B2E02B1619F4B0EC2B2EE0
:103650000EC0B3E02B1619F4B4E92B2E08C0B4E069
:103660002B1619F4B4ED2B2E02C0B0E82B2E032D2F
:103670000150020D202EB0910001B160B093000105
:10368000202EE5D1B0910001BE7FB0930001242C23
:10369000DED1B0910001B160B09300012F90089588
:1036A000C801BA01AA1BBB1B51E107C0AA1FBB1F5F
:1036B000A617B70710F0A61BB70B881F991F5A95BE
:1036C000A9F780959095089509E0021580F44AE0E5
:1036D000022D0E947D0C000F000F000F000F102F15
:1036E0004AE0022D0E947D0C092F012B01C0022D02
:1036F000102F012F0895CF93DF93CDB7DEB7289712
:10370000CDBFDEBF21962F923F924F925F927F9264
:103710006F925F924F923F922F920E94C326BEE516
:10372000B0935F01B0E0B0936001B5E04B2EB1E023
:103730005B2EBEE52B2EB0E03B2EF1D2B5E04B2E3A
:10374000B1E05B2EB2E03B2EB2E02B2E3FD1B3EACC
:103750004B2EB7E05B2EB1E03B2EB2E02B2E36D1E4
:10376000FE01B3E7B193B5E6B193B4E7B193B9E61F
:10377000B193BEE6B193B7E6B193B2E3B193B0E0D3
:10378000B1938E012801B8E03B2EB2E02B2E1ED162
:10379000BEE54B2EB3E03B2EB2E02B2E4DDF2F903B
:1037A0003F904F905F906F907F9025E01FE002EF79
:1037B0000A95F1F71A95E1F72A95D1F70E94480D7D
:1037C000B5E04B2EB1E05B2E2090A1073090A20710
:1037D000A6D2B5E04B2EB1E05B2EB2E03B2EB2E0BC
:1037E0002B2EF4D025E01FE002EF0A95F1F71A9591
:1037F000E1F72A95D1F70E94C326B5E04B2EB1E040
:103800005B2E2090A907B0E03B2E89D2FE01B9E6DD
:10381000B193BEE6B193B4E7B193B2E3B193B3E72A
:10382000B193B4E7B193B2E7B193B0E0B1938E0135
:103830002801B2E03B2EB1E02B2EC8D0B3EA4B2ECC
:10384000B7E05B2EB6E03B2EB1E02B2EBFD0B5E04B
:103850004B2EB1E05B2EB2E03B2EB2E02B2EB6D069
:10386000B1E0B0935F01B0E0B09360015F904F9022
:103870003F902F902796CDBFDEBFDF91CF91089567
:103880002F920E94A30A00919C0710E00053184F4A
:1038900000939F071093A0070091AC0700939D072A
:1038A000B0E0B0939E070091A9070093AA07B0E08B
:1038B000B093AB070E946B08B1E02B2EC8D02F90BD
:1038C0000895B1E14B1619F43BBC2ABC26C0B2E105
:1038D0004B1619F439BC28BC20C0B3E14B1629F4AF
:1038E000309279002092780018C0B4E14B1629F488
:1038F000309287002092860010C0B5E14B1629F463
:10390000309285002092840008C0B6E14B1629F45D
:10391000309283002092820000C0089516E00BE2EE
:103920000A95F1F71A95E1F70000000008952F922B
:103930003F924F925F929F928F927F926F925F928F
:103940004F923F922F92B1E64B2EB1E05B2EB1E049
:103950003B2EB1E02B2E3AD02F903F904F905F90AE
:103960006F907F908F909F909F928F927F926F9297
:103970005F924F92482C322CB2E02B2E5DDE4F909E
:103980005F906F907F908F909F909F928F927F9289
:103990006F92342C482CB2E02B2E4EDE6F907F902D
:1039A0008F909F90482C362CB2E02B2E45DE29E0DC
:1039B0001EE105EE0A95F1F71A95E1F72A95D1F780
:1039C00000005F904F903F902F9008952F92B1E0AC
:1039D0002B1619F4B0E82B2E14C0B2E02B1619F4F4
:1039E000B0EC2B2E0EC0B3E02B1619F4B4E92B2E3D
:1039F00008C0B4E02B1619F4B4ED2B2E02C0B0E8C9
:103A00002B2E032D0150020D202E202E20D0B09100
:103A10000001BE7FB09300019201F90100810023F3
:103A200079F0F90100813F932F932F92202EDFDC54
:103A30002F902F913F9189010F5F1F4F9801EDCF7C
:103A4000B0910001B160B09300012F90089527FA62
:103A5000B0913500B7F9B093350026FAB091350032
:103A6000B6F9B093350025FAB0913500B5F9B093A9
:103A7000350024FAB0913500B4F9B0933500B09117
:103A8000000100903500E894B0FF689402F80092BD
:103A90003500B0913500B860B09335000E949F0F9B
:103AA000B0913500B77FB093350023FAB09135005F
:103AB000B7F9B093350022FAB0913500B6F9B0935A
:103AC000350021FAB0913500B5F9B093350020FAF0
:103AD000B0913500B4F9B0933500B0910001009079
:103AE0003500E894B0FF689402F800923500B09178
:103AF0003500B860B09335000E949F0FB09135003B
:103B0000B77FB0933500B0910001B0FF03C00E94B1
:103B1000381201C08CDD0895B0E0B3BFB0E0B2BF91
:103B200051BE022D042903BF30922801032903BF8F
:103B30000895B0E0B4BD53BCB0E0B5BD05B50229F1
:103B4000042905BD30921F0105B5032905BD08955F
:103B5000B1E07B1609F059C0B0E0BFBDB0E0BEBD1A
:103B6000B0E0BDBDB0E0BCBD4FBC6BBC5ABC69BCD5
:103B700058BC6092790050927800BBE02B1639F463
:103B80000FB501600FBD0EB5077E0EBD38C0BCE09D
:103B90002B1639F4BFB5B260BFBD0EB5077E0EBDA2
:103BA0002EC0BDE02B1639F40FB503600FBD0EB566
:103BB000077E0EBD24C0BEE02B1639F40FB50160A0
:103BC0000FBD0EB508600EBD1AC0BFE02B1639F44C
:103BD0000FB502600FBD0EB508600EBD10C0B0E19C
:103BE0002B1639F40FB503600FBD0EB508600EBD7E
:103BF00006C00FB50C7F0FBD0EB5077E0EBD30920F
:103C000004010EB503290EBD89C0B3E07B1609F08F
:103C100085C0B0E0B0938B00B0E0B0938A00B0E014
:103C2000B0938900B0E0B0938800B0E0B0938A0010
:103C300060928700509286006092850050928400C6
:103C4000609283005092820000918B0004290093BF
:103C50008B00BBE02B1659F400918B0001600093A0
:103C60008B0000918A00077E00938A0050C0BCE060
:103C70002B1659F400918B00026000938B00009189
:103C80008A00077E00938A0042C0BDE02B1659F4DB
:103C900000918B00036000938B0000918A00077EE7
:103CA00000938A0034C0BEE02B1659F400918B00BB
:103CB000016000938B0000918A00086000938A00E5
:103CC00026C0BFE02B1659F400918B0002600093D0
:103CD0008B0000918A00086000938A0018C0B0E150
:103CE0002B1659F400918B00036000938B00009118
:103CF0008A00086000938A000AC000918B000C7F44
:103D000000938B0000918A00077E00938A00309216
:103D1000030100918A00032900938A000895CF933C
:103D2000DF93CDB7DEB72397CDBFDEBF2196B0E8D6
:103D30003B1611F4B0E02B1681F4F201BDE2B19311
:103D4000B3E3B193B2E3B193B7E3B193B6E3B19305
:103D5000B8E3B193B0E0B19353C0B0E0BA8300E0F0
:103D600010E0201631063CF4BFEFBA8300E010E00B
:103D7000021913091801F201B0E2B193B0E2B19354
:103D8000B0E2B193B0E2B193B0E2B193B0E3B193DA
:103D9000B0E0B19382010B5F1F4F08831983B0E03D
:103DA0003B1611F4B0E02B1621F15F924F923F9237
:103DB0002F924AE050E081010E9441128C012F9025
:103DC0003F90005DE881F98100833F922F924AE0A5
:103DD00050E081010E9441128B012F903F904F9043
:103DE0005F901801088119810150104008831983E0
:103DF000D6CF0A81002321F0E881F981BDE2B083AA
:103E00002296CDBFDEBFDF91CF910895CF93DF9390
:103E1000CDB7DEB76997CDBFDEBF21962F923F9217
:103E20004F925F926F927F928F929F92ACD7E1E612
:103E3000F1E0B0E2B193BFE4B193BEE6B193B0E27A
:103E4000B193B0E2B193BFE4B193B6E6B193B6E6F5
:103E5000B193B0E2B193B0E2B193BCE3B193B5E4F6
:103E6000B193B8E7B193B9E6B193B4E7B193BEE3C8
:103E7000B193B0E0B193BEE58B2EB0E09B2EB4E0E1
:103E80006B2EB0E07B2EB2E04B2EB0E05B2EB3E0A9
:103E90002B2EB0E03B2E4BDDB0E0B883B983B09160
:103EA0005A01BE7FB0935A01B0910001BF77B09321
:103EB0000001B0915A01BB7FB0935A01B0915A01F1
:103EC000BD7FB0935A01B0910001BF7EB093000155
:103ED000B0910001B860B0930001B0910001B064EE
:103EE000B0930001B0910001B6FFE4C1B1E06B2EC8
:103EF00055244424B0E32B2EB0E03B2E4ED60030A8
:103F000031F041D7B0915A01B160B0935A016624A3
:103F100055244424B0E32B2EB0E03B2E3ED6009037
:103F20005A01112700FC1395012309F44EC0B091EA
:103F30005A01BE7FB0935A01B0910001B77FB09390
:103F40000001B0910001BF7BB0930001B1E0B883E4
:103F5000B0E0B983E1E6F1E0BCE3B193B5E4B1933D
:103F6000B8E7B193B9E6B193B4E7B193BEE3B193C7
:103F7000B0E2B193B9E6B193B3E7B193B0E2B193D4
:103F8000B3E5B193B5E6B193BCE6B193B5E6B193B1
:103F9000B3E6B193B4E7B193B5E6B193B4E6B193A8
:103FA000B0E0B193B1E64B2EB1E05B2EB1E03B2E19
:103FB000B1E02B2E0BDD25E11BE40FEB0A95F1F7A9
:103FC0001A95E1F72A95D1F70000B1E06B2E552440
:103FD000B4E04B2EB9E32B2EB0E03B2EDED5003003
:103FE00029F0B0915A01B460B0935A016624552467
:103FF000B4E04B2EB9E32B2EB0E03B2ECED5009093
:104000005A01112702FC1395012309F481C0B091D4
:104010005A01BB7FB0935A01B6D6E1E6F1E0B0E2B7
:10402000B193BFE4B193BEE6B193B0E2B193B0E215
:10403000B193BFE4B193B6E6B193B6E6B193B0E203
:10404000B193B0E2B193BCE3B193B5E4B193B8E7F7
:10405000B193B9E6B193B4E7B193BEE3B193B0E0E5
:10406000B19308811981103009F40030B1F4B2E045
:10407000B883B0E0B983BEE58B2EB0E09B2EBFE0E5
:104080006B2EB0E07B2EBEE04B2EB0E05B2EBDE091
:104090002B2EB0E03B2E4BDC32C008811981015041
:1040A000104008831983103009F4003089F4BEE50C
:1040B0008B2EB0E09B2EB4E06B2EB0E07B2EB3E0F5
:1040C0004B2EB0E05B2EB2E02B2EB0E03B2E2FDC6F
:1040D00008811981103009F4013089F4BEE58B2E76
:1040E000B0E09B2EB8E06B2EB0E07B2EB7E04B2EFD
:1040F000B0E05B2EB6E02B2EB0E03B2E18DC25E0C6
:104100001FE002EF0A95F1F71A95E1F72A95D1F72A
:10411000B1E06B2E5524B5E04B2EB9E32B2EB0E069
:104120003B2E3BD5003029F0B0910001B068B09330
:10413000000166245524B5E04B2EB9E32B2EB0E0E8
:104140003B2E2BD500900001112707FC139501236E
:1041500009F477C0B0910001BF77B093000113D686
:10416000E1E6F1E0B0E2B193BFE4B193BEE6B19312
:10417000B0E2B193B0E2B193BFE4B193B6E6B193CC
:10418000B6E6B193B0E2B193B0E2B193BCE3B193C0
:10419000B5E4B193B8E7B193B9E6B193B4E7B1939D
:1041A000BEE3B193B0E0B19308811981103009F4F6
:1041B0000230A9F4B0E0B883B983BEE58B2EB0E03D
:1041C0009B2EB4E06B2EB0E07B2EB3E04B2EB0E024
:1041D0005B2EB2E02B2EB0E03B2EA9DB32C0088173
:1041E00019810F5F1F4F08831983103009F40230C3
:1041F00089F4BEE58B2EB0E09B2EBFE06B2EB0E0C5
:104200007B2EBEE04B2EB0E05B2EBDE02B2EB0E04F
:104210003B2E8DDB08811981103009F4013089F4BF
:10422000BEE58B2EB0E09B2EB8E06B2EB0E07B2E6F
:10423000B7E04B2EB0E05B2EB6E02B2EB0E03B2E6D
:1042400076DBB1E06B2E5524B6E04B2EB9E32B2E76
:10425000B0E03B2EA2D4003029F0B0915A01B260F8
:10426000B0935A0110905A01009000015E7F11FC3A
:1042700006FE01C0516066245524B6E04B2EB9E31A
:104280002B2EB0E03B2E89D4112750FD139501232E
:1042900081F0B0910001B77FB0930001B0910001AF
:1042A000BF7BB09300016FD5B0915A01B260B0935B
:1042B0005A0118CE08811981103009F40030D1F567
:1042C000B0E0B883B983E1E6F1E0B0E2B193BFE4D6
:1042D000B193BEE6B193B0E2B193B0E2B193BFE463
:1042E000B193B6E6B193B6E6B193B0E2B193B0E262
:1042F000B193BCE3B193B5E4B193B8E7B193B9E638
:10430000B193B4E7B193BEE3B193B0E0B1930E942F
:104310008213B5E04B2EB1E05B2E28803980FFDCA4
:10432000B5E04B2EB1E05B2EB1E03B2EB1E02B2E81
:104330004DDB51C008811981103009F4013009F0BA
:104340004AC0B5E04B2EB1E05B2E28803980E7DC17
:10435000B5E04B2EB1E05B2EB1E03B2EB1E02B2E51
:1043600035DBFE013296B3E4B193B1E6B193B3E726
:10437000B193B5E6B193B0E2B193B5E4B193B8E7C8
:10438000B193B9E6B193B4E7B193B0E2B193B9E6B2
:10439000B193B3E7B193B0E2B193B3E7B193B5E6AC
:1043A000B193BCE6B193B5E6B193B3E6B193B4E78C
:1043B000B193B5E6B193B4E6B193B0E2B193B0E096
:1043C000B1938E010E5F1F4F2801B1E03B2EB2E08A
:1043D0002B2EFCDA00C09F908F907F906F905F90A3
:1043E0004F903F902F906896CDBFDEBFDF91CF9169
:1043F0000895CF93DF93CDB7DEB76497CDBFDEBF0F
:104400002196BEE1B887BFE1B987BEE1BA87BFE1B7
:10441000BB87BFE1BC87BEE1BD87BFE1BE87BEE110
:10442000BF87BFE1B88BBFE1B98BBCE1BA8BBFE1FD
:10443000BB8B830103591D4F0A831B830883198398
:104440005F924F923F922F9244E050E00E944112BF
:104450008C01009358011093590144E650E0088103
:1044600019810E9441128C010093240110932501AF
:1044700040E951E0088119810E9441128C012F907E
:104480003F904F905F900093260110932701509129
:10449000240160912501603009F4503040E009F0BA
:1044A0004FEF2091580130915901303009F42030FC
:1044B000B0E009F4BFEF2B2F242320932001B0E0BC
:1044C000B0932101603009F4503020E009F42FEF5F
:1044D000103009F40030B0E009F4BFEF0B2F0223D5
:1044E000202F30E00091200110912101022B132B8D
:1044F000B02FB12B29F0BCE0BC83B0E0BD8304C079
:10450000BBE0BC83B0E0BD830A811B81302F412F0B
:104510003F5F4F4F403009F4303010E009F01FEF9B
:10452000403009F4303000E009F40FEF212F202350
:1045300010E003231423103009F40030B0E009F434
:10454000BFEF0B2F022B19F00A890F5F0A8B01E0D6
:1045500010E02016310620E00CF02FEF06E010E00E
:1045600002151305B0E00CF0BFEF0B2F022359F03A
:104570008101015010404FE150E00E947C05040D84
:10458000151D98010CC08101075010404EE150E00C
:104590000E947C0506541F4F040D151D98010C81C7
:1045A0001D8102171307CCF00C801D800FE110E075
:1045B00000191109020F131F009322011093230108
:1045C000B3E0B0932901B0E0B0932A010A811B81C6
:1045D00000932B0110932C0107C00C801D808901D2
:1045E000001911090E831F8340E050E08E01085F1F
:1045F0001F4FFA01E00FF11F00812E813F8110E073
:1046000002171307B4F48E01085F1F4FFA01E00F81
:10461000F11F0081002EB0E01B2E0E811F810019BA
:1046200011090E831F838A010F5F1F4FB801AB0171
:10463000DDCF0E811F81009322011093230108E03A
:1046400010E00417150784F48A0108501040009305
:10465000290110932A010A811B810F5F1F4F0093CC
:104660002B0110932C010DC08A010C5F1F4F00938A
:10467000290110932A010A811B8100932B011093B9
:104680002C016396CDBFDEBFDF91CF91089521BE8F
:104690000895CF93DF93CDB7DEB76D97CDBFDEBF63
:1046A00021962F923F924F925F926F927F928F92BC
:1046B0009F92B889BD7FB88BB889BB7FB88BB8890A
:1046C000B77FB88BB889B160B88BB0E0B883B983D5
:1046D000B0E0BA83BB8357D3BCEA8B2EB7E09B2EE6
:1046E000BBE96B2EB7E07B2EB7E94B2EB7E05B2E14
:1046F000B8E92B2EB7E03B2EB7E0BF93BCE9BF93E0
:10470000B7E0BF93B9EABF93B7E0BF93B4E9BF93F3
:104710000E945010ADB7BEB71696ADBFBEBFB0D8A1
:10472000B889B0FF0AC2FE013496B7E7B193B8E684
:10473000B193B9E6B193BCE6B193B5E6B193B0E2FB
:10474000B193BAE3B193B0E2B193B0E0B1938E010B
:104750000C5F1F4F2801B1E03B2EB1E02B2E36D964
:1047600025E01FE002EF0A95F1F71A95E1F72A9587
:10477000D1F7662455244424B0E32B2EB0E03B2E21
:104780000CD2003019F0B889B260B88BB1E06B2E52
:1047900055244424B0E32B2EB0E03B2EFED10888F4
:1047A000112701FC1395012309F450C0B889BD7F7E
:1047B000B88BB889B860B88B088119810F5F1F4F1B
:1047C00008831983103009F4083021F4B1E0B8836C
:1047D000B0E0B983B5E04B2EB1E05B2E2880398084
:1047E0009EDAB5E04B2EB1E05B2EB9E03B2EB2E095
:1047F0002B2EECD8FE013496B0E5B193BFE6B19311
:10480000B3E7B193B9E6B193B4E7B193B9E6B19325
:10481000BFE6B193BEE6B193B0E2B193BAE3B19310
:10482000B0E2B193B0E0B1938E010C5F1F4F28014D
:10483000B1E03B2EB2E02B2EC9D825E01FE002EFFD
:104840000A95F1F71A95E1F72A95D1F766245524D0
:10485000B6E04B2EB9E32B2EB0E03B2E9ED10030BC
:1048600019F0B889B460B88B188808888E7F13FC5B
:1048700002FE01C08160B1E06B2E5524B6E04B2EE4
:10488000B9E32B2EB0E03B2E88D1112780FD139584
:10489000012309F451C1B889BB7FB88B0881198104
:1048A000103009F40130E9F4E3EAF7E0B9E5B19337
:1048B000B5E6B193B1E6B193B2E7B193B0E0B1938D
:1048C00066247724B4E64B2EB0E05B2E20909C0744
:1048D000B0E03B2E0E947B1B0091A10700939C0738
:1048E000F1C008811981103009F4023029F5E3EA9A
:1048F000F7E0BDE4B193BFE6B193B5E7B193BEE68F
:10490000B193B4E7B193B8E6B193B3E7B193B0E034
:10491000B193B1E06B2EB0E07B2EBCE04B2EB0E04B
:104920005B2E2090A907B0E03B2E0E947B1B0091DC
:10493000A1070093A907C6C008811981103009F4A6
:104940000330F9F4B4E6B093A307B1E6B093A4073B
:10495000B9E7B093A507B0E0B093A607B1E06B2E1E
:10496000B0E07B2EBFE14B2EB0E05B2E2090AC0779
:10497000B0E03B2E0E947B1B0091A1070093AC0787
:10498000A1C008811981103009F40430F9F4E3EA78
:10499000F7E0B7E7B193B5E6B193B5E6B193BBE6FF
:1049A000B193B0E0B193B1E06B2EB0E07B2EB7E0F5
:1049B0004B2EB0E05B2E20909407B0E03B2E0E947F
:1049C0007B1B0091A107009394077CC0088119818B
:1049D000103009F40530F9F4E3EAF7E0B8E6B193F2
:1049E000BFE6B193B5E7B193B2E7B193B3E7B19343
:1049F000B0E0B19366247724B7E14B2EB0E05B2E94
:104A000020909807B0E03B2E0E947B1B0091A107ED
:104A10000093980757C008811981103009F40630B7
:104A200019F5E3EAF7E0BDE6B193B9E6B193BEE666
:104A3000B193B5E7B193B4E7B193B5E6B193B3E7FA
:104A4000B193B0E0B19366247724BBE34B2EB0E082
:104A50005B2E20909707B0E03B2E0E947B1B0091BD
:104A6000A107009397072EC008811981103009F41F
:104A7000073041F5E3EAF7E0BCE3B193B5E4B19365
:104A8000B8E7B193B9E6B193B4E7B193BEE3B1939C
:104A9000B0E0B19366247724B1E04B2EB0E05B2EFA
:104AA0002A803B800E947B1B0091A1071091A207E6
:104AB0000A831B83103009F4013019F4B889BE7FD2
:104AC000B88B00C0209098070E94641B0C8F209028
:104AD00097070E94641B0B8F20909B070E94641B0A
:104AE0000A8F2090AC070E94641B098F20909407C6
:104AF0000E94641B088F2090A9070E94641B0F8BE3
:104B000020909C070E94641B6C8D5B8D4A8D398DB3
:104B1000288D1F89802E712E622E532E442E352E05
:104B2000262E0E94A50F25E01FE002EF0A95F1F75F
:104B30001A95E1F72A95D1F7F3CD9F908F907F904A
:104B40006F905F904F903F902F906C96CDBFDEBFDF
:104B5000DF91CF910895C9019A01AB01B801A1E29B
:104B60001A2EAA1BBB1BFD010DC0AA1FBB1FEE1FE7
:104B7000FF1FA217B307E407F50720F0A20BB30B42
:104B8000E40BF50B661F771F881F991F1A9469F7AE
:104B900060957095809590950895CF93DF93CDB7EC
:104BA000DEB72197CDBFDEBF2196B0E0B883B42D2C
:104BB00011E0BB2319F0110FBA95E9F7F10100815B
:104BC000102300E0103009F001E00615E9F400E0E0
:104BD000051540F40E948E1C0E948E1C052D01506C
:104BE000502EF5CFB42D11E0BB2319F0110FBA955B
:104BF000E9F7F1010081102300E0103009F001E035
:104C0000061511F4BFEFB8830881CDBFDEBFDF9179
:104C1000CF91089523BC08952F923F924F927F9297
:104C2000022D10E04FEF50E00E947C0544E650E07A
:104C30000E94501B8C0120E0322F0E94131B6F92A8
:104C40005F922F92180129010E94E20FB8E16B2EAA
:104C5000B1E07B2E180129010E94C91094D00E9456
:104C6000031A2F905F906F9000911D0110911E010B
:104C70001F930F936F925F922F92B5E04B2EB1E08E
:104C80005B2E20901D0130901E0149D8B8E14B2EBB
:104C9000B1E05B2EB1E03B2EB1E02B2E0E94E61C72
:104CA000B5E04B2EB1E05B2EB6E03B2EB2E02B2EF2
:104CB0000E94E61C2F90B5E04B2EB1E05B2EB0E0D9
:104CC0003B2E2DD8B5E04B2EB1E05B2EB1E03B2E54
:104CD000B2E02B2E0E94E61C5F906F900F911F9107
:104CE000B0E06B1611F4B1E05B1631F4B1E14B2E7C
:104CF00018010E94611C42C0B0E06B1611F4B2E0D2
:104D00005B1631F4B2E14B2E18010E94611C36C0D3
:104D1000B0E06B1611F4B3E05B1619F4202EB7DC8B
:104D20002DC0B0E06B1611F4B4E05B1619F4202E20
:104D300071DF24C0B0E06B1611F4B5E05B1631F4FE
:104D4000B4E14B2E18010E94611C18C0B0E06B1634
:104D500011F4B6E05B1631F4B5E14B2E18010E9458
:104D6000611C0CC0B0E06B1611F4B7E05B1631F4B7
:104D7000B6E14B2E18010E94611C00C07F904F903D
:104D80003F902F9008952F920E946B12B1E02B2E2E
:104D90000E94271DBCE02B2E0E94271D2F900895F6
:104DA000CF93DF93CDB7DEB72797CDBFDEBF219678
:104DB0002F923F924F925F92B1E0B1BDB1E02B2EA6
:104DC0000E94271DFE01B2E5B193B5E6B193B3E7AA
:104DD000B193B5E6B193B4E7B193BEE2B193B0E05D
:104DE000B1938E012801B2E03B2EB2E02B2E0E943F
:104DF000E61C5F904F903F902F902696CDBFDEBF70
:104E0000DF91CF910895CF93DF93CDB7DEB76B9746
:104E1000CDBFDEBF21962F923F924F925F926F924D
:104E20007F928F929F92B0E0B0935B01B0935C0150
:104E3000B0E0B0935D01B0935E01B0915A01BE7FC6
:104E4000B0935A01B0910001BF77B0930001B091C7
:104E50005A01BB7FB0935A01B0915A01BD7FB09304
:104E60005A01B0910001BF7EB0930001B0910001E2
:104E7000B860B0930001B0910001B064B09300013C
:104E8000E1E6F1E0B3E4B193B1E6B193BCE6B193EE
:104E9000B0E2B193B2E5B193B5E6B193BCE6B1939C
:104EA000B0E2B193B0E5B193B7E7B193BDE6B1938A
:104EB000B0E2B193BCE3B193B5E4B193B8E7B19379
:104EC000BEE3B193B0E0B193BEE58B2EB0E09B2E74
:104ED000B3E06B2EB0E07B2EB2E04B2EB0E05B2E49
:104EE000B1E02B2EB0E03B2E0E94971CB091000148
:104EF000B6FF67C2B1E06B2E55244424B0E32B2EDD
:104F0000B0E03B2E4ADE003031F03DDFB0915A0177
:104F1000B160B0935A01662455244424B0E32B2E8B
:104F2000B0E03B2E3ADE00905A01112700FC1395A9
:104F3000012309F44EC0B0915A01BE7FB0935A01CB
:104F4000B0910001B77FB0930001B0910001BF7B29
:104F5000B0930001B3E0B0935B01B0E0B0935C01AB
:104F6000FE01BCE3B193B5E4B193B8E7B193B9E600
:104F7000B193B4E7B193BEE3B193B0E2B193B9E6B4
:104F8000B193B3E7B193B0E2B193B3E5B193B5E6B2
:104F9000B193BCE6B193B5E6B193B3E6B193B4E790
:104FA000B193B5E6B193B4E6B193B0E0B1938E019D
:104FB0002801B1E03B2EB1E02B2E0E94E61C29E037
:104FC0001EE105EE0A95F1F71A95E1F72A95D1F75A
:104FD0000000B1E06B2E5524B4E04B2EB9E32B2E2C
:104FE000B0E03B2EDADD003029F0B0915A01B46018
:104FF000B0935A0166245524B4E04B2EB9E32B2E0E
:10500000B0E03B2ECADD00905A01112702FC139537
:10501000012309F484C0B0915A01BB7FB0935A01B7
:10502000B2DE00915B0110915C01103009F4003098
:10503000C9F4B3E0B0935B01B0E0B0935C01BEE5AE
:105040008B2EB0E09B2EBFE06B2EB0E07B2EBEE03F
:105050004B2EB0E05B2EBDE02B2EB0E03B2E0E942D
:10506000971C54C000915B0110915C0101501040ED
:1050700000935B0110935C01103009F4003091F44F
:10508000BEE58B2EB0E09B2EB3E06B2EB0E07B2E06
:10509000B2E04B2EB0E05B2EB1E02B2EB0E03B2E09
:1050A0000E94971C00915B0110915C01103009F483
:1050B000013091F4BEE58B2EB0E09B2EB7E06B2E55
:1050C000B0E07B2EB6E04B2EB0E05B2EB5E02B2E91
:1050D000B0E03B2E0E94971C00915B0110915C0197
:1050E000103009F4023091F4BEE58B2EB0E09B2E17
:1050F000BBE06B2EB0E07B2EBAE04B2EB0E05B2E17
:10510000B9E02B2EB0E03B2E0E94971C25E01FE05B
:1051100002EF0A95F1F71A95E1F72A95D1F7B1E078
:105120006B2E5524B5E04B2EB9E32B2EB0E03B2E71
:1051300034DD003029F0B0910001B068B093000177
:1051400066245524B5E04B2EB9E32B2EB0E03B2E60
:1051500024DD00900001112707FC1395012309F4B9
:1051600088C0B0910001BF77B0930001B0915A019F
:10517000B061B0935A0107DE00915B0110915C01B0
:10518000103009F40330C1F4B0E0B0935B01B09388
:105190005C01BEE58B2EB0E09B2EB3E06B2EB0E041
:1051A0007B2EB2E04B2EB0E05B2EB1E02B2EB0E0B8
:1051B0003B2E0E94971C54C000915B0110915C0132
:1051C0000F5F1F4F00935B0110935C01103009F4D7
:1051D000033091F4BEE58B2EB0E09B2EBFE06B2E2A
:1051E000B0E07B2EBEE04B2EB0E05B2EBDE02B2E60
:1051F000B0E03B2E0E94971C00915B0110915C0176
:10520000103009F4013091F4BEE58B2EB0E09B2EF6
:10521000B7E06B2EB0E07B2EB6E04B2EB0E05B2EFD
:10522000B5E02B2EB0E03B2E0E94971C00915B0155
:1052300010915C01103009F4023091F4BEE58B2E20
:10524000B0E09B2EBBE06B2EB0E07B2EBAE04B2E85
:10525000B0E05B2EB9E02B2EB0E03B2E0E94971CF5
:1052600025E01FE002EF0A95F1F71A95E1F72A957C
:10527000D1F7B1E06B2E5524B6E04B2EB9E32B2EBF
:10528000B0E03B2E8ADC003029F0B0915A01B260C8
:10529000B0935A0110905A01009000014E7F11FC0A
:1052A00006FE01C0416066245524B6E04B2EB9E3EA
:1052B0002B2EB0E03B2E71DC112740FD139501230E
:1052C00009F47EC0B0910001B77FB0930001B091A6
:1052D0000001BF7BB093000156DDB0915A01B2606E
:1052E000B0935A0100915B0110915C01103009F4F8
:1052F000033071F5FE01B5E4B193B8E7B193B9E6B7
:10530000B193B4E7B193B0E2B193B9E6B193B3E727
:10531000B193B0E2B193B1E6B193B9E6B193B4E71A
:10532000B193B3E6B193B4E7B193B9E6B193B6E7FD
:10533000B193B5E6B193B4E6B193B0E0B1938E0109
:105340002801B1E03B2EB1E02B2E0E94E61C2FC0BD
:10535000FE01B3E5B193B5E6B193B4E7B193B4E719
:10536000B193B9E6B193BEE6B193B7E6B193B0E2BB
:10537000B193B9E6B193B3E7B193B0E2B193B1E6BB
:10538000B193B3E6B193B4E7B193B9E6B193B6E79D
:10539000B193B5E6B193B4E6B193B0E0B1938E01A9
:1053A0002801B1E03B2EB1E02B2E0E94E61C25E047
:1053B0001FE002EF0A95F1F71A95E1F72A95D1F768
:1053C00095CDB5E04B2EB1E05B2E20905B01309087
:1053D0005C010E948F1EB5E04B2EB1E05B2EB2E067
:1053E0003B2EB1E02B2E0E94E61C26E616E702ECCF
:1053F0000A95F1F71A95E1F72A95D1F700915B012B
:1054000010915C01103009F4003009F099C0B0E04F
:10541000B0935B01B0935C01FE01B3E4B193B1E6DC
:10542000B193B3E7B193B5E6B193B0E2B193B3E40E
:10543000B193B1E6B193BCE6B193B0E2B193B9E6F2
:10544000B193B3E7B193B0E2B193B3E7B193B5E6EB
:10545000B193BCE6B193B5E6B193B3E6B193B4E7CB
:10546000B193B5E6B193B4E6B193B0E2B193B0E0D5
:10547000B1938E012801B1E03B2EB2E02B2E0E94A9
:10548000E61C07D9B5E04B2EB1E05B2E20905B0106
:1054900030905C010E948F1EB5E04B2EB1E05B2E78
:1054A000B1E03B2EB1E02B2E0E94E61CB5E04B2E66
:1054B000B1E05B2E20905B0130905C010E948F1E5A
:1054C000B5E04B2EB1E05B2EB9E03B2EB2E02B2EC7
:1054D0000E94E61CFE01B3E4B193B1E6B193B3E7D9
:1054E000B193B5E6B193B0E2B193B3E4B193B1E651
:1054F000B193BCE6B193B0E2B193B9E6B193B3E72F
:10550000B193B0E2B193B3E7B193B5E6B193BCE622
:10551000B193B5E6B193B3E6B193B4E7B193B5E611
:10552000B193B4E6B193B0E2B193B0E0B1938E0120
:105530002801B1E03B2EB2E02B2E0E94E61CFBC1FD
:1055400000915B0110915C01103009F4013009F009
:10555000D8C0FE01B3E4B193B1E6B193B3E7B19320
:10556000B5E6B193B0E2B193B2E5B193B5E6B193CC
:10557000BCE6B193B1E6B193B9E7B193B0E2B193B0
:10558000B9E6B193B3E7B193B0E2B193B9E6B193A1
:10559000B3E7B193B0E2B193B3E7B193B5E6B1939A
:1055A000BCE6B193B5E6B193B3E6B193B4E7B1937A
:1055B000B5E6B193B4E6B193B0E2B193B0E0B19384
:1055C0008E012801B1E03B2EB2E02B2E0E94E61C9A
:1055D0000E94061FFE01B5E6B193BEE6B193B4E6A4
:1055E000B193B0E2B193BFE6B193B6E6B193B0E246
:1055F000B193B3E6B193B1E6B193B3E7B193B5E636
:10560000B193B0E2B193B2E7B193B5E6B193BCE622
:10561000B193B1E6B193B9E7B193B0E2B193B0E021
:10562000B1938E012801B1E03B2EB2E02B2E0E94F7
:10563000E61CB5E04B2EB1E05B2E20905B01309074
:105640005C010E948F1EB5E04B2EB1E05B2EB1E0F5
:105650003B2EB1E02B2E0E94E61CB5E04B2EB1E0B4
:105660005B2E20905B0130905C010E948F1EB5E0A4
:105670004B2EB1E05B2EB9E03B2EB2E02B2E0E9408
:10568000E61CFE01B3E4B193B1E6B193B3E7B19385
:10569000B5E6B193B0E2B193B2E5B193B5E6B1939B
:1056A000BCE6B193B1E6B193B9E7B193B0E2B1937F
:1056B000B9E6B193B3E7B193B0E2B193B9E6B19370
:1056C000B3E7B193B0E2B193B3E7B193B5E6B19369
:1056D000BCE6B193B5E6B193B3E6B193B4E7B19349
:1056E000B5E6B193B4E6B193B0E2B193B0E0B19353
:1056F0008E012801B1E03B2EB2E02B2E0E94E61C69
:105700001AC100915B0110915C01103009F4023064
:1057100009F097C0FE01B3E4B193B1E6B193B3E7EA
:10572000B193B5E6B193B0E2B193B0E5B193B7E50B
:10573000B193BDE4B193B0E2B193B9E6B193B3E7ED
:10574000B193B0E2B193B3E7B193B5E6B193BCE6E0
:10575000B193B5E6B193B3E6B193B4E7B193B5E6CF
:10576000B193B4E6B193B0E2B193B0E0B1938E01DE
:105770002801B1E03B2EB2E02B2E0E94E61C0E94D5
:105780004923B5E04B2EB1E05B2E20905B013090B9
:105790005C010E948F1EB5E04B2EB1E05B2EB1E0A4
:1057A0003B2EB1E02B2E0E94E61CB5E04B2EB1E063
:1057B0005B2E20905B0130905C010E948F1EB5E053
:1057C0004B2EB1E05B2EB9E03B2EB2E02B2E0E94B7
:1057D000E61CFE01B3E4B193B1E6B193B3E7B19334
:1057E000B5E6B193B0E2B193B0E5B193B7E5B1934B
:1057F000BDE4B193B0E2B193B0E2B193B9E6B19335
:10580000B3E7B193B0E2B193B3E7B193B5E6B19327
:10581000BCE6B193B5E6B193B3E6B193B4E7B19307
:10582000B5E6B193B4E6B193B0E2B193B0E0B19311
:105830008E012801B1E03B2EB2E02B2E0E94E61C27
:105840007AC000915B0110915C01103009F40330C3
:1058500009F062C0B5E04B2EB1E05B2E20905B01F9
:1058600030905C010E948F1EB5E04B2EB1E05B2EA4
:10587000B1E03B2EB1E02B2E0E94E61CB5E04B2E92
:10588000B1E05B2E20905B0130905C010E948F1E86
:10589000B5E04B2EB1E05B2EB9E03B2EB2E02B2EF3
:1058A0000E94E61CFE01B3E4B193B1E6B193B3E705
:1058B000B193B5E6B193B0E2B193B0E2B193B5E480
:1058C000B193B8E7B193B9E6B193B4E7B193B0E25D
:1058D000B193B9E6B193B3E7B193B0E2B193B3E753
:1058E000B193B5E6B193BCE6B193B5E6B193B3E637
:1058F000B193B4E7B193B5E6B193B4E6B193B0E236
:10590000B193B0E0B1938E012801B1E03B2EB2E03B
:105910002B2E0E94E61C0FC000915B0110915C01D0
:10592000103009F4043039F4B4E0B0935B01B0E016
:10593000B0935C0100C025E11BE40FEB0A95F1F781
:105940001A95E1F72A95D1F700009F908F907F90EC
:105950006F905F904F903F902F906A96CDBFDEBFC3
:10596000DF91CF910895CF93DF93CDB7DEB7239723
:10597000CDBFDEBF21962F923F924F925F926F92E2
:105980007F92B0E0B883B1B3B064B1BBB7B3B860D5
:10599000B7BBB1B3B068B1BBB1B3B061B1BBB1B368
:1059A000B062B1BB5524B0E24B2EB2E03B2EB8E45E
:1059B0002B2E0E948C1D5880B0E24B2EB2E03B2E65
:1059C000B8E42B2E0E94991DB1E07B2E5880B0E0E8
:1059D0006B2EB8EA4B2EB2E03B2EBBE02B2E0E9482
:1059E000A81DB3E07B2E5880B0E06B2EB8EA4B2E9A
:1059F000B2E03B2EBBE02B2E0E94A81D28800E9407
:105A00004723288007D9B0E0B1BFB0E0B3BDB0E014
:105A1000B983BA8349815A8104E1409F002DB7E0E0
:105A20005B2EB0E06B2EBFEF3B2EB0E04B2E202E56
:105A3000F3D829E01EE105EE0A95F1F71A95E1F792
:105A40002A95D1F7000009811A81103009F4053038
:105A500039F009811A810F5F1F4F09831A83DACF4A
:105A60007F906F905F904F903F902F902296CDBF88
:105A7000DEBFDF91CF910895CF93DF93CDB7DEB72F
:105A80002897CDBFDEBF21962F923F92B0E0B8831A
:105A9000B983B2E0B0939407B1E0B0939507B0E05A
:105AA000B0939607B1E0B0937201B0E0B093730188
:105AB000B1E0BA83B0E0BB8300919407015010E0DD
:105AC00040EE50E00E947C0524E731E0020F131FF6
:105AD0004091720141500E831F8300E710E050E0B7
