:100000000C94C00F0C9400000C9400000C9415117B
:100010000C9400000C9400000C9400000C94000060
:100020000C9400000C9400000C9400000C94000050
:100030000C9400000C9400000C9400000C94000040
:100040000C9400000C9400000C9400000C94000030
:100050000C9400000C9400000C9400000C94000020
:100060000C9400000C9400000C9400000C94000010
:100070000C9400000C9400000C9400000C94000000
:100080000C9400000C9400000C940000B8D021F0F7
:10009000662309F0ABD098940895F8DF09F441C0C5
:1000A000E62ED52EC42EB32EA22E912E802E002DFC
:1000B000112D222D332DEADF09F43DC0842F952F19
:1000C0008C199D09B9F072F49095809501964C2D8C
:1000D0005D2D883180F53595279517950795019702
:1000E000D1F708C08831E8F4B594A7949794879421
:1000F0000197D1F766272EF0080D191D2A1D3B1D0B
:1001000009C0801A910AA20AB30A082D192D2A2DB6
:100110003B2D332312F46AD060E827D001C018D0F9
:1001200016C0002D112D222D332DD6F74CD0C1F342
:1001300040E83427F5CF082D192D2A2D3B2D4C2DC5
:100140005D2D6E2D33235AF751D060E8E8CF089526
:100150003AD039F041585F4F342F220F369527950A
:10016000362B0895689499DF08952DD011F19F934F
:100170008F938EE790E0332351F0369527951795AE
:10018000079548175907B4F44F5F5F4FF4CF809538
:100190009095019622239AF0000F111F221F4817F5
:1001A00059071CF041505040F5CF00271127222756
:1001B000332708C033270FEF102F2FE7322F8F91EF
:1001C0009F91C6DF0895002329F4112319F42223F7
:1001D00009F433230895C6DF332332F0F4DF11F03E
:1001E00001E003C0002701C00FEF089500951095AE
:1001F000209530950F5F1F4F2F4F3F4F0895E3DF3E
:1002000079F0632F6078220F331F432F5FE7451B80
:1002100055275040269530E8232B3327989403C068
:100220004427552766270895E89437DF0895042E5C
:10023000152E262E372ECFDF0023089547E166279F
:10024000552726F0332312F4D1DF60E88EDF0895BE
:10025000D6DFF1F05523C2F04F31A8F44731C1F099
:1002600050F44195495E05C035952795179507953A
:100270004A95D1F70DC04751000F111F221F331FA0
:100280004A95D1F705C03FE7232F132F032F03C053
:10029000662309F0ABDF0895042E152E262E372E87
:1002A000C3DF002E112E222E332E0895002E112E84
:1002B000222E332E042F152F262F372F8CDF0023CD
:1002C0001CF00024039401C000240895B0DF1CF446
:1002D0000024039401C000240895E894AFDF08953A
:1002E00000917100087F102F012F08953F932F93E5
:1002F0001F930F93002D112D222D332D80DF09F434
:100300004BC0E62ED52EC42EB32EA22E912E802EBB
:100310000F911F912F913F9172DF61F16E254C1962
:100320005D09403853073CF541387FEF57077CF1B2
:1003300080E27724632E522E412E302F2227112760
:100340000027000F111F221F331F441C551C661C61
:10035000771C28F0481859086A087B0804C0480C24
:10036000591C6A1C7B1C0AF001608A9551F74150A8
:100370005040FBDE16C00FEF102F2FE73FE766233C
:10038000C9F321DFB9F3342D30E83425F3CF00274A
:10039000102F202F302FEECF0F900F900F900F9037
:1003A000EACF0895C801BA0197FB092E07260AD0A3
:1003B00077FD04D00CD006D000201AF4709561951A
:1003C0007F4F0895F6F7909581959F4F0895AA1B4A
:1003D000BB1B51E107C0AA1FBB1FA617B70710F030
:1003E000A61BB70B881F991F5A95A9F78095909562
:1003F000BC01CD0108950895042E152E262E372E0A
:1004000075DF002E112E222E332E08952F923F924B
:10041000B0917100BE7FB0937100B0917100BD7F4B
:10042000B0937100B0E2B093700052D158D13F92B6
:100430002F92B0EA2B2E65D12F903F9062D1242CC1
:1004400060D142D11CE907ED0A95F1F71A95E1F761
:10045000000000003F902F90089505E80A95F1F7FD
:100460000000089502E00A95F1F7000000000895E9
:100470009801249F8001259F100D349F100D089531
:10048000CF93DF93CDB7DEB72397CDBFDEBF2196E5
:10049000B0E83B1611F4B0E02B1681F4F201BDE296
:1004A000B193B3E3B193B2E3B193B7E3B193B6E3DE
:1004B000B193B8E3B193B0E0B19351C0B0E0BA8367
:1004C00000E010E0201631063CF4BFEFBA8300E0F4
:1004D00010E0021913091801F201B0E2B193B0E281
:1004E000B193B0E2B193B0E2B193B0E2B193B0E3B3
:1004F000B193B0E0B19382010B5F1F4F0883198362
:10050000B0E03B1611F4B0E02B1611F15F924F9260
:100510003F922F924AE050E0810144DF8C012F90FE
:100520003F90005DE881F98100833F922F924AE07D
:1005300050E0810137DF8B012F903F904F905F900B
:100540001801088119810150104008831983D8CF00
:100550000A81002321F0E881F981BDE2B08322966F
:10056000CDBFDEBFDF91CF9108951AE303E20A9574
:10057000F1F71A95E1F7000000000895049FD001FB
:10058000159FF001249FE00DF11D069FE00DF11D68
:10059000349FF00D259FF00D169FF00D079FF00D75
:1005A0003327149FB00DE11DF31F059FB00DE11D12
:1005B000F31F8D019F010895CF93DF93CDB7DEB771
:1005C0002497CDBFDEBF2196152D110FB7E0042D66
:1005D0000695BA95E9F7010F0F57202F30E007FD78
:1005E0003FEF00E010E020173107DCF440E050E07E
:1005F00060E070E08101920159DE002800E009F01E
:100600000FEF002331F0B0E0B883B983BA83BB8326
:1006100007C0B0E0B883B983B0E8BA83BFE3BB8357
:100620002AC008E1021728F4288239824A825B82B4
:1006300022C0810192010CDE50DE088319832A83D7
:100640003B83A101B201088119812A813B813EDEF1
:10065000002800E009F00FEF002369F008811981FC
:100660002A813B8140E050E060E87FE315DE0883AB
:1006700019832A833B83088119812A813B81239630
:10068000CDBFDEBFDF91CF910895B4E8B093740081
:1006900020FAB0917400B6F9B0937400B091740070
:1006A000B7FD02C00000FACF10917300012F08952A
:1006B000992779E004C0991F941708F0941B001F34
:1006C0007A95C9F700950895B4E9B0937400089538
:1006D000B0E3B0937100B4E0B09374000895B4EA4D
:1006E000B0937400B0917400B7FD02C00000FACF5F
:1006F000F7DD0830B0E009F0BFEF0B2F102F012F0E
:10070000089520927300B4E8B0937400B09174001F
:10071000B7FD02C00000FACF0895B0912B07BD7F4E
:10072000B0932B075BD3B0912B07B260B0932B072C
:1007300008952F923F92B0917100BE7FB0937100E7
:10074000B0917100BD7FB0937100B0E2B0937000C2
:10075000BFDFC5DF3F922F92B0EA2B2ED2DF2F9062
:100760003F90CFDFBCDFB1EA2B2ECBDF22248DDF21
:1007700000930001A9DF1CE907ED0A95F1F71A952E
:10078000E1F7000000003F902F900895CF93DF9392
:10079000CDB7DEB7A597CDBFDEBF21962F923F9292
:1007A0004F925F92B5E0BA83B0E0BB83B1E0B9830A
:1007B000B1E0B0932707B0E0B0932807B1E0B09361
:1007C0002907B0E0B0932A07B1E0B8830A811B8102
:1007D0000F5F1F4F0A831B830981015010E040EE19
:1007E00050E046DE27E031E0020F131F4091290759
:1007F00041500BA31CA308E310E050E039DE2BA10D
:100800003CA1200F311F00912707015010E0000F7D
:10081000111F000F111F000F111F200F311F088122
:10082000015010E0000F111F000F111FF801E20F1F
:10083000F31F0081402E2A803B80E8DD0A811B8166
:100840000F5F1F4F0A831B830981015010E040EEA8
:1008500050E00EDE27E031E0020F131F4091290720
:1008600041500BA31CA308E310E050E001DE2BA1D4
:100870003CA1200F311F00912707015010E0000F0D
:10088000111F000F111F000F111F200F311F0881B2
:10089000015010E0000F111F000F111F020F131F56
:1008A000F80131960081402E2A803B80AFDD0A811D
:1008B0001B810F5F1F4F0A831B830981015010E0CA
:1008C00040EE50E0D5DD27E031E0020F131F4091EC
:1008D000290741500BA31CA308E310E050E0C8DD3A
:1008E0002BA13CA1200F311F00912707015010E0E0
:1008F000000F111F000F111F000F111F200F311FBC
:100900000881015010E0000F111F000F111F020F8E
:10091000131FF80132960081402E2A803B8076DD3D
:100920000A811B810F5F1F4F0A831B8309810150BE
:1009300010E040EE50E09CDD27E031E0020F131F95
:100940004091290741500BA31CA308E310E050E09D
:100950008FDD2BA13CA1200F311F009127070150F3
:1009600010E0000F111F000F111F000F111F200FAB
:10097000311F0881015010E0000F111F000F111FDF
:10098000020F131FF80133960081402E2A803B800E
:100990003DDD2A803B80CDDE0E94B40FB1E03B2ECE
:1009A000B1E04B2E20900001F6D1FE013496B5E463
:1009B000B193B5E4B193B0E7B193B2E7B193BFE6B9
:1009C000B193BDE6B193BFE5B193B4E6B193B1E69F
:1009D000B193B4E7B193B1E6B193BFE5B193B2E798
:1009E000B193B5E6B193B1E6B193B4E6B193B0E299
:1009F000B193B7E7B193B2E7B193B9E6B193B4E776
:100A0000B193B5E6B193BEE6B193B0E2B193B9E666
:100A1000B193B3E7B193BAE3B193B0E2B193B0E06D
:100A2000B1938E010C5F1F4F2801B1E03B2EB1E066
:100A30002B2E0E94710FB1E04B2EB1E05B2EB1E086
:100A40003B2EB2E02B2E0E94710F0A811B8120E009
:100A500017FD2FEF322F44E650E060E070E08EDDAE
:100A60003CDC40E050EA64EC74E4C6DC1801290187
:100A7000A3DDEEDBB1E04B2EB1E05B2E180100DD13
:100A8000FE013496B7E5B193B2E7B193B9E6B193FD
:100A9000B4E7B193B5E6B193B0E2B193B3E6B193E5
:100AA000BFE6B193B5E7B193BEE6B193B4E7B193B6
:100AB000B5E6B193B2E7B193BAE3B193B0E2B193C3
:100AC000B0E0B1938E010C5F1F4F2801B1E03B2EC7
:100AD000B1E02B2E0E94710FB1E04B2EB1E05B2EE6
:100AE000B7E03B2EB2E02B2E0E94710F088102303E
:100AF00021F008810F5F088369CE009129071091CA
:100B00002A07103009F4043059F000912907109198
:100B10002A070F5F1F4F0093290710932A0754CE0F
:100B20000091270710912807103009F4073059F079
:100B300000912707109128070F5F1F4F0093270789
:100B4000109328073BCE0981073021F009810F5F00
:100B500009832ECE25E012E80AE30A95F1F71A95EB
:100B6000E1F72A95D1F7000000005F904F903F9089
:100B70002F90A496CDBFDEBFDF91CF910895CF9384
:100B8000DF93CDB7DEB72297CDBFDEBF2196B1E0B0
:100B9000B0934807B1E0B0932707B0E0B0932807BF
:100BA000B1E0B0932907B0E0B0932A07009148075D
:100BB000015010E040EE50E05BDC27E031E0020F36
:100BC000131F4091290741500883198308E310E05F
:100BD00050E04EDC28813981200F311F009127071A
:100BE000015010E0000F111F000F111F000F111F07
:100BF000200F311F022D015010E0000F111F000FB8
:100C0000111FF801E20FF31F3082009148070150D5
:100C100010E040EE50E02CDC27E031E0020F131F23
:100C20004091290741500883198308E310E050E000
:100C30001FDC28813981200F311F009127070150C7
:100C400010E0000F111F000F111F000F111F200FC8
:100C5000311F022D015010E0000F111F000F111F56
:100C6000020F131FF801319640820091480701508E
:100C700010E040EE50E0FCDB27E031E0020F131FF4
:100C80004091290741500883198308E310E050E0A0
:100C9000EFDB28813981200F311F00912707015098
:100CA00010E0000F111F000F111F000F111F200F68
:100CB000311F022D015010E0000F111F000F111FF6
:100CC000020F131FF801329650820091480701501D
:100CD00010E040EE50E0CCDB27E031E0020F131FC4
:100CE0004091290741500883198308E310E050E040
:100CF000BFDB28813981200F311F00912707015068
:100D000010E0000F111F000F111F000F111F200F07
:100D1000311F022D015010E0000F111F000F111F95
:100D2000020F131FF801339660820091290710917A
:100D30002A07103009F4043059F000912907109166
:100D40002A070F5F1F4F0093290710932A072ECF02
:100D50000091270710912807103009F4073059F047
:100D600000912707109128070F5F1F4F0093270757
:100D70001093280715CF00914807073031F00091F4
:100D800048070F5F0093480705CF2196CDBFDEBF10
:100D9000DF91CF910895E32DF42DB0E2B193B0E24D
:100DA000B193B0E3B193B0E0B193032D142D0E5F76
:100DB0001F4F9801B0E02B1681F04AE0022D78DC3D
:100DC000092F005DF90100834AE0022D71DC202E1D
:100DD0008901015010409801EDCF089527FAB09194
:100DE0003500B7F9B093350026FAB0913500B6F961
:100DF000B093350025FAB0913500B5F9B0933500C0
:100E000024FAB0913500B4F9B0933500B0912B07B6
:100E100000903500E894B1FF689402F80092350024
:100E2000B0913500B860B09335001CDBB09135004F
:100E3000B77FB093350023FAB0913500B7F9B0937E
:100E4000350022FAB0913500B6F9B093350021FA99
:100E5000B0913500B5F9B093350020FAB091350066
:100E6000B4F9B0933500B0912B0700903500E894A9
:100E7000B1FF689402F800923500B0913500B86077
:100E8000B0933500EFDAB0913500B77FB0933500FD
:100E9000B0912B07B1FF02C068DB01C0DEDA089514
:100EA00016E00BE20A95F1F71A95E1F70000000051
:100EB0000895CF93DF93CDB7DEB76797CDBFDEBF81
:100EC00021962F923F924F925F92B5E0BA83B0E0A5
:100ED000BB83B1E0B983B1E0B0932707B0E0B09332
:100EE0002807B1E0B0932907B0E0B0932A07B1E03A
:100EF000B8830A811B810F5F1F4F0A831B83180170
:100F000018DC0981015010E040EE50E0B1DA27E032
:100F100031E0020F131F4091290741500D8B1E8BAA
:100F200008E310E050E0A4DA2D893E89200F311F3C
:100F300000912707015010E0000F111F000F111F33
:100F4000000F111F200F311F0881015010E0000F0A
:100F5000111F000F111FF801E20FF31F0091000194
:100F600000830A811B810F5F1F4F0A831B831801B7
:100F7000E0DB0981015010E040EE50E079DA27E033
:100F800031E0020F131F4091290741500D8B1E8B3A
:100F900008E310E050E06CDA2D893E89200F311F04
:100FA00000912707015010E0000F111F000F111FC3
:100FB000000F111F200F311F0881015010E0000F9A
:100FC000111F000F111F020F131FF801319600911E
:100FD000000100830A811B810F5F1F4F0A831B835F
:100FE0001801A7DB0981015010E040EE50E040DA23
:100FF00027E031E0020F131F4091290741500D8B6C
:101000001E8B08E310E050E033DA2D893E89200F73
:10101000311F00912707015010E0000F111F000F32
:10102000111F000F111F200F311F0881015010E008
:10103000000F111F000F111F020F131FF80132962E
:101040000091000100830A811B810F5F1F4F0A83FB
:101050001B8318016EDB0981015010E040EE50E067
:1010600007DA27E031E0020F131F409129074150B2
:101070000D8B1E8B08E310E050E0FAD92D893E89D4
:10108000200F311F00912707015010E0000F111FA2
:10109000000F111F000F111F200F311F0881015079
:1010A00010E0000F111F000F111F020F131FF80196
:1010B000339600910001008357D7B1E03B2EB1E099
:1010C0004B2E2090000167DEFE013496B4E6B1930A
:1010D000B1E6B193B4E7B193B5E6B193B0E2B193A1
:1010E000B2E7B193B5E6B193B1E6B193B4E6B1938B
:1010F000B0E2B193B9E6B193B3E7B193BAE3B19378
:10110000B0E2B193B0E0B1938E010C5F1F4F2801A4
:10111000B1E03B2EB1E02B2EE4D6B1E04B2EB1E096
:101120005B2EB1E03B2EB2E02B2EDBD60A811B8179
:1011300020E017FD2FEF322F44E650E060E070E032
:101140001DDACBD840E050EA64EC74E455D91801BC
:10115000290132DA7DD8B1E04B2EB1E05B2E1801C7
:101160008FD9FE013496B2E7B193B5E6B193B1E6FB
:10117000B193B4E6B193B0E2B193B3E6B193BFE6F5
:10118000B193B5E7B193BEE6B193B4E7B193B5E6D9
:10119000B193B2E7B193BAE3B193B0E2B193B0E0E7
:1011A000B1938E010C5F1F4F2801B1E03B2EB1E0DF
:1011B0002B2E97D6B1E04B2EB1E05B2EB7E03B2E45
:1011C000B2E02B2E8ED60881023021F008810F5F0D
:1011D00008838FCE0091290710912A07103009F457
:1011E000043059F00091290710912A070F5F1F4F13
:1011F0000093290710932A077ACE009127071091B0
:101200002807103009F4073059F000912707109192
:1012100028070F5F1F4F009327071093280761CE01
:101220000981073021F009810F5F098354CE5F9057
:101230004F903F902F906696CDBFDEBFDF91CF914C
:101240000895B0913500B77FB0933500B091350067
:10125000BB7FB0933500B0913500BF77B0933500B8
:10126000B0913500BF7BB0933500B0913500BF7DA4
:10127000B0933500B0913500BF7EB0933500B0918A
:101280003400B860B0933400B0913400B460B093CF
:101290003400B0913400B061B0933400B0913400A8
:1012A000B062B0933400B0913400B064B0933400B5
:1012B000B0913400B068B093340057D956D955D99D
:1012C000B0913500B062B0933500B0913500B06197
:1012D000B0933500B0913500B860B0933500C2D8F6
:1012E000B0913500B77FB09335003FD9B09135004C
:1012F000B860B0933500B6D8B0913500B77FB093E1
:10130000350033D9B0913500B860B0933500AAD814
:10131000B0913500B77FB093350027D9B091350033
:10132000BF7EB0933500B0913500B860B093350002
:1013300099D8B0913500B77FB093350016D9B091E8
:101340003500B860B09335008DD8B0913500B77FC7
:10135000B0933500B0913500BF7DB0933500B091AA
:101360003500B068B0933500B0913500B860B093E7
:10137000350078D8B0913500B77FB0933500F5D8F7
:10138000B0913500BF77B0933500B0913500B061B2
:10139000B0933500B0913500B860B093350062D895
:1013A000B0913500B77FB0933500B0913500BF7E66
:1013B000B0933500B0913500B860B093350052D885
:1013C000B0913500B77FB0933500CFD8B0913500DC
:1013D000B860B093350046D8B0913500B77FB09370
:1013E0003500B0913500B061B0933500B091350053
:1013F000B860B093350036D8B0913500B77FB09360
:101400003500B3D8B0913500BF7EB0933500B091B0
:101410003500B860B093350025D8B0913500B77F5E
:10142000B0933500B0913500B068B0933500B091FD
:101430003500B064B0933500B0913500B062B09320
:101440003500B0913500B061B0933500B0913500F2
:10145000B860B093350006D8B0913500B77FB0932F
:10146000350083D8B0912B07B260B0932B07089555
:10147000CF93DF93CDB7DEB72197CDBFDEBF2196E7
:10148000B0E0B883B42D11E0BB2319F0110FBA9569
:10149000E9F7F1010081102300E0103009F001E0CC
:1014A0000615D9F400E0051530F4FADCF9DC052D59
:1014B0000150502EF7CFB42D11E0BB2319F0110FBE
:1014C000BA95E9F7F1010081102300E0103009F02E
:1014D00001E0061511F4BFEFB8830881CDBFDEBF70
:1014E000DF91CF910895CF93DF93CDB7DEB76A97A1
:1014F000CDBFDEBF21962F923F924F925F926F92A7
:10150000B0E0B09300012224332413D900910001EC
:101510000A3009F080C028D5FE01B4E5B193B7E5E3
:10152000B193B9E4B193B0E2B193B5E4B193B5E44A
:10153000B193B0E5B193B2E5B193BFE4B193BDE42B
:10154000B193B0E0B1938E012801B1E03B2EB1E040
:101550002B2EC7D4FE01B9E6B193B3E7B193B0E245
:10156000B193B7E7B193BFE6B193B2E7B193BBE6EE
:10157000B193B9E6B193BEE6B193B7E6B193B0E0EB
:10158000B1938E012801B1E03B2EB2E02B2EA9D4FD
:1015900025E11BE40FEB0A95F1F71A95E1F72A957F
:1015A000D1F70000B1E03B2EB1E04B2E20900001BE
:1015B000F2DBFE01B5E4B193B5E4B193B0E7B193CA
:1015C000B2E7B193BFE6B193BDE6B193BDE6B19387
:1015D000BDE6B193BDE6B193BDE6B193BDE6B1936F
:1015E000BDE6B193BDE6B193BDE6B193BDE6B1935F
:1015F000B0E0B1938E012801B1E03B2EB1E02B2E7B
:1016000070D4B1E04B2EB1E05B2EB1E03B2EB2E0E6
:101610002B2E67D48CC0A8D4FE01B4E5B193B7E5F6
:10162000B193B9E4B193B0E2B193B5E4B193B5E449
:10163000B193B0E5B193B2E5B193BFE4B193BDE42A
:10164000B193B0E0B1938E012801B1E03B2EB1E03F
:101650002B2E47D4FE01B9E6B193B3E7B193B0E2C4
:10166000B193BEE4B193BFE6B193B4E7B193B0E2F6
:10167000B193B7E7B193BFE6B193B2E7B193BBE6DD
:10168000B193B9E6B193BEE6B193B7E6B193B0E0DA
:10169000B1938E012801B1E03B2EB2E02B2E21D474
:1016A000B1E03B2EB1E04B2E2090000174DB5CD406
:1016B00025E11BE40FEB0A95F1F71A95E1F72A955E
:1016C000D1F70000FE01B0E3B193B0E2B193B5E40D
:1016D000B193B5E4B193B0E5B193B2E5B193BFE492
:1016E000B193BDE4B193B0E2B193B9E6B193B3E77E
:1016F000B193BAE3B193B0E0B1938E012801B1E0A8
:101700003B2EB1E02B2EEDD3B1E04B2EB1E05B2EA2
:10171000B1E03B2EB2E02B2EE4D325E11BE40FEB2E
:101720000A95F1F71A95E1F72A95D1F700001CD434
:10173000B0E0B0930001222433240E949903009169
:1017400000010A3009F094C0FE01B5E6B193B8E794
:10175000B193B4E7B193B0E2B193B5E4B193B5E41A
:10176000B193B0E7B193B0E2B193B7E7B193B2E709
:10177000B193B9E6B193B4E7B193B5E6B193B4E6EA
:10178000B193B0E2B193B2E6B193B5E6B193B6E6E8
:10179000B193BFE6B193B2E7B193B0E0B1938E01DC
:1017A0002801B1E03B2EB1E02B2E9BD3B1E03B2EC4
:1017B000B1E04B2E20900001EEDAB1E04B2EB1E00B
:1017C0005B2EB1E03B2EB2E02B2E8BD325E11BE448
:1017D0000FEB0A95F1F71A95E1F72A95D1F700007A
:1017E000C3D3C2D3FE01B2E5B193B5E6B193B1E67E
:1017F000B193B4E6B193B9E6B193BEE6B193B7E65F
:10180000B193B0E2B193B5E4B193B5E4B193B0E56F
:10181000B193B2E5B193BFE4B193BDE4B193B0E24B
:10182000B193B0E0B1938E012801B1E03B2EB1E05D
:101830002B2E57D3FE01B0E2B193BEE2B193BEE2CC
:10184000B193BEE2B193B0E0B1938E012801B1E053
:101850003B2EB2E02B2E45D32CDB25E11BE40FEB16
:101860000A95F1F71A95E1F72A95D1F7000048C1DA
:101870007BD3FE01B5E6B193B8E7B193B4E7B1937A
:10188000B0E2B193BEE6B193BFE6B193B4E7B193D2
:10189000B0E2B193B7E7B193B2E7B193B9E6B193D0
:1018A000B4E7B193B5E6B193B4E6B193B1E3B193C4
:1018B000B1E3B193B1E3B193B1E3B193B1E3B193C8
:1018C000B1E3B193B1E3B193B1E3B193B1E3B193B8
:1018D000B0E0B1938E012801B1E03B2EB1E02B2E98
:1018E00000D325E11BE40FEB0A95F1F71A95E1F718
:1018F0002A95D1F70000B1E16B2E55244424B1E0C4
:101900003B2EB1E02B2E3BD9B1E16B2E5524442464
:10191000B1E03B2EB2E02B2E32D926D3FE01B7E543
:10192000B193B2E7B193B4E7B193B9E6B193BEE630
:10193000B193B7E6B193B0E2B193B4E7B193BFE628
:10194000B193B0E2B193B5E4B193B5E4B193B0E52E
:10195000B193B2E5B193BFE4B193BDE4B193B0E20A
:10196000B193BEE2B193BEE2B193BEE2B193B0E0F7
:10197000B1938E012801B1E03B2EB1E02B2EB1D204
:10198000F3D2FE01B7E5B193B2E7B193B4E7B193F7
:10199000B9E6B193BEE6B193B7E6B193B0E2B193C5
:1019A000B4E7B193BFE6B193B0E2B193B5E4B193BC
:1019B000B5E4B193B0E5B193B2E5B193BFE4B193AF
:1019C000BDE4B193B0E2B193B0E0B1938E012801D0
:1019D000B1E03B2EB1E02B2E84D2BEE2B883BEE252
:1019E000B983BEE2BA83B0E0BB838E012801B1E0C7
:1019F0003B2EB2E02B2E75D20E94C603FE01B7E744
:101A0000B193B2E7B193B9E6B193B4E7B193B9E654
:101A1000B193BEE6B193B7E6B193B0E2B193B5E648
:101A2000B193B8E7B193B4E7B193B0E2B193B5E63F
:101A3000B193B5E6B193B0E7B193B2E7B193BFE626
:101A4000B193BDE6B193B0E0B1938E012801B1E04E
:101A50003B2EB1E02B2E45D287D2BAE04B2E22246A
:101A600033240E940602B1E0B0932707B0E0B093A0
:101A70002807B1E0B0932907B0E0B0932A07B1E09E
:101A8000B0934907B0E0B0934A07B7E0B093480776
:101A900020E435E007E011E0020F131FF801339650
:101AA0000081B1E03B2EB1E04B2E202E74D9FE0117
:101AB000BFE6B193BEE6B193BFE5B193B1E6B19392
:101AC000BFE5B193B0E3B193B0E0B1938E012801CB
:101AD000B1E03B2EB1E02B2E04D2B1E04B2EB1E0B1
:101AE0005B2EB1E03B2EB2E02B2EFBD125E11BE4B7
:101AF0000FEB0A95F1F71A95E1F72A95D1F7000057
:101B000025E11BE40FEB0A95F1F71A95E1F72A9509
:101B1000D1F7000029D2B1E0B0932707B0E0B0932D
:101B20002807B1E0B0932907B0E0B0932A07B1E0ED
:101B3000B0934907B0E0B0934A07B7E0B0934807C5
:101B400020E435E007E011E0F901E00FF11F00812A
:101B5000B1E03B2EB1E04B2E202E1DD9FE01BFE699
:101B6000B193BEE6B193BFE5B193B1E6B193BFE5E2
:101B7000B193B0E3B193B0E0B1938E012801B1E02D
:101B80003B2EB1E02B2EADD1B1E04B2EB1E05B2E60
:101B9000B1E03B2EB2E02B2EA4D125E11BE40FEBEC
:101BA0000A95F1F71A95E1F72A95D1F70000DCD1F3
:101BB00000914807015010E040EE50E00E943802CA
:101BC00027E031E0020F131F409129074150088F91
:101BD000198F08E310E050E00E943802288D398DFB
:101BE000200F311F00912707015010E0000F111F37
:101BF000000F111F000F111F200F311F0091490707
:101C0000015010E0000F111F000F111F020F131FD2
:101C1000F80133960081B1E03B2EB1E04B2E202E2F
:101C2000BAD8FE01B0E7B193B2E7B193B5E6B1938C
:101C3000B3E6B193B2E7B193BEE6B193B4E7B19323
:101C4000B1E6B193B7E6B193B5E6B193B0E0B19325
:101C50008E012801B1E03B2EB1E02B2E42D1B1E044
:101C60004B2EB1E05B2EB1E03B2EB2E02B2E39D1F2
:101C700025E11BE40FEB0A95F1F71A95E1F72A9598
:101C8000D1F70000B0E0B0930001222433240E9479
:101C90009903009100010A3009F080C065D1FE016E
:101CA000B4E5B193B7E5B193B9E4B193B0E2B193C0
:101CB000B5E4B193B5E4B193B0E5B193B2E5B193B6
:101CC000BFE4B193BDE4B193B0E0B1938E012801BC
:101CD000B1E03B2EB1E02B2E04D1FE01B9E6B19369
:101CE000B3E7B193B0E2B193B7E7B193BFE6B19375
:101CF000B2E7B193BBE6B193B9E6B193BEE6B19357
:101D0000B7E6B193B0E0B1938E012801B1E03B2E6C
:101D1000B2E02B2EE6D025E11BE40FEB0A95F1F79C
:101D20001A95E1F72A95D1F70000B1E03B2EB1E01A
:101D30004B2E209000012FD8FE01B5E4B193B5E4FD
:101D4000B193B0E7B193B2E7B193BFE6B193BDE60B
:101D5000B193BDE6B193BDE6B193BDE6B193BDE6E7
:101D6000B193BDE6B193BDE6B193BDE6B193BDE6D7
:101D7000B193BDE6B193B0E0B1938E012801B1E01B
:101D80003B2EB1E02B2EADD0B1E04B2EB1E05B2E5F
:101D9000B1E03B2EB2E02B2EA4D08DC0E5D0FE01E9
:101DA000B4E5B193B7E5B193B9E4B193B0E2B193BF
:101DB000B5E4B193B5E4B193B0E5B193B2E5B193B5
:101DC000BFE4B193BDE4B193B0E0B1938E012801BB
:101DD000B1E03B2EB1E02B2E84D0FE01B9E6B193E9
:101DE000B3E7B193B0E2B193BEE4B193BFE6B19370
:101DF000B4E7B193B0E2B193B7E7B193BFE6B19363
:101E0000B2E7B193BBE6B193B9E6B193BEE6B19345
:101E1000B7E6B193B0E0B1938E012801B1E03B2E5B
:101E2000B2E02B2E5ED0B1E03B2EB1E04B2E2090E5
:101E300000010E94CB0698D025E11BE40FEB0A9528
:101E4000F1F71A95E1F72A95D1F70000FE01B0E30A
:101E5000B193B0E2B193B5E4B193B5E4B193B0E519
:101E6000B193B2E5B193BFE4B193BDE4B193B0E2F5
:101E7000B193B9E6B193B3E7B193BAE3B193B0E0EC
:101E8000B1938E012801B1E03B2EB1E02B2E29D079
:101E9000B1E04B2EB1E05B2EB1E03B2EB2E02B2E39
:101EA00020D025E11BE40FEB0A95F1F71A95E1F735
:101EB0002A95D1F7000025E11BE40FEB0A95F1F715
:101EC0001A95E1F72A95D1F700004ED06F905F90F8
:101ED0004F903F902F906996CDBFDEBFDF91CF919D
:101EE00008952F92B1E02B1619F4B0E82B2E14C0F0
:101EF000B2E02B1619F4B0EC2B2E0EC0B3E02B166B
:101F000019F4B4E92B2E08C0B4E02B1619F4B4ED83
:101F10002B2E02C0B0E82B2E032D0150020D202ED7
:101F2000202E0E94EE06B0912B07BD7FB0932B07A9
:101F30009201F9010081002381F0F90100813F93B2
:101F40002F932F92202E0E948D032F902F913F913F
:101F500089010F5F1F4F9801ECCFB0912B07B26042
:101F6000B0932B072F9008952F926BD9B1E02B2EB1
:101F70000E94EE06BCE02B2E0E94EE062F900895E4
:101F8000BFEFBDBFB0E1BEBFCDB7DEB76097CDBF7D
:101F9000DEBF21962F923F924F925F9252D9B1E0CD
:101FA0002B2E0E94EE06BCE02B2E0E94EE06E7E3ED
:101FB000F7E0B8E6B193B5E6B193BCE6B193BCE601
:101FC000B193BFE6B193B0E0B193ECE2F7E0B2E5D4
:101FD000B193B4E5B193B3E4B193B2E3B193B0E29A
:101FE000B193B3E6B193BCE6B193B9E6B193B3E66E
:101FF000B193BBE6B193B0E0B19375DAB5DFFE0102
:10200000B4E7B193B5E6B193B3E7B193B4E7B19355
:10201000B0E2B193B5E6B193B8E7B193B4E7B19349
:10202000B0E2B193B5E6B193B5E6B193B0E7B19341
:10203000B2E7B193BFE6B193BDE6B193B0E0B1931F
:102040008E012801B1E03B2EB1E02B2E4ADFB1E03A
:10205000B0932707B0E0B0932807B1E0B093290709
:10206000B0E0B0932A07B7E0B0934807B1E0B0936F
:102070004907B0E0B0934A0720E435E007E011E0FB
:10208000020F131FF80133960081B1E03B2EB1E03F
:102090004B2E202E0E94CB06FE01BFE6B193BEE67A
:1020A000B193BFE5B193B1E6B193BFE5B193B0E3AE
:1020B000B193B0E0B1938E012801B1E03B2EB1E0C5
:1020C0002B2E0FDFB1E04B2EB1E05B2EB1E03B2EAB
:1020D000B2E02B2E06DF25E11BE40FEB0A95F1F7AA
:1020E0001A95E1F72A95D1F700003EDFB1E0B093F1
:1020F0002707B0E0B0932807B1E0B0932907B0E01C
:10210000B0932A07B7E0B0934807B1E0B09349070E
:10211000B0E0B0934A0720E435E007E011E0020F99
:10212000131FF80133960081B1E03B2EB1E04B2E36
:10213000202E0E94CB06FE01BFE6B193BEE6B1930E
:10214000BFE5B193B1E6B193BFE5B193B0E3B1930D
:10215000B0E0B1938E012801B1E03B2EB1E02B2E0F
:10216000C0DEB1E04B2EB1E05B2EB1E03B2EB2E021
:102170002B2EB7DE25E11BE40FEB0A95F1F71A953C
:10218000E1F72A95D1F70000B0E0B09300012224D6
:1021900033240E949903B1E03B2EB1E04B2E2090F6
:1021A00000010E94CB06E0DEFE01B0E3B193B8E788
:1021B000B193B0E3B193B0E3B193B0E2B193B5E4BE
:1021C000B193B5E4B193B0E5B193B2E5B193BFE497
:1021D000B193BDE4B193B0E2B193B9E6B193B3E783
:1021E000B193BAE3B193B0E0B1938E012801B1E0AD
:1021F0003B2EB1E02B2E75DEB1E04B2EB1E05B2E15
:10220000B1E03B2EB2E02B2E6CDE25E11BE40FEBA0
:102210000A95F1F71A95E1F72A95D1F7000065CFF5
:102220005F904F903F902F90FFCF0F922F925F9231
:102230000F931F932F933F93EF93FF93EF93FF938E
:10224000BF93BFB7BF932F923F924F925F926F920F
:10225000BFB7BF77BFBFB8B7BB7FB8BFB9B7BB7F8A
:10226000B9BFE7E3F7E0BCE3B193B9E6B193BEE6EB
:10227000B193B4E7B193B0E2B193B9E6B193B3E7E8
:10228000B193B0E2B193B3E7B193B5E6B193BCE6D5
:10229000B193B5E6B193B3E6B193B4E7B193B5E6C4
:1022A000B193B4E6B193BEE3B193B0E0B193B7E3B9
:1022B0004B2EB7E05B2EB1E03B2EB1E02B2E11DEB2
:1022C000B1E06B2E5524B2E04B2EB0E32B2EB0E0E4
:1022D0003B2ECED8003079F0B0912B07B160B0938F
:1022E0002B0742DE21E11CE30CEC0A95F1F71A956D
:1022F000E1F72A95D1F766245524B2E04B2EB0E3DE
:102300002B2EB0E03B2EB4D800902B07112700FCF9
:102310001395012339F1B0912B07BE7FB0932B07A2
:10232000E7E3F7E0BCE3B193B7E6B193BFE6B1935F
:10233000BFE6B193B4E6B193BEE3B193B0E0B1931D
:10234000B7E34B2EB7E05B2EB1E03B2EB1E02B2E76
:10235000C8DD21E11CE30CEC0A95F1F71A95E1F7D1
:102360002A95D1F7B0E0B1BDB9B7B460B9BFBFB776
:10237000B068BFBF6F905F904F903F902F90BF911C
:10238000BFBFBF91FF91EF91FF91EF913F912F91CF
:102390001F910F915F902F900F901895FFFFFFFFF7
:00000001FF
