:0E0000001DC0FECFFDCFFCCFFBCFFACFF9CF56
:10000E00F8CF44C0F6CFF5CFF4CFF3CFF2CFF1CF88
:10001E00F0CFEFCFEECFEDCFC0F9A4B0999282F82A
:10002E0080908883C6A1868E898CBFFF0000F894CD
:10003E00EE27ECBBF1E0FBBFEBBFE5BFF8E1F1BD96
:10004E00E1BD8DE0A2E0BB27ED938A95E9F780E054
:10005E0094E0A0E6ED930197E9F7EAE3F0E08591ED
:10006E009591009761F0A591B59105901590BF01FE
:10007E00F00105900D920197E1F7FB01F0CFEFE54E
:10008E00EDBFE4E0EEBFC0E6D1E087C0EA93BBD09F
:10009E00E1E0AE2EE99118957BD204E0E0E0E017A6
:1000AE00D8F4A6E2B0E0E02FE150F0E0E05AFE4FC7
:1000BE00E081F0E0EA0FFB1F249110E0183050F4BD
:1000CE0027FF02C0959A01C095989698220F969A8E
:1000DE001F5FF4CF0150E2CF5FD22396089524978D
:1000EE0058D2EE81FF81662777274FD191D0E0E07D
:1000FE00F0E060EC72E495D0DF01CB01E7EDF2E1C8
:10010E0064EF70E400D284D03FD2D4F48DD0DF01FE
:10011E00CB01E0E0F0E060E07FE383D0A0E0B0E070
:10012E0080E090E07ED08AD0E2E18CD090D0E09357
:10013E00610191D0E09362019BD0E09363011DC0F9
:10014E0073D0A0E0B0E080E09FE35DD177D0A02F28
:10015E00B12FE8EEF3E0A0D075D0E8EEF3E0AFD02B
:10016E000E2F1F2FA02FB12F72D0E093610173D0ED
:10017E00E09362017DD0E09363018EDF979A9798AA
:10018E000CD228960895E881E7B9369A349BFECFB3
:10019E00349AE4B1F5B121960895E0E0E8BBE7BBEF
:1001AE00E5BBE4BBEFE7E2BBEFEFE1BBE0E0E3BFB3
:1001BE00E2BFEFBDE4E0EEBD26D0E0E0E7BDE6BD78
:1001CE00EBBDEABDE9BDE8BDE2BDE5BDE4BDE3BD05
:1001DE00E5BFE4E0E9BFE0E8E8B9E0E0E0BFE7B999
:1001EE00E6E8E6B9E0B7EF7EE0BF7894AA2049F0E2
:1001FE00AA24E1E0EA93C7DF6E2E7F2E7A926A92EE
:10020E006EDFF4CFFFCFE5E8EDBDEEEEECBD089569
:10021E00EA83FB836C837D83AA81BB818C819D8164
:10022E00089550D0E9D00895AA81BB818C819D811B
:10023E00E0E0F0E060E271E434D1089573D00E2F67
:10024E001F2F0895E0936001A02FB12F0895E4E6CB
:10025E00F0E022D00895A02FB12FE4E6F0E02FD0E9
:10026E000E2F1F2FA02FB12FEAE0F0E015D008952A
:10027E00A02FB12FEAE0F0E022D00895E095F0959E
:10028E0060957095EF5FFF4F6F4F7F4F08956F2F03
:10029E00660F660B762F08950024112490E1AA0FA5
:1002AE00BB1F001C111C0E1A1F0A18F40E0E1F1E67
:1002BE0001C0A1609A9599F7FD01D0010895ECDF78
:1002CE00FD010895182E862F612D192E972F712D51
:1002DE001B2EBF2FF12D1A2EAE2FE12D089550E8B3
:1002EE00572711F45F93D1C05F3F31F0660F000CBA
:1002FE0057956795752F08955F9300200AF0CBC030
:10030E00BEC050E8192E1522880F991F9527550F3C
:10031E00879550E8072E0522660F771F7527550F14
:10032E00679508955F93F5DF703818F07F3F08F4F6
:10033E00ACC056E1571B92F45195583028F0EFEFB0
:10034E00FFEF6FEF7FE71AC077275523B9F0EE0F57
:10035E00FF1F661F771F5A95D1F710C077275830A9
:10036E0028F0EF2FF62F672F5850F9CF552331F085
:10037E0076956795F795E7955A95D1F700200AF48B
:10038E007DDF5F910895689401C0E89430976040D6
:10039E007040B1F0002426F0772312F400946EDF43
:1003AE00172E7EE1112032F07A95EE0FFF1F661F99
:1003BE00111CF9CFEF2FF62F612D5F9390DF5F9118
:1003CE0008955E2FEA2FA52F5F2FFB2FB52F562FE7
:1003DE00682F852F572F792F952F502D012C152EE5
:1003EE000895EA0FFB1F681F0895E095F09560953C
:1003FE00EF5FFF4F6F4F08955F9383DF903871F17A
:10040E0050E8152604C05F937CDF903839F17038C0
:10041E0021F1572F591B13F112F4D3DFFACF5831B4
:10042E0018F0AA27BB278827583028F0AB2FB82FF3
:10043E0088275850F9CF552329F08695B795A7955B
:10044E005A95D9F7502D512562F0CBDF38F46795C8
:10045E00F795E795739513F41EC0B3DF40DF5F91F8
:10046E000895EA1BFB0B680B81F010F40094BDDFBE
:10047E006623A2F3EE0FFF1F661F7A95CBF7EFEF01
:10048E00FFEF6FE77FEF5F910895EE27FF27662757
:10049E0077275F910895EFEFFFEF6FE77FE75F91AB
:1004AE0008955F932EDF703881F3903871F3012435
:1004BE000894791F23F44CF300200AF3ECCF3F93FA
:1004CE004F93112433274427552798E1330F441FA8
:1004DE00551FEE1FFF1F661F30F43A0F4B1F581F9C
:1004EE00E11DF11D611D9A9589F74F913F9166238C
:1004FE002AF0550FEE1FFF1F661F02C07395E3F221
:10050E00EEDE5F9108955F93FCDE703819F41120D2
:10051E0012F6B5CF903809F4B8CF01240894970B92
:10052E001BF4D4F30020F4CF792F6695F795E79559
:10053E008695B795A7954F9311244427552798E193
:10054E00AE17BF07860728F0AE1BBF0B860B0894AD
:10055E0001C08894111C441F551FAA1FBB1F881F62
:10056E009A9571F7E12DF42F652FA695E91FF91FC6
:10057E00691F4F9166232AF0EE0FFF1F661F7A95B3
:10058E005BF2ADDE5F910895109780409040089524
:10059E002A931A930A9308952A811981088108953E
:00000001FF
